:020000040800F2
:10000000C0130020D5000008ED3B0008B72C000805
:1000100000000000000000000000000000000000E0
:10002000000000000000000000000000273F000862
:100030000000000000000000253F0008513F0008BC
:100040000501000805010008050100080501000878
:100050000501000805010008050100080510000859
:1000600005010008A90F00080501000805010008A6
:1000700039060008D13F0008050100080501000805
:100080000501000800000000000000000501000854
:10009000000000000501000805010008B92C000857
:1000A0000000000005010008050100080501000826
:1000B000050100080000000005010008455A00087D
:1000C0000348854600F06AFA00480047655B00086F
:1000D000C01300200C4880F308880C480168090E02
:1000E0000B4A914205D10B480B4901600B480C4962
:1000F00001600C4880470C480047FEE7FEE7FEE73A
:10010000FEE7FEE7FEE70000C01300200400000049
:100110001F00000018100240010000000000014014
:1001200000000000CD3F0008C100000810B5202AE3
:1001300004DB0846203AD040002110BD0B46D340D6
:10014000D0402024A21A91400843194610BD03460E
:100150000B439B0703D009E008C9121F08C0042AFB
:10016000FAD203E00B780370401C491C521EF9D2EE
:100170007047D2B201E00270401C491EFBD27047AA
:100180000022F6E710B513460A4604461946FFF763
:10019000F0FF204610BD421C0178401C0029FBD115
:1001A000801A7047024670B54A40D30FDB07400003
:1001B0002DD04A002AD0010E140E00021202091995
:1001C000400A520A8418E50104465443000A120A00
:1001D0002E045043A4194219200CC543AA18120C2E
:1001E0000125AD03521C521912047F39240400D09A
:1001F000521C104301D44000491EC2B20C06C00973
:100200002018401C4008802A02D003E0002070BD66
:1002100040084000002900DA0020184370BD0000AB
:10022000F0B51FB488B00B9909980024484009998B
:10023000C00F490049080991C0070B990090490077
:1002400049080B9109990898A64608431CD00B99B8
:100250000A98084318D0099801244000420D48002C
:10026000410D099824050003000B204309900B98C9
:100270000003000B20430B9050181C49401800222B
:1002800001901446104605E0002001460DB0F0BD77
:10029000032801DA034600E003239C46C11A0AAE94
:1002A0000AE05F0008ADED5B4F00F75B7D43002780
:1002B000AA187C41491C5B1E6145F2DD410004AB7C
:1002C0005A522104120C0A43240C401C0828DFDB7C
:1002D000019802900099704601910090059B049A44
:1002E0000799069800F008F9D0E700000DFCFFFF21
:1002F00010B5002904DB0C460121C9074042A14189
:10030000002B04DB1C460123DB075242A341101AD9
:100310008B4101D3012010BD002010BD10B500227B
:100320009623114600F0A2F810BDC20F4100400212
:100330000123400ADB05D207090EC0187F2901DA24
:1003400000207047962903DC9623591AC84001E023
:1003500096398840002AF4D04042704770B5CD0FDE
:100360004A0009030123090B1B0519430B4BED0739
:100370000024520D9A4201DA002070BD074B34333D
:100380009A4203DC9A1AFFF7D1FE02E004495118A1
:1003900088402C43F1D0404270BD0000FF030000B4
:1003A000CDFBFFFFC20FD207400040080BD0C10DAC
:1003B0000723DB01C91840020905400A1143C2089E
:1003C00040071143704700200146704770B504464E
:1003D000002903D000202022012310E0002801D0B2
:1003E0000020C043C046C0460DE02546D5408D42A2
:1003F00005D30D469540641B1D4695404019154692
:10040000521E002DF1DC214670BD000070B50025A4
:1004100004462E46002911D0002C01DA0125444261
:10042000002901DA012649422046FFF7CFFFB542F5
:1004300000D04042002D00D0494270BD002C02DAAD
:100440000121C90702E0002C00DD03490846C0462F
:10045000C046214670BD0000FFFFFF7F002904DA7F
:10046000401C490001D140084000704770B400248E
:10047000050C05D11024000402D1002921D011243B
:10048000050E01D100020834050F01D10001241D21
:10049000850F01D18000A41C002801DB4000641CF2
:1004A000002908D020252E1B0D46F540A14000D084
:1004B00001212943084301061B1B000ADB1D02D54D
:1004C000002070BC7047DB05181880180029F8DA86
:1004D000401C4900F5D170BC40084000704710B581
:1004E000002B08DA0024401C614192185B411A433A
:1004F00001D14008400010BDF0B51FB482B00546E0
:100500000C0003D0084605F06DFD02E005F06AFD21
:100510002030024600902146284600F051F8049B06
:10052000059A04460F4618431143084314D0184651
:1005300010431BD0009840210A1A18460599FFF76E
:10054000F5FD05460E46009A0599049800F038F826
:10055000084305D0012004E02046394607B0F0BD2D
:100560000020C11705430E432C43374300990E98D2
:100570006305401A7905E40A00220C43FD0A0A309B
:1005800002D500200146E9E70105101969410C9CDC
:100590000D9D00196941FFF7A2FFDFE7064C012519
:1005A000064E05E0E36807CC2B430C3C984710341B
:1005B000B442F7D3FFF788FD507000087070000850
:1005C00010B5202A04DB0146203A9140002010BDDE
:1005D000914020239C1A0346E3401943904010BDEC
:1005E00070B58C180578401C6B075B0F01D1037840
:1005F000401C2A1106D10278401C03E006780E70D8
:10060000401C491C5B1EF9D12B0705D40023521E48
:100610000DD40B70491CFAE70378401CCB1A921CCE
:1006200003E01D780D70491C5B1C521EF9D5A142D8
:10063000D8D3002070BD000080B5A34800F0A5FD10
:1006400080BDC04670B50446006881680025490732
:100650001DD58168490706D58168890703D481685B
:1006600010220A43826001F05DFA06462068806825
:1006700040070CD501F056FA801B0328F6D3606CB6
:10068000102101436164A06C01252843A064284621
:1006900070BD80B50146806A426C50231A4204D076
:1006A000C06B426B0846904780BD01214A02436CF3
:1006B000134343640268D3681B059B0F02D000F00C
:1006C00061FD80BD036A002BF9D113681B07F6D5C5
:1006D00093685B070CD451680C2399435160FF2148
:1006E0000231426C8A43511C416400F04BFD80BDD5
:1006F000426C202313434364826C0A43826400F0FB
:1007000041FD80BD80B5806A416C40220A4342644D
:10071000816C04220A43826400F036FD80BD80B5FE
:10072000806A00F030FD80BD70B5044600688268C4
:1007300003210A400025012A23D10268D20702D1F1
:10074000C26812041DD5826805231340012B1AD1FB
:100750008268022313438360016001F0E3F90646D7
:1007600020688068C0070CD001F0DCF9801B0328EA
:10077000F6D3606C102101436164A06C012528430D
:10078000A064284670BD606C102101436164A06CB8
:1007900001252843A064284670BD0000F0B581B053
:1007A0000446002700970068816803220A40012A56
:1007B00005D10168C9070FD1C168090432D4816825
:1007C0001B4A11420AD0606C102101436164A06C85
:1007D00001252843A06428E03D4626E081680125E4
:1007E00029438160134800681349FFF7EFFD00902B
:1007F0000098002802D00098401EF8E701F092F916
:10080000064620680068C0070ED101F08BF9801BF6
:100810000328F6D3606C102101436164A06C284367
:10082000A06402E03D4600E03D46284601B0F0BD30
:10083000170000809401002040420F00F0B581B005
:100840002148224D0222294600F002FE7D20C400EC
:1008500001271F4E00213046224600F0EFFF7F1E89
:10086000F8D0194800F03CFE2888FFF757FD1949D9
:10087000FFF798FC184908606888FFF74FFD174993
:10088000FFF790FC164D2860FFF78CFD154A164BBC
:10089000FFF72EFD0246401E82410920C0060421BA
:1008A00001F037F92868FFF77DFD00220F4BFFF7B5
:1008B000B7FCFFF753FD012105F01AFA204601F0BD
:1008C0004DF801B0F0BDC046340D0020F802002004
:1008D000B80D002066666E3BB811002066661E3BB0
:1008E000BC110020333333333333154000005940FB
:1008F00080B5212807D020280BD107480722FFF711
:1009000026FC002080BD044B072208461946FFF74D
:100910001EFC002080BDC046000000200020704763
:10092000B0B5DC4C0549002520462A4603F0E1FC21
:100930000349204603F0D5FC2846B0BDB609002087
:1009400076090020F0B589B00146D24C20460891C6
:1009500003F0C7FC204603F0A5FCCF4E3069C00B66
:10096000012421468143CD4A11703069800B214614
:10097000814351703069400B214681439170306949
:10098000000B21468143D1703069C00A2146814362
:1009900011713069800A2146814351710020C04D98
:1009A00004E04F212954401C062806D0115C01297F
:1009B000F7D00029F7D14621F4E7E703089800783B
:1009C00045383428079400D9E6E040007844808810
:1009D000400087443400E100E100E100E100E10073
:1009E000E100E100E100E100E100E1004B00620014
:1009F000E1007900E100E1009000E100A700E100E2
:100A0000E100E100E100E100E100E100E100E100DE
:100A1000E100E1003400E100E100E100E100E1007B
:100A2000E100E100E100E100E100E1004B006200D3
:100A3000E1007900E100E1009000E100A700A87862
:100A4000462872D1974D00242C7397489749984AAD
:100A50002A606960A8602846FFF79DFB81B228469E
:100A60008F4D00F089FA0798410390E028784628D6
:100A70005BD18C4D00242C738B488C498C4A2A60A6
:100A80006960A8602846FFF786FB81B22846844D3E
:100A900000F072FA304639467AE0E878462844D1C8
:100AA000804D00242C7380488049814A2A60696007
:100AB000A8602846FFF76FFB81B22846784D00F00A
:100AC0005BFA0798010362E0287946282DD1754D1D
:100AD00000242C7374487549754A2A606960A860BF
:100AE0002846FFF758FB81B22846F84D00F044FA3B
:100AF0000798C1024BE06878462816D1F44D0024CF
:100B00002C73F448F449F54A2A606960A8602846C5
:100B1000FFF741FB81B22846EC4D00F02DFA079813
:100B2000810334E0687946281ED04F2809D1E84C6B
:100B30000A20A081EA48EB49EB4A22606160A0608C
:100B400009E0EA48E24C21460CC80CC12CC82CC173
:100B5000DE4D008808802046FFF71DFB81B220464D
:100B600000F00AFA079C17E0D94D00242C73D948ED
:100B7000D949DA4A2A606960A8602846FFF70BFB6A
:100B800081B22846D14D00F0F7F90798810230462E
:100B90002246079C00F0BDFF0898007801464339C3
:100BA0003729069700D96BE1D14E890001A252582E
:100BB00039469746B50C0008810E0008810E0008E2
:100BC000810E0008810E0008810E0008810E0008C9
:100BD000810E0008810E0008810E0008810E0008B9
:100BE000810E0008810E0008810E0008810E0008A9
:100BF000810E0008810E0008810E0008810E000899
:100C0000810E0008810E0008BB0C0008810E000850
:100C1000BF0C0008810E0008810E0008810E00083C
:100C2000810E0008810E0008810E0008810E000868
:100C3000810E0008B50C0008810E0008810E000826
:100C4000810E0008810E0008810E0008810E000848
:100C5000810E0008810E0008810E0008810E000838
:100C6000810E0008810E0008810E0008810E000828
:100C7000810E0008810E0008810E0008810E000818
:100C8000810E0008810E0008BB0C0008810E0008D0
:100C9000BF0C0008700A002000040048FC0200207D
:100CA000020300200C0A002065640D0A6976617455
:100CB0002341637461038FA601E0A103904E0122DA
:100CC000804F384600F025FF0B21304600F054F9E4
:100CD000089E3078202108910843612833D1287874
:100CE0004F2804D000223846069900F012FF687899
:100CF0004F2804D0A1030022384600F00AFFA8784C
:100D00004F2804D061030022384600F002FFE87843
:100D10004F2804D021030022384600F0FAFE28793B
:100D20004F2804D0E1020022384600F0F2FE687934
:100D30004F2804D0A1020022384600F0EAFE7AA033
:100D40000D2100F019F93078089C2043732809D14F
:100D500079A00E2100F010F93F20810201223846CF
:100D600000F0D7FE307820436D2808D1764C20461D
:100D7000FFF711FA81B22046089C00F0FDF83078A8
:100D800020436B2834D17148056871492846FFF724
:100D900009FAFFF7CAFA64242146FFF737FB0691E8
:100DA0002846FFF7C2FA05906A4807683846FFF7F9
:100DB000BCFA05463846434F6549FFF7F3F9FFF79C
:100DC000B4FA2146FFF722FB0B46059800900698DF
:100DD00001903F4C60A120462A463C4D05F0EEF8BC
:100DE0002046FFF7D8F981B22046089C00F0C4F8ED
:100DF00030782043702840D13869C00B079A1146DB
:100E00008143314B19703869800B11468143597009
:100E10003869400B1146814399703869000B1146BF
:100E20008143D9703869C00A114681431971386904
:100E3000800A82435A71002004E04F212954401C4B
:100E4000062806D0195C0129F7D00029F7D14621E0
:100E5000F4E76B782A78A878E9782C796D7900AE78
:100E600033C61B4C4349204605F0A8F82046FFF73F
:100E700092F981B2204600F07FF8002009B0F0BD61
:100E800042388101C0B280084018C1B20D290D4F0F
:100E9000089E00D91DE720468840FF210231084204
:100EA00009D11949084209D11849084200D110E76F
:100EB0002103144E03E7E10218A600E7A10214A6DD
:100EC000FDE6C04600040048FC02002002030020AA
:100ED0000C0A002065640D0A69766174234163740D
:100EE000204F6E0D6561647923416C723870000883
:100EF00013700008505733203A204F46460D0A0021
:100F00001F7000082B700008080800002020000057
:100F1000505736203A204F46460D0A00505735208C
:100F20003A204F46460D0A00505720414C4C203A7B
:100F3000204F4E0D0A000000505720414C4C203AE3
:100F4000204F46460D0A00002E000020BC11002054
:100F50000000C842B81100202376696E2C25642E4B
:100F600025640D0A237663616D2C25642E25640D9E
:100F70000A0D0A00C06F000810B50A460146572046
:100F8000C000084B185885239B00C058002801D08A
:100F9000012010BD034C204603F0ABF9204603F0BE
:100FA00026FA10BD700A002080B5024800F0C8FB88
:100FB00080BDC046B80D002010B504460548206429
:100FC0002068054940181421FFF700FA800060648A
:100FD00010BDC04600000240F8FFFDBF70B5046CB4
:100FE000456C0126AE406660046863604068102866
:100FF000134600D00B46A360102800D01146E160D4
:1010000070BD000010B502F0B5FA002813D002F050
:1010100027FA0948007800280DD00920C0060124CD
:10102000210200F071FD012802D10448047010BDB6
:1010300002480221017010BD7509002074090020CA
:1010400070470000B0B5094908688A6810180BD0CD
:101050004C68074DA91C082202F0E2F9123504225F
:101060002046294602F0DCF9B0BDC046ACF7FF1FB0
:10107000D0020020F0B583B0044600270297006C30
:10108000012802D1022003B0F0BD012020642668AF
:10109000B268520715D40197A0C901221046A84092
:1010A000314B08399F4213D1B16A8143B16228465E
:1010B00010380228019F384607D8112D19D02F4823
:1010C00018E0616C20220A436264276403B0F0BD1B
:1010D000B36A0343B362A06B431E072B32D2284688
:1010E00010380228019F3846EFD8112D0BD010067A
:1010F0000AE02148102D00D121481C490A6802400D
:101100000A603846E1E79005102D00D1D005174957
:101110000B6803430B60102D3846D6D11448006885
:101120001449FFF753F90A2141430291029800281C
:101130003846CAD00298401E029002980028F9D181
:101140003846C2E713079842C9D0736907200340A5
:1011500089689942C3D073698343736101407069A0
:1011600008437061BBE7C04601100000082701403A
:101170009401002040420F00FFFFBFFFFFFFFFFE72
:10118000FFFF7FFF70477047704710B50446006847
:101190000168490702D54168490705D40168090774
:1011A00030D5416809072DD5616CC90604D40121E9
:1011B0004902626C0A436264C1680905890F1BD148
:1011C000216A002918D10168090715D581684907E6
:1011D0000AD441680C2291434160FF200230616CC7
:1011E0008143481C606407E0606C20210143616416
:1011F000A06C01210143A1642046FFF7C3FF2068D2
:101200000C2101602068016809060DD540680006C0
:101210000AD501200004616C01436164204600F09E
:10122000C3F820688021016020680168C90614D5D0
:101230004168C90611D5616B012902D0C168C9078F
:1012400008D0A16C02220A43A2641021016020464A
:10125000FFF79AFF20681021016010BDF0B581B042
:10126000002861D0044605464435406C002805D16D
:1012700000202064A064204600F098F82868C0068A
:101280004BD420688168490747D4812149002A68E6
:101290008A43911C2960826803210A40012A05D1F2
:1012A0000268D2070ED1C26812040BD4C268182398
:1012B0009A43A3681343C360890702698A4361683C
:1012C00011430161C168364A0A40C260616B491E20
:1012D0004A1E91410903A2699203E369DB031343A8
:1012E000226A56031E43E368276933430B43B91E42
:1012F0004E424E41B6001E43216B49003143636AA2
:10130000012B17D1002A12D0626C2023134363648F
:10131000A26C01231343A3640CE02868102101434D
:101320000120296001B0F0BD012001B0F0BD012213
:1013300012041143A26AFF23C2339A4202D00A4325
:10134000E16A1143C2680A43C260A26B531E072BB5
:1013500020D243690726B3434361324043691343B4
:101360004361C0680F4A02408A4207D10020A0644E
:10137000626C0121114302229143D2E7606C10217B
:101380000143022081436164A16C01200143483480
:101390002546C6E701231B079A42DAD0E1E7C0469B
:1013A0001902FEFFE7FF3F8370470000F0B587B0EA
:1013B0000446002606960596049603960296006853
:1013C0002049884201D007B0F0BD01277802BB490F
:1013D0004A6802434A604A680240019201987804D0
:1013E0000A6802430A6009680140019104960320DB
:1013F0000390029001980920C00602A900F0C0FAEB
:10140000114D2020B9023A028023104F2F606E60E8
:10141000AE60EB602A616961A861EE61284600F068
:10142000DFF9002801D0FFF70BFEAC62E5630C2466
:10143000002120460A4600F089FD204600F082FD8A
:1014400007B0F0BD00240140B80D002008000240A4
:10145000F0B581B00446006880680226400733D4A6
:10146000206C012830D015460F4601262664E0691D
:10147000012804D02046FFF791F9002824D1606CA0
:101480001349014001221002081860640026A66476
:1014900021681C2008604868102303434B602664C1
:1014A000E06B0E4BC3620C4B03630A4B4363CB6888
:1014B0001343CB6040313A462B4600F01FFA2068B8
:1014C000816804220A438260304601B0F0BDC04604
:1014D000FEF0FFFF050700081F070008930600083D
:1014E00070B50446006C012801D1022070BD0125B1
:1014F00025642046FFF7A6F8002827D12068C16898
:1015000001229143C160E06B416A0026022908D1A3
:1015100000F0D8F8002804D0616C40220A436264CD
:101520000646206841681022914341602046FFF73B
:10153000FBF80546002E00D03546002D06D1FF20D1
:101540000230616C8143481C6064002500202064E7
:10155000284670BD70B5002818D00446006B0028DE
:1015600002D1204600F078F82068016802229143F9
:10157000016000F0D7FA054620684168890707D561
:1015800000F0D0FA401B0B28F6D311E0012070BD0B
:10159000016801263143016000F0C4FA0546206865
:1015A0004168C9070CD100F0BDFA401B0B28F6D3E7
:1015B00001204104626B0A4362630526266370BD05
:1015C000A169491E4A424A41D101026880239A43D7
:1015D00051180160E169491E4A424A41910102687D
:1015E00040239A4351180160216A491E4A424A41E8
:1015F0005101026820239A4351180160616A491E13
:101600004A1E91410901026810239A435118016052
:10161000A16A491E4A424A41D100026808239A43FE
:1016200051180160E16A491E4A424A41910002682C
:1016300004239A4351180160A168E2680A432169B2
:10164000114362690A436168491E1143C161002068
:101650006063266370BD000010B586B0002105915F
:1016600004910391029101910068134A904201D0C4
:1016700006B010BD01204206104B9C6814439C60CC
:101680009C6814400094009A80041A6802431A600F
:101690001A680240009204200590039102200290F3
:1016A00003200490000201900098054801A900F071
:1016B00067F906B010BDC046006400401410024037
:1016C0000004004810B5416A022910D101680A6877
:1016D0000E239A430A600A6801239A430A60016C48
:1016E000426C1C4694404C604362002102E004219D
:1016F000C163012100220262084610BD10B5416A93
:10170000022916D101680A680E239A430A600A6802
:1017100001239A430A60016C426C1C4694404C6061
:10172000002404624362816B002900D08847204670
:1017300010BD0421C1630124204610BD406A7047DA
:10174000F0B581B0016C436C00910C6802681568BB
:101750006E0712D504210F469F403E4626400CD00E
:1017600013689B0602D413688B43136000994F6083
:10177000016B002918D101B0F0BDA90717D50226C9
:101780009E403146214012D01168890605D4116867
:101790000A239943116001214162002101620099ED
:1017A0004E60C16A0029E6D0884701B0F0BD290724
:1017B000E1D5082199402140DDD011680E24A143D4
:1017C000116001210A469A40009B5A60C1630022C1
:1017D00002624162416B0029CDD0884701B0F0BD63
:1017E000F0B583B0002823D0044602206062E2CC2A
:1017F000236860680090A0680190E0680290086823
:101800000D4A02402A4332433A431A4300980243A6
:1018100001980243029802430A60103C2046FFF7F9
:10182000CBFB0020E06320620121616203B0F0BDC8
:10183000012003B0F0BDC0460FC0FFFFF0B581B07E
:101840000446406A022809D12068006880060CD44A
:1018500016460D4600290DD004270CE0002020621A
:101860000420E063012001B0F0BD01200102E1632A
:1018700001B0F0BD0227606C874000F053F90346C9
:10188000216C0868384206D0606C002D12D004220A
:1018900082404A6013E0626C0868D040000712D5AD
:1018A0000120034693404B60E063002121626062A7
:1018B00001B0F0BD022282404A6001206062002037
:1018C000206201B0F0BD0093701C07D0002E0FD035
:1018D00000F028F9009BC01AB04209D8216C0868B2
:1018E0003842D1D1626C0868D0400007ECD5D7E708
:1018F0002020E063002020620120D8E7F0B581B00D
:101900000546006A0224012825D001262E62686A55
:10191000012812D1022068620024EC63286807685D
:10192000B74307602846FFF759FB286801682A6B10
:10193000002A05D00E22114308E0002028620AE0A8
:101940000A22114301600168042291430160286862
:10195000016831430160204601B0F0BDB0B50446D6
:1019600000F0E0F80546601C02D004480068041945
:1019700000F0D8F8401BA042FAD3B0BDEC02002022
:10198000F0B58AB006900B68002B00D1AEE0584845
:10199000069A824201D0052000E002200090012436
:1019A00000252F46039405910CE03843514A079FC8
:1019B000D0600B681846E040AD1C3F1D641C002839
:1019C00000D193E0601E039A089082401340F0D04B
:1019D000079702934E68122E16D80120B04047494F
:1019E000084211D00320A84006998B6883430598CC
:1019F000C068A84018438860F006C00F089B984054
:101A00004B68934303434B6003210491A940069F15
:101A1000FB688B43059A9068A8401843F860102033
:101A20000643C943122E10D11C200191079908408A
:101A30000F2383400899CE08B600BE19316A994336
:101A4000136983400B430199336238680840516839
:101A50000B46049E3340AB4003433B60C800114635
:101A6000079FA6D52449086801221043086008682A
:101A700001921040099030460C263E400F21B140A3
:101A8000089B834309981E4A98588843991809234C
:101A9000DB06069A9A4205D01A4B9A42009F02D161
:101AA000019F00E00027B74007430F60114A10680C
:101AB00005994E68F30302D5029F384301E0029F67
:101AC000B84310605068B30301D5384300E0B84311
:101AD00050609068F30201D5384300E0B84390604D
:101AE000D068B20200D560E7B8435FE70AB0F0BD46
:101AF00000080048000401401810024006000600DB
:101B0000080001400004004800690840411E884167
:101B10007047002A02D01822815070472822815035
:101B200070470000DF4800687047C046B0B5436C9E
:101B30000222202B17D1036C012B14D024224264E3
:101B4000026813680124A3431360230315689D43AF
:101B5000156013680B431360116821431160002264
:101B60000264202141641046B0BDB0B5436C02222E
:101B7000202B17D1036C012B14D02422426402685D
:101B800013680124A34313600F231B0215689D43B0
:101B90000902294311601168214311600022026487
:101BA000202141641046B0BD70477047F0B581B048
:101BB00001688C690A68802313400122E50506D577
:101BC000002B04D01502C66C1643C664CD616505B2
:101BD00007D5002B05D09502C66C08273743C7648C
:101BE000CD61A40507D5002B05D05202C36C022499
:101BF0001C43C464CA61C16C0B22114201D001F0C4
:101C000011F901B0F0BD80B502689169436B1268AB
:101C1000002B00D0984780BD7047000070B50028A9
:101C20001ED00446406C002804D1002020642046C9
:101C300000F0F2F8242060642068026801218A43E1
:101C400002600F2212066368934303618368174A98
:101C500013408360E368012B04D02125AD0202E02C
:101C6000012070BDCD03A6682E438660022B01D1F2
:101C7000CB02436043680E4D1D434560C36813406B
:101C8000C360226963691343A26912021A43C260E6
:101C9000E269236A1343036002680A43026000207A
:101CA000E064202161642063A06470BDFF7FFFFFBA
:101CB0000080000270470000F0B589B00546406C16
:101CC0000224202838D10E9F002F32D016460F9ABA
:101CD000002A2ED0286C01282ED008920593079157
:101CE00001242C64FFF71EFF04900090E1031923E8
:101CF0002846224601F00EFB00281DD11099212014
:101D000068644020A8640020E8646F6206906863FD
:101D10000898688508910091049F019728460799C3
:101D20003246059B01F014FA002808D00698286472
:101D300002E001246002E864204609B0F0BD0124FD
:101D400026066306688D000A059603930AD0FF22D3
:101D50002A850020009028460799334601F0B2FA00
:101D6000069E08E0688D2885069E0096C2B2284629
:101D7000079901F0A7FA089B0DE0688D2885009669
:101D8000C2B228460799039B01F09CFA069E089B65
:101D9000688D00282BD0284619463A4601F012FBE0
:101DA0000028C9D12868696A0A788262688D401E55
:101DB0006885481C6862288D411E2985688D090444
:101DC000089BE5D10028E3D0009780210026284613
:101DD000324601F09FFA0028AED1688D000ACCD0BF
:101DE000FF222A85009628460799059BCCE72846BE
:101DF00019463A4601F0C1FA00289DD128682021F1
:101E0000C1614268034B1340436069642E64AE6451
:101E1000344691E700E800FEB0B586B00021059198
:101E2000049103910291019100681649884201D002
:101E300006B0B0BD0125A805134C216801432160FF
:101E4000216801400091059503200490039512211B
:101E50000291019000980D4801A9FFF791FD6805D6
:101E6000A1680143A160A168014000910098172476
:101E7000002120460A4600F069F8204600F062F88A
:101E800006B0B0BD005400401410024000140048D9
:101E9000704770471B48006802490A6810180860BC
:101EA0007047C046B411002010B5064801681022E2
:101EB0000A4302600024204600F006F800F028F8EB
:101EC000204610BD00200240B0B504467D20C00071
:101ED0000C490968FEF77AFA01460B480068FEF7DC
:101EE00075FA00F00DFD0125032C09D8002807D153
:101EF0000025E84321462A4600F028F803480460FC
:101F00002846B0BDEC02002094010020F002002021
:101F100082B0094801680122114301600168114043
:101F200001910199110742680A43426040680840E4
:101F30000090009802B070471810024080B503F07E
:101F4000C7FD80BD80B503F0D7FD80BD80B503F02F
:101F5000E9FD80BDF0B502685423D15A0124214324
:101F6000D152B9218D0000214151D65A0227374361
:101F7000D752401984600846F0BD7047B0B5282498
:101F80000D060DD5072529404C4300192830002A9D
:101F90000DD0038101210173190C41810020B0BDD6
:101FA0004C4300192D21C9004018002AF1D1C380EB
:101FB000002101730020B0BD80B5BD22920083587E
:101FC00028224A438018C26B184602F038FC80BDB4
:101FD00080B5BD229200835828224A4380185F2290
:101FE00092008258184602F092FC80BD70B5012420
:101FF000002809D00546AB2086000320A851286898
:1020000003F047FD002801D0204670BDAE192846D8
:1020100000F0BEFB00243460204670BD10B5552191
:10202000C9004258012A01D1022010BD44180121E3
:102030002160006803F026F90020206010BD10B573
:1020400007220A4009060AD4282151434118FF23D8
:102050006A330024CC542D23DB00C91806E0282164
:102060005143411829230124CC5428310A705522A8
:10207000D2008358012B01D1022010BD8418012207
:102080002260006803F08EF80020206010BDB0B51B
:102090000F220A4043689A4201D90120B0BD0722AD
:1020A0000A4009060AD4282151434118FF236A3304
:1020B0000024CC542D23DB00C91806E0282151430D
:1020C000411829230124CC54283100248C700A7033
:1020D0005522D2008358012B01D10220B0BD8518B2
:1020E00001222A60006803F0EBF82C602046B0BDA6
:1020F000F0B581B000685023C65A0B78DC00550457
:10210000C24D2A4F10D4BE1936183419A4882C4059
:102110008D692E1B00D200268E61A54214D952066D
:102120001BD5002C22D13EE0F6193618345B2C402A
:102130008D692E1B00D200268E61A5421CD9520645
:1021400023D4002C2AD12EE09D00465B184F374047
:10215000184E7E4046535206E3D49A00835AAC4D43
:102160001D40154BEB188352002C1CD04A8949693D
:10217000234603F070FC16E09D00465B0C4F374091
:102180000C4E7E4046535206DBD59A00835AA04D32
:102190001D40094BEB188352002C04D00A89496971
:1021A000234603F058FC204601B0F0BD02040000B5
:1021B0000F3F000080A00000C0800000F0B587B095
:1021C00016460C46069000685021435A0122D1035E
:1021D0000591019295022178CF0002465032039278
:1021E00072068A4A029704952DD4EB181B18DB1946
:1021F000DB881340A269D71A00D20027A7619A4250
:10220000834D4DD97204069F05D48900425A2A4055
:10221000804E164346522421615C012900D0E8E03B
:102220006169C9186161E269D218E2612669226AAE
:10223000B24255D226462436002A7AD00023337083
:102240002362164678E0EB181B18DB195B881340F5
:10225000A269D71A00D20027A7619A426C4D2FD9E4
:102260007204069F05D58900425A2A40694E1643DA
:1022700046522421615C012900D0BAE06169C91885
:1022800000916161E169C918E1612269266A96429B
:1022900029D22246243200211170002E25D126E0B9
:1022A000069F3846FFF788FE700400D5A1E0386825
:1022B00021788900425A2A40564B1343435298E0F2
:1022C000069F3846FFF778FE700400D491E0386826
:1022D00021788900425A2A404E4B1343435288E0EA
:1022E000921B226228E0B11A1646216233466178B9
:1022F000012914D00029049D62D10221029A0A43C7
:1023000041198E1803990A88002B38D03E2B4DD8DE
:10231000019D1D40590849198902915350E002213D
:10232000029A0A43049941188918039A12888B5219
:1023300046E0002232701E466278012A15D0002A3B
:1023400053D10622029B1343049A8218D318039A8E
:1023500012880492002E02931BD03E2E37D8019B88
:1023600033407708FF18BF023BE00622029B13436D
:10237000049A8218D218039B1B88D65235E0915BD1
:10238000254F0F409753915B059F3943069F91530B
:1023900016E0049AD25A03921F4F039A1740049AE8
:1023A000D752D75A059B1F43029B1CE0D9065D09F3
:1023B000002900D16D1EA902059F39439153069F44
:1023C00022899BB2009903F06FFB114D11E0F706D3
:1023D00003977709039A002A00D17F1EBF02059B4D
:1023E0001F43029B049AD752069F6289B3B203F03F
:1023F0005BFB386821788900425A30351540059AD0
:10240000B0326A40425207B0F0BDC046FF03000040
:102410000F0F000080C00000FF83000007220A4069
:10242000282151434018612189004058704770B5F8
:1024300007240C4009060AD4282161434118FF25CE
:102440006A3500264E552D25ED00491906E0282154
:1024500061434118292501264E5528310A61CB7068
:102460000C704A78002A00D0CC81022B01D10022C6
:102470000A715522D2008358012B01D1022070BD70
:10248000841801222260006802F07CFD0020206098
:1024900070BDB0B507240C402821614341182D259B
:1024A000ED004C55491900240D4614351CC54C70DF
:1024B000006802F05BFF2046B0BD10B507220A405D
:1024C00043689A4201D9012010BD0B060AD4282383
:1024D0004B43C118FF236A330024CC542D23DB0067
:1024E000C91806E028215143411829230124CC545E
:1024F00028310A7001228A705523DB00C458012C50
:1025000001D1022010BDC4182260006802F010FF43
:102510000020206010BDF0B581B007240C402825B4
:102520002946614341184C2601278F554C558B6431
:10253000283100240D4614351CC54F70006802F088
:1025400015FF204601B0F0BD70B50446006803F0E9
:102550007FFA000402D5204601F04AFB206803F010
:1025600077FA40050CD520684421425A4C4B134061
:102570004352204600F03EF90021204600F065F964
:10258000B925206803F064FA400405D52068442189
:10259000425A444B13404352AD00206803F058FAAE
:1025A000800405D520684421425A3F4B13404352D2
:1025B0006519206803F04CFAC0041AD52068402140
:1025C000425A04239A434252425A08239A4342529F
:1025D0002868012804D1002129602046FFF7CDFC9E
:1025E000204600F019F920684421425A2F4B13402D
:1025F0004352206803F02CFA000512D520684021D0
:10260000425A082313434352024640329388284ECD
:102610001E409680425A042313434352204600F042
:102620005DF9206803F014FA00061FD520684421E4
:10263000425A80239A4342522968002903D02046F7
:1026400000F04CF912E04030018804220A43028075
:10265000018808220A43028001212960808A8008BB
:102660003C2202406A602046FFF787FC206803F0A6
:10267000EFF9800508D520684421425A0D4B1340DC
:102680004352204600F0DAF8206803F0E1F9C00573
:1026900005D520684421425A074B1340435270BD70
:1026A000FFFB0000FFBF0000FFDF0000FFEF0000A6
:1026B000FFF70000FFFD0000FFFE0000F0B589B04D
:1026C000002861D004465520C000251868680028FD
:1026D00004D100202860204600F06AF80320089505
:1026E0006860206802F0E2FD6168002914D061682A
:1026F00000200346024628256B43E3185A55283329
:10270000D5B2DD8101255D70186158619861D8707E
:10271000521CD3B29942EED82046243007900029AB
:1027200012D000200346024628255D4363192D255B
:10273000ED005A555B19186158619861D87058704E
:10274000521CD3B29942EFD8A0680590E068069079
:1027500027461037E0CFE269236A2068009501968A
:10276000029703920493059A069B02F095FD0025BB
:1027700007980570012008994860E069012804D194
:102780002046FFF7E7FB00E00125284609B0F0BD31
:1027900080B500681549884200D080BD0120C00581
:1027A00013490A6882430A601F20FFF7C7FB80BDF8
:1027B00010B582B000680D49884201D002B010BD4A
:1027C0000120C0050A490A6802430A6009680140FD
:1027D000019101981F24002120460A46FFF7B6FB0D
:1027E0002046FFF7AFFB02B010BDC046005C0040C2
:1027F0001C100240B0B504468068022801D0FEF7E4
:102800001FFCBD2085006059012102F07EF960594E
:1028100002F039F9B0BD000010B504468069002807
:1028200006D03648016806229143016001F094FB0E
:10283000BD208000205802F050F910BD80B5BD21A8
:102840008900405802F053F980BD10B55522D200DE
:102850008358012B01D1022010BD84180246243276
:10286000117001222260006803F00AF90020206044
:1028700010BD80B5BD2189004258AD2189004118A5
:10288000104602F04FF980BDB0B504465520C00097
:102890002158012901D10220B0BD2518012028604E
:1028A000206803F0C3F8206802F0E4FC00202860F0
:1028B000B0BDB0B504465520C0002158012901D152
:1028C0000220B0BD251801202860206802F0EEFC2F
:1028D000206802F0D7FC00202860B0BD10B5044687
:1028E000BD208000205802F06AF9A069002804D0B9
:1028F0000248016806220A43026010BD10ED00E0A4
:1029000080B501F011FB80BD70477047B0B5C26B58
:10291000012A01D10220B0BD022202640122C26359
:1029200003685C687025AC430D6825439C685D6056
:102930009507AB4205D0DA4DAB4202D0394DAB42E0
:1029400004D18025AC434968214399600021C163CB
:1029500002640846B0BDC04610B500281BD004462E
:10296000006C002804D10020E063204600F016F837
:10297000022020642068211D01F032FB01206066E6
:102980006064A064E06420656065A065E065206621
:102990002064002010BD012010BD000010B582B0E1
:1029A0000068BF49884201D002B010BD0120C002BA
:1029B00009490A6802430A600968014001910198C7
:1029C0000D24002120460A46FFF7C0FA2046FFF7F3
:1029D000B9FA02B010BDC04618100240016C0129BE
:1029E00019D1022101640168C86801221043C8603E
:1029F0009007814205D0AA48814202D0094881420D
:102A00000BD18868072303400020062B09D00B68F0
:102A100013430B607047012070470868104308603B
:102A2000002070470004004070B50446C06B0128C8
:102A300001D1022070BD022020640126E6632068D7
:102A40008268294B134083600A683F2A14DD5F2A9D
:102A500019DD602A28D073039A422CD0702A3ED107
:102A60004A688D68CB68294601F00AFB20688168B6
:102A700077220A43826032E01F2A0FDC002A11D03D
:102A8000102A0FD02BE0402A21D0502A27D1CA6823
:102A9000496801F008FB206850211EE0202A01D07F
:102AA000302A1CD1114618E0CA68496801F00CFBB5
:102AB0002068602111E04A688D68CB68294601F0E2
:102AC000DFFAB00321688A6802438A6007E0CA68B7
:102AD000496801F0E8FA2068402101F0DCFA0020A2
:102AE000E063266470BDC0468800FFFF7047B0B544
:102AF00004468020C54320680169890716D5C1684E
:102B0000890713D529467E3101610121E161806980
:102B1000800703D02046FFF7E9FF05E0204600F0DC
:102B20008AF8204600F088F80020E06120680169FA
:102B3000490717D5C168490714D529467C31016179
:102B40000221E16180698005800F03D02046FFF7F4
:102B5000CDFF05E0204600F06EF8204600F06CF84E
:102B60000020E06120680169090716D5C1680907DE
:102B700013D52946783101610421E161C0698007DC
:102B800003D02046FFF7B2FF05E0204600F053F8DF
:102B9000204600F051F80020E06120680169C90674
:102BA00017D5C168C90614D52946703101610821BD
:102BB000E161C0698005800F03D02046FFF796FFD2
:102BC00005E0204600F037F8204600F035F80020F8
:102BD000E06120680169C90708D0C168C90705D04C
:102BE00029467F310161204600F028F820680169FC
:102BF000090606D5C168090603D505612046FFF719
:102C000083FE20680169490608D5C168490605D5D3
:102C1000294640310161204600F04CF820680169E6
:102C2000890607D5C168890604D560350561204647
:102C3000FFF76BFEB0BD704770470000F0B581B084
:102C400000681749884201D001B0F0BD154D2888B1
:102C500001242146814089B213482246FEF759FFDC
:102C60002888401C81B20F2900D90D2028800F4FE1
:102C7000FF21002638463246FEF74BFF28880C49D4
:102C800040180D38017838462246FEF742FF288862
:102C90008440A1B204483246FEF73BFF01B0F0BDCC
:102CA000002C01402C0000200008004800040048CF
:102CB000080300207047FEE780B507480068806978
:102CC0004005400F03D00448FEF770FF80BD024866
:102CD000FEF799FF80BDC046000E002080B5806AD7
:102CE000816B002901D000228A63C16B002901D0C9
:102CF00000228A6300F0FCFA80BD10B5CA0703D138
:102D000000238A0708D411E0426C28231340282BA3
:102D100009D0F2238A0709D5426C28241440282CB4
:102D200008D0F42207E042238A07F5D41A460B04A0
:102D300004D405E044221A430B0401D5B8231A43F6
:102D400010290AD020290CD0402901D140210A4362
:102D5000006801689143016010BD90231A43202947
:102D6000F2D120231A434029F2D1EFE700688169AC
:102D7000890701D5002181628169C90703D1816971
:102D800001220A4382617047F0B581B00446406C6D
:102D900028210140206828291CD181698369826823
:102DA000C668FE251F0CC903CB0FE168022917D1A5
:102DB000D10979404907890F22D02E400120C10353
:102DC00020461D46FFF799FF002020642046294633
:102DD000324611E0002121640821C16101B0F0BD3B
:102DE0000120C10320461E46FFF787FF0020206414
:102DF0002F40204631463A46FEF7D7FE01B0F0BDDF
:102E0000216D491C2165216D0229E7D104490A4041
:102E10000021216521640821C16120461946EBE7A4
:102E2000FF030000B0B50446406C0025A564914A3C
:102E3000E2626585E26C0A43E2642838022806D81B
:102E400003212046FFF759FF2A4D282007E041497A
:102E50002046FFF752FF606C602801D0202060649C
:102E60006563A06B216B00281BD0212901D011299B
:102E700017D121680A68520404D5012292030B6815
:102E800093430B60FEF75AFC01281ED000202064FB
:102E9000A06B19498163FEF731FC00281CD0A06BA0
:102EA00025E0E06B002814D0222901D0122910D18E
:102EB00021680A68120404D50122D2030B689343E7
:102EC0000B60FEF73BFC012807D1204600F010FA0A
:102ED000B0BD204600F00CFAB0BD00202064E06BCD
:102EE00005498163FEF70AFC0028F5D0E06B816B91
:102EF0008847B0BDC1310008DD2C0008B0B50446DC
:102F0000EF48E06200252563202060646563A564C6
:102F1000480712D5606A2168496A0170606A401CDE
:102F20006062208D002808D0618D491E6185401E99
:102F30002085E06C04210143E16406492046FFF747
:102F4000DCFE256420681021C1612046FEF7B2FE38
:102F5000B0BDC04603800000F0B583B00F46044604
:102F600000680268666C2021C161082086434048E1
:102F7000212E0191029202D0222E05D1401C81B255
:102F80002046FFF7BAFE26630125EE03206841685C
:102F90003143416041686D4A0A4042602046FFF774
:102FA000E5FE0299480409D4314212D02068016834
:102FB000B1430160E06B002808D10AE0A803216852
:102FC0000A6882430A60A06B002802D0006840684B
:102FD0006085780710D5606A2168496A0170606A67
:102FE000401C606204208743208D002804D0401ECE
:102FF0002085608D401E6085608D002803D0E06CC8
:1030000004210143E1640026A6646663E06C0028A5
:103010000CD0E16C2046FFF705FF606C282825D115
:1030200020463946FFF76AFF03B0F0BDE06AA44DC1
:10303000A8420BD1606C0199616426642663222842
:1030400011D12046FEF724FF03B0F0BD204600F06A
:1030500013F8E56201986064266426632046FEF753
:1030600029FE03B0F0BD2046FEF713FF03B0F0BD0C
:10307000018000000000FFFFB0B504460068016851
:103080000025A5644A0403D4090405D5134900E0CA
:10309000114902680A400260606C29280CD128207E
:1030A00060642120206301212046FFF726FE25646D
:1030B0002046FEF7EEFEB0BD606C2A280BD128201A
:1030C00060642220206302212046FFF716FE25645B
:1030D0002046FEF7DDFEB0BDFFBFFFFFFF7FFFFF15
:1030E00070B5044600688069C00601D4002070BD38
:1030F0000E4620688169890610D4154603E02068D1
:10310000816989060AD4701CF9D0FEF70BFD2021D5
:10311000002E10D0401BB042F1D90CE01021C1614B
:103120002021C1612046FFF721FE20684168074A3F
:103130000A4042600421E06C0843E064202060649F
:1031400000202064A064012070BDC04600E800FE9D
:10315000F0B583B01D460292044618480090DAB2DA
:1031600001200306204600F0ADF8089E099F204686
:1031700031463A4600F026F9002802D0012003B07B
:10318000F0BD012D0AD020680299090A816220460B
:1031900031463A4600F016F90028EFD1206802992E
:1031A000C9B281620097802100222046334600F098
:1031B000B1F8411E884103B0F0BDC0460020008038
:1031C000F0B581B00446C36A006C012802D1022028
:1031D00001B0F0BD16460D46012727640E40B0062B
:1031E00005D5204629460093FFF7B6FE009BF00662
:1031F00015D4700725D4300745D4B00756D5608D57
:10320000002857D02068616A0A788262481C606290
:10321000208D401E2085608D401E608546E0608DBB
:10322000002825D020681021C161E06C04210143F1
:10323000E1642248034239D1E16C2046FFF7F2FDF8
:1032400034E0608D00280CD0606A2168496A017002
:10325000606A401C6062208D401E2085608D401E8B
:103260006085608D16498B4220D000281BD01DE060
:10327000606C79068B420AD1282808D1204629465D
:10328000FFF73CFE12E02046FFF77EFD0EE0606C8B
:1032900021681022CA610A498B4207D0292805D12A
:1032A0002046FFF763FD2046FFF7E6FE002020647E
:1032B00001B0F0BD01480342F8D1F4E7FFFFFFFE83
:1032C0000000FFFF70B5049C650D00684668AE43C2
:1032D000054D3540054E0E401E4311043143214338
:1032E0002943416070BDC046009C00FCFF03000004
:1032F00080B5416C602907D120214164002101641F
:103300000163FEF751FC80BD002101640163FEF7FB
:1033100083FC80BDF0B583B00F4604460068806929
:103320000840401A414241410020914223D11D46AC
:10333000164601900898029007E02068806938409E
:10334000C01B41424141B14214D1681CF5D0FEF787
:10335000E9FB002D03D00299401AA842EDD9E06C98
:1033600020210843E064616400202064A0640120FF
:1033700003B0F0BD019803B0F0BDF0B581B01646C2
:103380000F46044620688069800617D420463946D7
:103390003246FFF7A5FE0125002810D1FEF7C2FB3B
:1033A000002F02D0801BB842ECD9E06C20210843EA
:1033B000E064616400202064A06400E000252846E9
:1033C00001B0F0BDF0B581B0044600688069002707
:1033D000800722D415460E46009703E020688069D6
:1033E000800719D4204631462A46FFF779FE012787
:1033F000002812D1701CF1D0FEF794FB002E02D0F1
:10340000401BB042EAD9E06C20210843E0646164CB
:1034100000202064A06400E0009F384601B0F0BDA9
:1034200010B504E037330B70521E891C0001002ACE
:1034300007D000234B70440F030F052CF2D230331A
:10344000F1E710BD81B005490A6802430A600968C6
:1034500001400091009801B07047C046141002402E
:1034600001200002464908607047C0460E490A68BC
:1034700082430A607047C0460F490A6882430A6067
:103480007047C04610490A6882430A607047C046C8
:1034900011490A6882430A607047C04602490A68B7
:1034A00002430A607047C0460404014002490A68AA
:1034B00002430A607047C0460C04014002490A6892
:1034C00002430A607047C0460004014002490A688E
:1034D00002430A607047C04608040140B0B5044684
:1034E0000068616800290ED0002814D0217A0229D2
:1034F00014D0012915D000291AD1FFF7B7FF206891
:10350000FFF7DCFF12E0FFF7BDFF2068FFF7AEFF1B
:1035100000252846B0BD00252846B0BDFFF7CEFFE8
:1035200001E0FFF7AFFF2068FFF7B8FF002500E0DC
:103530000125607A03280ED878440079400087443A
:1035400001020D11E5E72068FFF796FF2068FFF7FD
:10355000BDFF2846B0BD01252846B0BD2068FFF755
:1035600097FF02E02068FFF7B1FF2068FFF79EFF9A
:103570002846B0BD02480068C005C00F7047C0466D
:103580001404014005480168012008407047C04606
:103590000248016801220A4302607047002002408D
:1035A000F0B581B005460868002833D00C460027E6
:1035B0000EE062692846314600F03BF86268284612
:1035C000314600F04FF87F1C20680146F94021D0B9
:1035D0000126BE400640F6D06068401E012809D88A
:1035E000A2682846314600F060F8E2682168284663
:1035F00000F041F822692846314600F04DF8606835
:103600000228DBD1FF2ED4D862692846314600F06B
:1036100006F8D3E7002001B0F0BD8162704749434E
:1036200049434A430F234B43016A994311430162C3
:103630007047090A494349434A430F234B43416AB0
:103640009943114341627047014908607047C04681
:1036500018040048032000040921C9060A688243AF
:103660000A60704749434A4303234B430168994327
:103670001143016070474A4343688B4313434360DF
:10368000704700000320000402490A6882430A6070
:103690007047C0460C00004849434A4303234B434C
:1036A000C16899431143C160704749434A430323AA
:1036B0004B43816899431143816070472F480168EB
:1036C0000C2008407047C0461348016801220A4395
:1036D00002607047104801680422914301607047FE
:1036E0000D4800688007C00F7047C0460A4801684F
:1036F00080220A4378218A43026070470120000437
:1037000005490A6802430A607047C04602480068DB
:103710008003C00F7047C04634100240094801685A
:1037200001220A4302607047064800688007C00F04
:103730007047C0460348016880220A4378218A43C3
:1037400002607047001002400C480168F02291436B
:10375000016070470720000208490A6882430A6036
:103760007047C046094801681022914301607047C4
:103770000248016803220A430260704704100240B5
:103780000248016880229143016070473010024076
:10379000024801680F229143016070471000014008
:1037A000014908607047C0469401002070B584B09C
:1037B000154C002504200126144922C425606560AB
:1037C000A660E06025616561FF20C230A561E5610A
:1037D00020626562A562E662039502950195083C48
:1037E0002046FDF73BFD3007039030030290019522
:1037F00001AD20462946FDF73DFC019620462946AD
:10380000FDF738FC04B070BD340D002000240140E9
:10381000B0B50B48002103220A4B0162416281626C
:10382000C162012424059504036042608160C16087
:10383000056144618161C161FDF78CFEB0BDC04688
:10384000800D00200064004010B582B00948016876
:103850000122114301600068104001900198092481
:10386000002120460A46FEF771FB2046FEF76AFB60
:1038700002B010BD14100240F0B597B000261696A5
:103880001596149613961296119610960F960E96FC
:103890000124E004FFF7D6FDA005FFF7D3FD600487
:1038A000FFF7D0FDA004FFF7CDFD61030C918D4D16
:1038B0002846FFF7B2FEA1030D912846FFF7ADFEA3
:1038C000E1030B912846FFF7A8FE0920C0060490EB
:1038D000042739460097FFF7A0FE834D284621466E
:1038E000FFF79BFE022105912846FFF796FE28462A
:1038F0003946FFF792FE082106912846FFF78DFE14
:10390000102107912846FFF788FE202108912846BC
:10391000FFF783FE402109912846FFF77EFE8021B4
:103920000A912846FFF779FEA0020190FFF78CFE6E
:10393000E0020290FFF788FE20030390FFF784FE69
:103940000C9F3846FFF780FE0D98FFF77DFE0B9D1C
:103950002846FFF779FE1296119610960F940E974F
:103960000EAF60483946FFF71BFE1296119610966F
:103970000F940D980E905B483946FFF711FE129692
:10398000119610960F940E9556483946FFF708FE8B
:103990001296119610960F94009D0E950498394634
:1039A000FFF7FEFD1296119610960F940E944E4856
:1039B0003946FFF7F5FD1296119610960F9405986B
:1039C0000E9049483946FFF7EBFD12961196109676
:1039D0000F940E95444805463946FFF7E1FD1294D1
:1039E000119410960F9401980E9028463946FFF7CF
:1039F000D7FD1294119410960F9402980E902846B9
:103A00003946FFF7CDFD1294119410960F94039848
:103A10000E9028463946FFF7C3FD12941194109674
:103A20000F940C980E9028463946FFF7B9FD129472
:103A3000119410960F940D980E9028463946FFF772
:103A4000AFFD1294119410960F940B980E90284687
:103A50003946FFF7A5FD1296119610960F94069819
:103A60000E9028463946FFF79BFD12961196109648
:103A70000F9407980E9028463946FFF791FD12964D
:103A8000119610960F9408980E9028463946FFF725
:103A900087FD1296119610960F9409980E9028465D
:103AA0003946FFF77DFD1296119610960F940A98ED
:103AB0000E9028463946FFF773FDFFF769FEFFF7C2
:103AC000E1FDFFF7C7FD0320010214A80181159451
:103AD00021021491FFF702FD02F01AF802F008F833
:103AE00017B0F0BD0008004800040048B0B50D4C08
:103AF000002501200C490D4A22606160A560E0604C
:103B000025616561A561E56125622046FEF786F8BD
:103B100020462946FEF70AF820462946FEF725F8F2
:103B2000B0BDC046000E00200B0200000054004053
:103B3000B0B586B0124C00254F2012494B22D2005E
:103B400021606060A560E26025616561A561059501
:103B5000049503950295019500952046FEF7FCFE1D
:103B600001200003029002A92046FEF75DFF0195A7
:103B7000009569462046FEF7C9FE06B0B0BDC046B6
:103B80004C110020002C014080B50920C006012105
:103B90000902FDF7B9FF00281FD010481049002284
:103BA00000F024FE002801D0FDF74AFA0B480D4929
:103BB00001F02BF8002801D0FDF742FA07480A4926
:103BC00000F086FB002801D0FDF73AFA034801F027
:103BD000AAF8002801D0FDF733FA80BD700A002052
:103BE0000800002098010020BC020020704700005F
:103BF000F0B58BB00446006844210991415E00296C
:103C000001D40BB0F0BD2D21C900059161180391BD
:103C100000210191C94308912146243104910146B4
:103C20004431AD229200A218029201220092D203E6
:103C30000A92069422E05021415AB74A8918226814
:103C40008918039D2A78D2008B5AB0490B40EB614A
:103C5000EA88029901F0FFFE20680188AC4A114011
:103C600080220A4302802046FEF703FE206809995D
:103C7000425E01464431089B9A42C2DC0A880F2703
:103C8000174023D0B900465A0A9A164200D1DAE00A
:103C900041180A889E4B1A40802313430B80282129
:103CA00079436418059963185D218900615C0029D6
:103CB000079374D0FF216C31615C02297CD1069896
:103CC00019463246FEF714FA0546A2E00188D206EC
:103CD0002BD48F4A11400A9A114301805021405A37
:103CE0008D49081821684018049E3179C900401890
:103CF000001F0088854908406064E16B0818E06394
:103D0000002520462946FEF757F930780028ADD027
:103D1000206C0028AAD1049B187880210143C8B2E6
:103D200021684C2288521D70A0E70A0583D40A9AA4
:103D300011429BD00188764A114080220A430280BA
:103D400025465024015B744A89182A688918039E05
:103D50003278D2008B5A6D490B40F3610DD07169F6
:103D600000290AD0F28801F076FEF069716908181E
:103D7000706100212846FEF72BF928686649411832
:103D8000025B3369002B00D1A5E03E2B00D9ABE0EC
:103D90005C08009D2B40E3189B02069CADE050217F
:103DA000415A5D4A821851181A78D2008D5A5749E3
:103DB0000D402ED0B72124E01A789100435A544D7B
:103DC0002B400A9DC0351D434552435A5021415A4C
:103DD000D200504DF1352B420BD04F4B1B189A1887
:103DE0005118091F0D8849490D4012D017210901AA
:103DF00008E0494BC3189A18555A44490D4008D059
:103E0000B9214900625A5F21890061582B4601F0AF
:103E100022FE612080002158491921505F20800036
:103E20002158491921500320C0012058002804D0EE
:103E30002F20C0002058A8423FD907980178069C3F
:103E40002046FEF7C5F8300600D40FE778004100A1
:103E50002068425A2E4B1A400A9B1A43425228218C
:103E60007943631819462831F20508D52B229A5C4C
:103E7000022A04D120463246FEF7A0F9F6E6502287
:103E8000825A254DAA18246814190A78D500641995
:103E9000241F24881D4D2C401D6C2E1B00D2019E1A
:103EA0001E64A54211D9DA6B1219DA635A6C121921
:103EB0005A6401F05BFA069CD8E6069C20680799D4
:103EC00001F054FA3006C1D4D0E6069C20461146D3
:103ED000FEF772F8CAE6535A104C23405352535A15
:103EE0000A9C2343069C08E0DC065B09002C069C28
:103EF00000D15B1E9B020A9D2B4353520188054A49
:103F00001140074A51400180B0E6C046FF0300005F
:103F10000F0F00000F3F000006040000FF830000A9
:103F200080B0000070477047B0B5401E010E01D050
:103F30000120B0BD054D68600024E043032101F07D
:103F4000F1FDAC60072028602046B0BD10E000E025
:103F500080B5FDF79FFF80BD80B500F001F880BD02
:103F600080B5FFF715FBFFF70DFB0128FBD1FFF72D
:103F7000D5FBFFF7D9FB0128FBD1FFF7DBFBFFF7F0
:103F8000A3FBFFF7ADFB0128FBD1FFF7AFFBFFF76A
:103F9000B5FBFFF7BBFB0128FBD1FFF7D5FBFFF714
:103FA000D9FBFFF7E5FBFFF789FB0C28FBD106489F
:103FB000FFF7F6FB0020FDF787FFFFF78BFBFFF70E
:103FC000D1FBFFF7DDFB80BD006CDC027047000019
:103FD00080B50248FEF78BFD80BDC0464C11002025
:103FE000B0B5056801229407A04205D01E4B984247
:103FF00002D01E4B984204D170239D434B682B4343
:1040000000E02B461A4DA84208DCA0420FD0174C06
:10401000A0420CD0194CA04209D023E0124CA0427F
:1040200005D0144CA04202D0134CA0421AD1032454
:104030002402A343CC681C4380239C434B69234345
:1040400003608B68C3620B688362074B984205D09C
:10405000084B984202D0084B984201D1096901638C
:104060004261B0BD1C46E7E7002C0140000400405F
:10407000FF2B014000480140004401400020004067
:10408000B0B5FF2424028568A54311431A020A43F0
:104090002A438260B0BD826870239A430A43072195
:1040A000114381607047B0B5036A046A0125AC43CF
:1040B00004628469F025AC431201224382610A2222
:1040C00093430B430362B0BD10B5036A1024A343AE
:1040D00003620F231B0384699C4312032243036A78
:1040E0008261A022934309011943016210BDF0B51A
:1040F00081B00C4605465720C1006F58002F14D0E0
:10410000142060432E18F069002809D069188968C6
:10411000282262438918896BFCF758F9002906D0D8
:104120008520800000263E500BE0022609E01C3668
:10413000304600260660284621463246334600F0C7
:1041400047FD304601B0F0BD70B504465720C600AB
:10415000A559204600F027FC832189006850A0590A
:1041600000280AD0A2196918812080002818006848
:104170005268D2689047002070BD022070BDB0B573
:104180000446812100F052FB0025E5620121204612
:1041900000F04CFB5B20800025508221204600F07F
:1041A00045FB25645720C0002158002907D024185A
:1041B000606840688047206800F0DEFE25600020CF
:1041C000B0BD10B55721C90042185368002B0BD061
:1041D0004158012040020C182078FF2804D0627852
:1041E0009B689847FF202070002010BD0A210180A5
:1041F0000048704758020020432101800048704762
:10420000D0010020432101800048704714020020A3
:10421000432101800048704764020020F0B583B05C
:1042200004460069012675020028019500D040254A
:1042300081210291022720463A462B4600F00EFCCF
:10424000E662204631463A462B4600F007FC5B20EA
:1042500080002650822103220823204600F0FEFB26
:104260002664029885002846183000F087FE07462D
:104270005720C0002750002F11D020184068006838
:104280008047781900260661466120690028019B55
:1042900000D040237A590121204600F0EBFB304644
:1042A00003B0F0BD10B55721C9004258002A05D00F
:1042B00003690121002B03D0402302E0022010BD3E
:1042C0004B028124A400125900F0D4FB002010BD41
:1042D000002904D0AF2292008150002070470220B4
:1042E00070475722D20080588122920081500020CE
:1042F00070475723DB00C0584123DB00C150C01872
:10430000826000207047F0B583B00E460546572006
:10431000C0002F5802A80024047001A80480A72020
:104320008000291830786022024011D0202A1FD145
:10433000F288002A22D0000628D401204002381832
:104340004270717801702846394600F0A4F84BE0BD
:1043500070780B2825D00A282CD0002833D1087873
:10436000032836D101A90222284600F0B3F83BE029
:104370002846314600F085F8022435E07078096A55
:104380008B6800243146224698472DE07078096AF0
:104390008B6839469847F2882846394600F09AF8E3
:1043A00022E0087803281FD02846314600F069F83B
:1043B000022419E00878032811D102A90122284615
:1043C00000F088F810E02846314600F05AF8022440
:1043D0000AE02846314600F054F8022404E028465A
:1043E000314600F04EF80224204603B0F0BD10B56F
:1043F0005721C9004158002908D04122D200134654
:104400000C33CC58002C03D0012010BD022010BD6D
:104410000124CC508B189B6803638A589BB281217E
:1044200000F0D6FB002010BD80B5AD22920082586E
:1044300052689047002080BD80B5A7229200835C1F
:104440005B1E022B08D84988012907D18118002258
:104450008A6000F04EF880BD00F013F880BD10B502
:1044600013460A460024214600F004FB204610BDF6
:1044700010B513460A460024214600F0A9FB204649
:1044800010BD10B50446802100F07EFB00212046BF
:1044900000F07AFB10BDB0B513460A4657218900DB
:1044A0004350A524A4000325055141184B60002466
:1044B000214600F0DFFA2046B0BD10B5A5218900E5
:1044C00005224250002421462246234600F0D2FA1B
:1044D000204610BD10B513460A46A52189000224C6
:1044E0004450C36103620024214600F071FB204662
:1044F00010BD10B5A5218900042242500024214698
:104500002246234600F064FB204610BD10B5044649
:10451000A720800001212154201880694268217958
:1045200020469047204600F041FB204600F032FA3A
:10453000002010BD10B50A4603A0264C214600F00D
:1045400024F9204610BDC04643444320436F6E66A5
:10455000696700001220088000487047A802002008
:1045600010B50A4603A01B4C214600F00EF9204668
:1045700010BDC04643444320496E74657266616352
:10458000650000000420088000487047CC0200202D
:1045900010B50A4603A00F4C214600F0F6F820465D
:1045A00010BDC04653747279782E496E63000000C6
:1045B00010B50A4603A0074C214600F0E6F8204655
:1045C00010BDC0465765624D4D535F506F776572A1
:1045D000000000001407002080B51A200880FCF7B6
:1045E00031FD014880BDC046D002002080B5C98899
:1045F000012911D1A7218900415C4A1E022A04D257
:10460000002181600146083102E0032904D1011D27
:104610000122FFF75FFF80BDFFF733FF80BD000081
:10462000F0B581B00D4604466846002606804888ED
:10463000010A4A1E062A5CD82B2109016118C046CE
:104640007A4412795200974403150754541C2400ED
:10465000206909680A6845E0C0B2052849D8C04603
:104660007844007940008744022C2F32353808689E
:10467000426834E0486821690127002910D0C16AE6
:104680000FE02069002834D14868416B68468847AC
:104690002AE0206900280CD02046FFF7F2FE2CE02B
:1046A000816A68468847064602207070002F3AD01B
:1046B00026E04868016B6846884706460720707008
:1046C00013E0086882680AE00868C26807E00868C2
:1046D000026904E00868426901E008688269002A0A
:1046E00007D020696946904706460127002F07D169
:1046F00019E02046FFF7C5FE00263746002F12D0EE
:1047000068460288002A0BD0E888002808D0824238
:1047100000D302466846028020463146FFF7DAFEA3
:10472000E888002801D001B0F0BD2046FFF7E1FE87
:1047300001B0F0BD0178002909D0411C00204A1CBD
:10474000401C097800291146F9D1C0B270470020F9
:10475000C0B2704780B5A7229200835C5B1E022B1B
:1047600008D8C988022905D181188968002904D090
:10477000032103E0FFF785FE80BD0121C1600146F2
:104780000C310222FFF7A6FE80BD70B500281BD0B9
:1047900016460C460546FFF7CDFF4000801C3080D2
:1047A0000321617020702A78002A0DD0691C022034
:1047B000C3B2E25401221A430023A3544B1C801CB1
:1047C0000A78002A1946F3D170BD0000032803D8E7
:1047D000800002A1085870470220704700000000C6
:1047E00002000000010000000200000010B50028D7
:1047F00011D0A7239B00C3189C69002C01D0002472
:104800009C61002900D0596102700121197000F0EB
:10481000D1F8002010BD022010BD80B50B229201FE
:104820008058FDF734FCFFF7D1FF80BD80B50B2227
:1048300092018058FDF703FCFFF7C8FF80BDF0B57B
:1048400081B00446A5208000271800290CD0386AC2
:1048500042690220002A05D03B7A032B02D1204670
:104860009047002001B0F0BD3868002816D0042819
:1048700014D0022816D1206A666AB0421CD9801B67
:10488000206283B2204611461A46FFF7F1FD00214F
:1048900020460A460B4600F0EDF803E08021204652
:1048A00000F072F9387B012803D10020387301B081
:1048B000F0BD002001B0F0BDE56928463146FBF7A8
:1048C00085FDB54212D3002910D1786885420DD2FA
:1048D0000025204629462A46FFF7CAFD7D6020466E
:1048E00029462A462B4600F0C5F8DBE7386AC1683E
:1048F000002904D0387A032801D120468847802136
:10490000204600F041F92046FFF7D7FDCAE770B511
:104910000546A5208000281800290CD0026A92695B
:104920000224002A05D0007A032802D128469047A5
:104930000024204670BD01680024052915D00329F4
:10494000F7D10B2149016B181E6859688E4213D9A3
:10495000701A1860884200D3084683B22846114670
:104960001A46FFF77CFD204670BD046028462146AC
:1049700000F00AF9204670BD016A0969002904D0D7
:10498000007A032801D1284688472846FFF7B1FD61
:10499000204670BD80B50B2189014058FDF726FBEC
:1049A000FFF714FF80BD80B50B2292018058FDF700
:1049B00035FD80BD70B50B218A011D498150BD2395
:1049C0009B00C85000238B61CB610B6202230B61FB
:1049D0000824184D0D604C608B6086180846FDF762
:1049E0006DFE002801D0FCF72BFB30680024182353
:1049F00021462246FDF7C2FA30688021582322461C
:104A0000FDF7BCFA30688121C0232246FDF7B6FAD3
:104A1000306801210D022B4610332246FDF7AEFA15
:104A20003068822122462B46FDF7A8FA204670BD49
:104A3000540E0020005C00407F220A40282353438C
:104A40000B2292018058C018090602D52A3000783E
:104A50007047B521490040180078704710B51446DA
:104A60000B22920180581A462346FDF7E0FCFFF71F
:104A7000ADFE10BD10B50B24A4010059FDF709FDD2
:104A8000FFF7A4FE10BDF0B581B004460025402616
:104A900029462A463346FFF7E1FF2B20C0000127B5
:104AA00027502018C660802120462A463346FFF74B
:104AB000D5FFA52080002550201807726662A761E7
:104AC00005616560416A002904D0006A42680021DE
:104AD00020469047002001B0F0BDA7218900425C2C
:104AE000042A02D14018417801700020704780B537
:104AF000A7218900425C032A05D141188969C96947
:104B0000002900D08847002080BD01610020704747
:104B100080B50B2292018058FDF797FEFFF756FEF5
:104B200080BD0000F0B581B00446A5208600A7191D
:104B30003D461435284600F054F80120A051114894
:104B4000205A7860397D1F200840022808D00128AB
:104B50000BD000280ED12046294600F0E9F80EE0DF
:104B60002046294600F021F909E02046294600F0B8
:104B7000C6F904E080200140204600F005F800203E
:104B800001B0F0BDAE02000080B50B22920180584A
:104B9000FDF793FCFFF71AFE80BD80B50B2189015C
:104BA0004058FDF771FEFFF711FE80BD80B50B2167
:104BB00089014058FDF77DFEFFF708FE80BDA72163
:104BC0008900425C0423435440184270002070471F
:104BD00010B50B24A4010059FDF79DFCFFF7F6FD6D
:104BE00010BD0A7802704A7842708A78CB781B022E
:104BF0009A1842800A794B791B029A1882808A7926
:104C0000C97909028918C1807047002904D0AD22F2
:104C100092008150002070470220704770B5044612
:104C2000888800280BD1C888002808D14D887F2D9E
:104C300005D8A720800026183078032803D1204605
:104C4000FFF71FFC70BD7F200540B5702046294648
:104C5000FFF75EFF2046FFF74CFC002D02D002203C
:104C6000307070BD0120307070BD80B5AD229200F3
:104C70008258002A05D012689047411E88414000A2
:104C800080BD022080BD0000B0B5044648881F4D9D
:104C90002870C1B2022903D32046FFF7F2FBB0BD52
:104CA000A7208000225C2018032A0CD0022A1BD1E6
:104CB000002927D00322027061602046FFF7D5FF4C
:104CC00002281FD1E8E7002916D06068884219D071
:104CD000C1B22046FFF7A8FB297861602046FFF7A4
:104CE000C4FF02280ED1D7E72046FFF7CAFB297878
:104CF0002046FFF799FBB0BD61600222027020469A
:104D0000FFF792FB2046FFF7F4FBB0BD1007002031
:104D100080B54988012905D1A92189000122425085
:104D2000FFF7E7FB80BD80B5FFF737FF002080BDB0
:104D300080B50B7860221A400AD0402A01D0202A80
:104D400017D1AD229200825892689047002080BD12
:104D50004A78092A0DD8C0467A44127952009744FD
:104D6000040C081008142008181CFFF7F3FC00209E
:104D700080BDFFF786FB002080BDFFF75DFB0020B4
:104D800080BDFFF7C5FF002080BDFFF747FF002073
:104D900080BDFFF72BFC002080BDFFF775FF0020D2
:104DA00080BDFFF73DFC002080BDB0B50A4604463B
:104DB000087860210140A7208000201800290AD02F
:104DC000402901D0202918D18069836820461146E6
:104DD00098470020B0BD11795378002B12D0012BD9
:104DE00022D0032B4ED1007803282FD0022849D19E
:104DF00080200843802845D01FE02046FFF741FB74
:104E00000020B0BD007803282ED002283AD180209F
:104E10000843802836D17F20084014224243A3183B
:104E200008064DD514334EE0007803282FD0022811
:104E300028D180200843802824D02046FFF7A4FEF4
:104E400080212046FFF7A0FE0020B0BD508800283A
:104E500025D180200843802821D0D08800281ED169
:104E60002046FFF791FE1AE00F230B4080200A46F0
:104E700014255D436319024016D12B25ED005B59C3
:104E8000002B14D12046FFF7FCFA0020B0BD50885B
:104E90000028B5D1480602D02046FFF7BEFC2046C8
:104EA000FFF727FB0020B0BD9B69002BEAD07F23D2
:104EB0000B4014255D436519002A0AD014350BE018
:104EC000552080001B180020186002222046194639
:104ED00011E055229200AD180843802801D100202E
:104EE00005E02046FFF7A8FD0028F8D00120286043
:104EF000022220462946FFF7EDFA0020B0BDB0B5EA
:104F00000D46044609786020084003D0402801D0AF
:104F100020280FD1A720800020180178491E0229DF
:104F200003D8A9880906490E09D02046FFF7A9FA37
:104F30000020B0BD2046FFF7A4FA0020B0BD806974
:104F400082682046294690470028F6D1E888002844
:104F5000F3D12046FFF7CDFA0020B0BD10B50446CE
:104F6000AD20800020584268217920469047204695
:104F7000FFF71CFE002010BD70470000004870477E
:104F800054070020F0B586B003460F78B8001E180D
:104F9000185A7E4D0540C8780328049008D800228E
:104FA000784400794000874401050B08012005E0A2
:104FB000012205E00120800201E0032040020543B8
:104FC000734C254335803088D54D284038432043E5
:104FD0003080087B002844D00392308805966D4EBF
:104FE00006406D483018059A108050201C5A0294D3
:104FF0000124A5025D19FF00EA190192E4430E891C
:1050000026400093029B019AD652059E009A105AA0
:105010003A1DAA184B8923401352D24A1346F13342
:1050200030881840497800293ED00028584BBC4CA5
:1050300004D030882040BC4901433180308840068C
:1050400005D5308820401946403101433180303445
:10505000308820400499012943D019462031484026
:1050600040E05020185A0390FF00487800283FD0B5
:105070001446D819039A8018C988012291439202D4
:10508000815230884006424A05D530882840114672
:10509000403101433180303531882940049801285E
:1050A000204647D111436DE00028394B9C4C04D079
:1050B000308820409C49014331803088400605D526
:1050C00030882040194640310143318030881040FB
:1050D000964941403180303431882140194303984A
:1050E00050E018433080318811401943039849E05B
:1050F0000596042038430124A6029E1902965033D7
:1051000030180490C8880194A043039C049E305337
:1051100006203843029C271808691988134600287E
:105120000BD03E2813D8019A024040088018820212
:10513000059E16E02032514024E0C85B174A024029
:10514000CA53C85B124A803A0243059E09E0C20670
:105150004009002A059E00D1401E80020C4A803A78
:105160000243CA5331887F480246F132114204D0CB
:10517000318829406C4A0A4332803288024008490B
:1051800051401846318006B0F0BDC0468F89FFFF00
:10519000808000000F0E000080810000FF8300006F
:1051A00080B0FFFFB0B50A789200845A80184B781F
:1051B0000A7B2F49002A21D06A4A1546F1352C4036
:1051C000002B27D0564B584D002C03D004881C4090
:1051D0002C4304800488640603D504881C400C43D7
:1051E000048004881C402C430480303304881C4015
:1051F0000B46403B23430380134631E0002B24D071
:10520000474A1346303364062AD5048814400C43B9
:10521000048025E0424B002C04D004881C40424D01
:10522000254305800488640603D504881C400C438C
:10523000048004881C400C430480048814400A46FF
:10524000403A2243028030330AE0464B1A46F1329C
:10525000144205D00288324C1440334AA21802800E
:1052600002881A404039114301800020B0BDC04679
:10527000C08000005821425A0123DB0313434352EC
:10528000002070475821425A024B134043520020DD
:105290007047C046FF7F000040220121815200215B
:1052A0008152403081800182084670474021425A35
:1052B000024B1340435200207047C0467F4000001D
:1052C000B0B50A7B002A01D00020B0BD0A78930057
:1052D000C25AC0184B78002B10D05206104B114AFE
:1052E00005D504881C401546203525430580C9781E
:1052F0000129E9D03033018819400DE019490B46E6
:10530000F1331A4205D00288054B1340064A9A1819
:10531000028002880A400549514001800020B0BD4A
:105320000F0F0000A080000080C0000080B00000CF
:1053300010B54B78002B04D0094A002B04D1094B3F
:1053400003E0064A002BFAD0074B09788900445A3B
:105350001C4054404452002010BDC0468090FFFFC6
:105360009080FFFF0F3F00003F0F0000F0B585B0B9
:105370000D4604464878012842D12A69A96991421C
:10538000164600D80E46297B00295DD0E97802290F
:1053900000D088E0049629788B00E618E35AF74F8E
:1053A0001F402B6A934200D8CDE00391F44A174383
:1053B0003780049FDA1B2A6232880121CE0352060D
:1053C00000D500E1019189020291012800D143E159
:1053D0000028039B00D064E25020205A02996218F2
:1053E000D900891C5118002F00D146E23E2F00D968
:1053F0004FE23A46019B1A407B089A1892024FE20C
:10540000297B002931D0E97801296CD0022900D00C
:1054100096E001218A02002800D051E15023E35A8E
:10542000A618F3182F692E78F600B61C0496002FE4
:1054300000D100E13E2F00D932E17E0803960F40F3
:10544000039EF719BF0239E1EA886969B3B22046C1
:1054500000F02AFB5020205A20182978C900891C06
:1054600040180121890246527FE02F69A869C11BBB
:1054700000D20021A961B84200D807465020205A26
:1054800020180123990240182978C9008A1DCE49A5
:10549000002F00D182E03E2F00D989E03B407E08FA
:1054A000F3189B028CE02A789100615A4B06012187
:1054B000CF03002B5BD4012800D1AAE0002800D044
:1054C000ABE15020205AD200921CA2188B02D218B5
:1054D000002E00D18DE13E2E00D996E131407308B7
:1054E0005918890298E12A69A9698B1A00D2002308
:1054F000AB61914200D80A4601239F0201287FD068
:10550000002800D00EE104935021615AE619711869
:105510002E78F600B61C002A0391029600D1A5E071
:105520003E2A00D9F1E00192049B019E1E400196A3
:105530005108019BC9188902029E039BF152F0E0B9
:10554000012005B0F0BDA148074337805020205A04
:10555000C900891C61180818012189024352696930
:105560002A899BB2204600F09FFA994E43E2012817
:1055700058D0002800D05BE15020205AD200921D64
:10558000A2188B02D218002E00D138E13E2E00D98D
:1055900046E1314073085918890248E1175A8D4E87
:1055A0003E401652165ADB0333438B4E135224E20D
:1055B000FE067F09002E00D17F1EBE02DB033343AF
:1055C0001352854E19E201918902029101285DD0A2
:1055D0000028039B00D0AFE15020205A02996218A6
:1055E000D900891D5118002F00D14CE13E2F00D960
:1055F0009AE13A46019B1A407B089A1892029AE176
:105600005021615AE61971182E78F600B61C8A539B
:1056100088E05020205AD200921CA218101889024B
:105620004652FAE05020205AD200921DA2181018BB
:1056300089024652FCE00291049EF15A0391F34F15
:1056400003990F400299F7520192F25A0392F24FD6
:10565000039A1743019A31E05020205A02996218A8
:105660000399C900891C51180F521AE1735A01930A
:105670000E46E649019B1940029B9953995B0191A3
:105680000499C903019E3143039E49E05020205AEA
:10569000029962180399C900891D51180F524BE1F4
:1056A000FE0603967F09039E002E009300D17F1E05
:1056B000BB020393D84F039B1F43009B049EF752EA
:1056C000012812D0002866D15020205AA2181018A4
:1056D0002B692A78D200921D002B10D03E2B51D876
:1056E00019405B085918890254E05020205AA1182B
:1056F000081829692A78D200921D81524BE0135A6A
:10570000C24E1E401652135A42E0D10653090029D8
:1057100000D15B1E04999B02C9031943039E029B9F
:105720009953049BBA49BB4E012814D0002800D0DD
:1057300063E15020205AE61930182E78F600B71D84
:10574000002A11D03E2A49D813405208D21892029A
:105750003A52B04E51E15020205AE31918182B78D4
:10576000DB009B1DC25248E13A5AA84E16403E52F9
:105770003A5ADB0313433B52A64E3EE10F0E0000A4
:1057800080810000DE065B09002E00D15B1E9B02BB
:10579000C90319431152E8699D499E4E002800D162
:1057A0002BE128788000225A9C4B1A409A4202D062
:1057B000002A00D021E12018994A303A038813408A
:1057C000984A9A18028018E10F3F0000808000007C
:1057D0000080FFFFFF83000080B00000D606520962
:1057E000002E00D1521E8B4E9202DB0313433B521C
:1057F00003E1815A854B0B408352815A0BE0815A59
:10580000824B0B408352815A10E0F3067109002B42
:1058100000D1491E8902394381522846083009E0E7
:10582000F3067109002B00D1491E890239438152C8
:1058300028460A3069690288B3B2204600F034F97C
:105840003E46B0366878764901280CD0002800D052
:10585000D3E028788000225A0B46303B1340C037F3
:105860001F432752C9E028788000225A0B46303B5C
:1058700013406D4A1A432252BFE0425A634B134011
:105880004352425A0BE0425A604B13404352425A31
:1058900050E0FB067A09002B00D1521E92023243DF
:1058A000425269692A89BBB2204600F0FDF8686956
:1058B000C1196961286A2A69904201D8002300E071
:1058C000C31B2B62904200D807466878012815D088
:1058D00000281CD15020205A029AA21810182A78A9
:1058E000D200921D002F14D03E2F67D8049001984B
:1058F00038407B081B189B02049812E05020205A65
:10590000029AA21810182A78D200921D87526A892A
:105910006DE0135A04973D4F1F401752049F135ACE
:10592000334313526A8962E0FB067A09002B00D1E7
:10593000521E92023243425269696A89BBB22046C2
:1059400000F0B2F86869C1196961286A2A69904251
:1059500001D8002300E0C31B2B62904200D8074609
:105960006878012816D0002840D15020205A029A89
:10597000A21810182A78D200921C002F14D03E2FA3
:1059800029D80490019838407B081B189B02049882
:1059900013522BE05020205A029AA21810182A788D
:1059A000D200921C875221E0135A0497174F1F40D0
:1059B0001752049F135A3343135217E03B46FF0616
:1059C00004935B09002F00D15B1E9B0233431352EB
:1059D000049F6A890BE03B46FF0604935B09002F96
:1059E00000D15B1E9B0233431352049F2A89BBB232
:1059F000204600F059F8B036094928788000225A2C
:105A00000A4072402252002005B0F0BDFF83000022
:105A10000F3F000080B000000080FFFF404000000A
:105A20003F0F0000C080000080C0000002464032EE
:105A3000002191804022024B835208467047C046A5
:105A400080BF000080B5A848FCF77EFD80BDC04641
:105A50004421405A704710B58018012292028018E4
:105A60005A0808D004880C70240A4C70891C521EF5
:105A7000801C002AF6D1DA0701D00088087010BD1A
:105A8000002901D0002070474C2180224252002082
:105A90007047402201218152034640330021998002
:105AA000032383520846704710B55B1C5B080DD07A
:105AB00080180122920280180A784C782402A218D9
:105AC0000280891C5B1E801C002BF5D110BD0000DC
:105AD000002809D41F2108400121814003480160AA
