:020000040800F2
:10000000E0170020D500000815350008552C000821
:1000100000000000000000000000000000000000E0
:10002000000000000000000000000000193500087A
:100030000000000000000000173500081B35000814
:100040000501000805010008050100080501000878
:100050000501000805010008050100085511000808
:100060000501000805110008151100080501000828
:1000700019090008CD350008050100080501000830
:100080000501000800000000000000000501000854
:10009000000000000501000805010008592C0008B7
:1000A0000000000005010008050100080501000826
:1000B000050100080000000005010008F9490008DA
:1000C0000348854600F0C8FB00480047BD4A0008C9
:1000D000E01700200C4880F308880C480168090EDE
:1000E0000B4A914205D10B480B4901600B480C4962
:1000F00001600C4880470C480047FEE7FEE7FEE73A
:10010000FEE7FEE7FEE70000E01700200400000025
:100110001F00000018100240010000000000014014
:1001200000000000C9350008C100000830B50B46CA
:10013000014600202022012409E00D46D5409D42C1
:1001400005D31D469540491B254695404019154647
:10015000521E002DF1DC30BD70B50024254600286C
:1001600001DA01244042002901DA01254942FFF762
:10017000DDFFAC4200D04042002C00D0494270BDAF
:1001800010B5202A04DB0846203AD040002110BDDB
:100190000B46D340D0402024A21A91400843194670
:1001A00010BDD2B201E00270401C491EFBD2704764
:1001B0000022F6E710B513460A4604461946FFF733
:1001C000F0FF204610BD421C0178401C0029FBD1E5
:1001D000801A7047024670B54A40D30FDB074000D3
:1001E0002DD04A002AD0010E140E00021202091965
:1001F000400A520A8418E50104465443000A120AD0
:100200002E045043A4194219200CC543AA18120CFD
:100210000125AD03521C521912047F39240400D069
:10022000521C104301D44000491EC2B20C06C00942
:100230002018401C4008802A02D003E0002070BD36
:1002400040084000002900DA0020184370BD00007B
:10025000F0B51FB488B00B9909980024484009995B
:10026000C00F490049080991C0070B990090490047
:1002700049080B9109990898A64608431CD00B9988
:100280000A98084318D0099801244000420D4800FC
:10029000410D099824050003000B204309900B9899
:1002A0000003000B20430B9050181C4940180022FB
:1002B00001901446104605E0002001460DB0F0BD47
:1002C000032801DA034600E003239C46C11A0AAE64
:1002D0000AE05F0008ADED5B4F00F75B7D43002750
:1002E000AA187C41491C5B1E6145F2DD410004AB4C
:1002F0005A522104120C0A43240C401C0828DFDB4C
:10030000019802900099704601910090059B049A13
:100310000799069800F0F0F8D0E700000DFCFFFF09
:1003200010B5002904DB0C460121C9074042A14158
:10033000002B04DB1C460123DB075242A341101AA9
:100340008B4101D3012010BD002010BD10B500224B
:100350009623114600F08AF810BDC20F41004002FA
:100360000123400ADB05D207090EC0187F2901DAF4
:1003700000207047962903DC9623591AC84001E0F3
:1003800096398840002AF4D04042704770B5CD0FAE
:100390004A0009030123090B1B0519430B4BED0709
:1003A0000024520D9A4201DA002070BD074B34330D
:1003B0009A4203DC9A1AFFF7E3FE02E0044951185F
:1003C00088402C43F1D0404270BD0000FF03000084
:1003D000CDFBFFFFC20FD207400040080BD0C10D7C
:1003E0000723DB01C91840020905400A1143C2086E
:1003F000400711437047002001467047F0B51FB415
:100400000646002082B005464024019100901BE082
:10041000019922460F463046FFF7B2FE049A059B2B
:10042000801A994110D310461946224600F026FA48
:10043000361A8F410197224601200021009F00F0CB
:100440001DFA38184D4100902046641E0028DFDC5C
:10045000019B00982946324607B0F0BD002904DA16
:10046000401C490001D140084000704770B400248E
:10047000050C05D11024000402D1002921D011243B
:10048000050E01D100020834050F01D10001241D21
:10049000850F01D18000A41C002801DB4000641CF2
:1004A000002908D020252E1B0D46F540A14000D084
:1004B00001212943084301061B1B000ADB1D02D54D
:1004C000002070BC7047DB05181880180029F8DA86
:1004D000401C4900F5D170BC40084000704710B581
:1004E000002B08DA0024401C614192185B411A433A
:1004F00001D14008400010BDF0B51FB482B00546E0
:100500000C0003D0084604F049FE02E004F046FE69
:100510002030024600902146284600F0AFF9049BA7
:10052000059A04460F4618431143084314D0184651
:1005300010431BD0009840210A1A18460599FFF76E
:100540001FFE05460E46009A0599049800F096F99C
:10055000084305D0012004E02046394607B0F0BD2D
:100560000020C11705430E432C43374300990E98D2
:100570006305401A7905E40A00220C43FD0A0A309B
:1005800002D500200146E9E70105101969410C9CDC
:100590000D9D00196941FFF7A2FFDFE7F0B507469F
:1005A0000846584087B0C00F049048000E465900D6
:1005B00040084908BC1A884105D2384631461E46D3
:1005C00017460B4602465800400810434CD0300DE9
:1005D000039040055900400D490D0590401A0290C6
:1005E000402872DA18030121000B09050843019025
:1005F00004980092002805D00199524200208841B9
:1006000000920190029840210A1A0199009800F086
:1006100035F905460C466B4607CB00F03FF9C0198B
:100620007141039A0E0D0023D71756401A467A409F
:10063000164344D0049A002A2DD0029A012A039A24
:1006400015DC1205C01A914101263605001C7141C6
:10065000D20F059ED2070093019202962A462346A6
:10066000FFF74AFF07B0F0BD38463146FAE71605F6
:10067000224A0F46B218C01AB74101210905001CD1
:100680004F4100187F41114618187941E20F10437D
:100690006D19644113E0E2076D0815436408C20751
:1006A0001443039A01261205C01A91413605001C15
:1006B0007141CE07400830434908C01851412A46CD
:1006C0002346FFF70CFFCDE7FFE704980122400027
:1006D000C117121A00238B4104983146C417381AE7
:1006E000A141EEE730B40124E407634030BC55E794
:1006F00030B40124E407614030BC4FE70000E0FF64
:10070000F0B50C465C4085B0E40FE40703944C0060
:10071000002664085900944649080246029622437E
:1007200021D062460A431ED06200570D4A000E03D4
:100730002303550D012402462C492405781B1B0B6D
:10074000360B401823432643614600901C46501A3E
:10075000B44103D30098401C009002E09218009826
:100760005B41002803DA0020014605B0F0BD0020FF
:10077000012109050746864611E064461D46141B03
:10078000B54106D36546521BB341744607430C433B
:10079000A646CD0740084908284392185B41054604
:1007A0000D43EAD11046184313D060461946504015
:1007B0007140084306D06046101AB34106D20122A8
:1007C000002306E000220123DB0702E00122D243DE
:1007D0005310009874460105381C6141029C039D2A
:1007E00000196941FFF77BFEBFE70000FD03000031
:1007F0004A0009030123090B1B0519430A4B10B5D5
:10080000520D9A4202DA0020014610BD064B3433E5
:100810009A4203DC9A1AFFF7B3FC10BD034BD218BF
:1008200000F02CF810BD0000FF030000CDFBFFFF1F
:1008300010B5002904DB0124E40740428C41214625
:10084000002B04DB1C460123DB075242A3419942E3
:1008500000D1904210BD0000064C0125064E05E077
:10086000E36807CC2B430C3C98471034B442F7D3D1
:10087000FFF72AFC686800088868000810B5202A7D
:1008800004DB0146203A9140002010BD9140202316
:100890009C1A0346E3401943904010BD10B5202A2E
:1008A00006DBCB170846203A1041C1170B4306E080
:1008B0000B461341D0402024A21A91400843194608
:1008C00010BD70B58C180578401C6B075B0F01D10B
:1008D0000378401C2A1106D10278401C03E00678F8
:1008E0000E70401C491C5B1EF9D12B0705D4002358
:1008F000521E0DD40B70491CFAE70378401CCB1A2A
:10090000921C03E01D780D70491C5B1C521EF9D52A
:10091000A142D8D3002070BD80B5024800F0C0FCD1
:1009200080BDC0463C03002070B504460068816865
:10093000002549071DD58168490706D581688907C3
:1009400003D4816810220A43826001F0ADF80646A4
:100950002068806840070CD501F0A6F8801B0328AA
:10096000F6D3A06B10210143A163E06B012528435E
:10097000E063284670BD80B50146406A826B502313
:100980001A4204D0006B026B0846904780BD0121DB
:100990004A02836B134383630268D3681B059B0F72
:1009A0001AD1837E002B17D113681B0714D59368C7
:1009B0005B070AD451680C2399435160FF2102312F
:1009C000826B8A43511C816306E0826B20231343B0
:1009D0008363C26B0A43C263C046C04680BD80B514
:1009E000406A816B40220A438263C16B04220A433E
:1009F000C263C046C04680BD80B5406AC046C0469E
:100A000080BD70B504460068826803210A40002555
:100A1000012A23D10268D20702D1C26812041DD56F
:100A2000826805231340012B10D1826802231343EF
:100A30008360016001F038F8064620688068C007CE
:100A40000CD001F031F8801B0328F6D3A06B1021E5
:100A50000143A163E06B01252843E063284670BD94
:100A6000F8B50446002700970068816803220A4011
:100A7000012A05D10168C90731D1C16809042ED402
:100A80008168184A114206D0A06B10210143A1636E
:100A9000E06B012520E0816801252943816012482F
:100AA00000681249FFF742FB00900098002802D02E
:100AB0000098401EF8E700F0F7FF0646206800683F
:100AC000C0070CD100F0F0FF801B0328F6D3A06B09
:100AD00010210143A163E06B2843E06300E03D4641
:100AE0002846F8BD17000080A801002040420F00F2
:100AF000F8B5224F3C463834B91C022520462A4618
:100B000000F02EFD1E4E002D07D07D20C2000021DA
:100B1000304600F06BFE6D1EF5E7204600F06AFDE2
:100B20007888FFF713FC1749FFF754FBB860B888C3
:100B3000FFF70CFC1449FFF74DFBF860FFF74AFC88
:100B4000124A134BFFF7ECFB0246401E824109207C
:100B5000C006042100F0A1FFF868FFF73BFC00226B
:100B60000C4BFFF775FBFFF711FC0124214604F045
:100B7000D3F9204600F0BEFEF8BDC04604030020B5
:100B80001010002066666E3B66661E3B33333333BF
:100B90003333154000005940002070470020704753
:100BA000B0B5964C0549002520462A4602F08DFE38
:100BB0000349204602F081FE2846B0BD840C002087
:100BC000BC0B0020F0B587B004468C4D284621466A
:100BD00002F073FE284602F051FE01200690C30386
:100BE000059420780146513908290FD901467139F9
:100BF000082923D9411E07293BD9102836D020289F
:100C000052D0452853D0652851D089E0890002A2EE
:100C1000525819469746C046B30C0008A30C00086A
:100C2000210D00086D0C0008210D0008210D0008A1
:100C30009D0C0008210D0008A90C0008890002A2E3
:100C4000525819469746C046B30C0008A30C00083A
:100C5000210D00086D0C0008210D0008210D000871
:100C60009D0C0008210D0008A90C00080698C1027F
:100C70001FE0890001A2525819469746B30C00089C
:100C80009D0C0008210D0008AF0C0008210D000884
:100C9000210D0008210D0008A30C0008069881030F
:100CA00007E00698010304E00698810201E0069837
:100CB0004103F84C204610380022049300F0EDFE6A
:100CC0002068C00B069E32468243F348427021687A
:100CD000890B33468B43837021684F0B3146B943F0
:100CE000C17027683F0B3546BD4305712768FF0A71
:100CF0003446BC434471E74F3F68BF0ABE43867128
:100D00000091019502940396C71DE449384604F00A
:100D100031FA0821384600F0DDF9049B0598007887
:100D2000411E07291CD9102828D020282CD0422861
:100D300024D043285CD04E2826D0562860D058288E
:100D400050D07A2814D0622818D0632850D06E284A
:100D50001AD0762854D0782844D05A2808D081E078
:100D60007944097949008F44033D7D437D7D7D4B66
:100D7000C84E304610381946069F46E0C54E3046EC
:100D80001038069FF90240E0C24E30461038069FE8
:100D9000B9023A4600F081FE3068C00B3A46824301
:100DA000BD4842703168890B3B468B438370316884
:100DB0004C0B3946A143C1703468240B3D46A54312
:100DC00005713468E40A3E46A6434671B14C246876
:100DD000A40AA743877100ACE2C4C01DAF4904F068
:100DE000C9F93FE0AB4E30461038069FB9030CE01E
:100DF000A84E30461038069F790306E04C0D0020BF
:100E0000A44E30461038069F39033A4600F045FE9E
:100E10003068C00B3A4682439F4842703168890B64
:100E20003B468B43837031684C0B3946A143C170FC
:100E30003468240B3D46A54305713468E40A3E46F8
:100E4000A6434671934C2468A40AA743877100AC5B
:100E5000E2C4C61D9149304604F08CF908213046A1
:100E600000F038F9059800783F2189023F2805D025
:100E7000412803D0FF2801D0612836D1854F38465C
:100E8000103800220491049900F007FE3868C00B66
:100E9000069E32468243804842703968890B334649
:100EA0008B43837039684C0B3146A143C1703C6859
:100EB000240B3546A54305713C68E40A3746A74331
:100EC0004771744C2468A40AA643867100ACA2C47E
:100ED0000396C71D7149384604F04CF9082138467D
:100EE00000F0F8F8049905980078002803D07328DA
:100EF00001D0532832D1674E30461038069F3A460B
:100F000000F0CBFD3068C00B3A4682436248427025
:100F10003168890B3B468B43837031684C0B3946F3
:100F2000A143C1703468240B3D46A5430571346864
:100F3000E40A3E46A6434671564C2468A40AA743D9
:100F4000877100ACE2C4C61D5449304604F012F962
:100F50000821304600F0BEF80598007820240146AC
:100F60002143702931D14B4E3068C00B069F3A4661
:100F70008243494842703168890B3B468B438370FA
:100F8000316804944C0B3946A143C1703468240B7A
:100F90003D46A54305713468E40A3E46A6434671C2
:100FA0003C4C2468A40AA743049C877100910195D6
:100FB00002960397C61D3949304604F0DBF8082134
:100FC000304600F087F805980078014621436D29E6
:100FD00009D1334E3046FFF7F6F881B2304600F0C3
:100FE00079F80598007801462143692904D12A48F7
:100FF000069901700598007820436B2846D129484E
:101000000068294C2146FFF7E5F8FFF7A6F90546E9
:1010100064263146FFF7A0F8069031464143681A2E
:101020000A273946FFF798F80590204800682146BE
:10103000FFF7D0F8FFF791F904463146FFF78CF837
:1010400004904643A61B20463946FFF785F80C4618
:1010500028463946FFF780F80D4630463946FFF7F7
:101060007BF803460094069801900598029003953A
:101070000948C41D0EA12046049A04F07BF82046BE
:10108000FFF7A1F881B2204600F024F8002007B055
:10109000F0BDC046100400487C03002057680008DB
:1010A0002E00002010030020000020410C0300202F
:1010B000626174203A20256425642E2564203A3A22
:1010C00020636170203A20256425642E25640D0A72
:1010D0000000000010B50A4601465720C000084B2A
:1010E000185885239B00C058002801D0012010BD4E
:1010F000034C204602F0E9FB204602F046FC10BDFE
:101100004C0D002080B5024800F0EAFA80BDC046D0
:101110001010002080B5034800F0E2FA024800F009
:10112000DFFA80BD981000205410002070B5C46B09
:10113000056C0126AE406660046863604068102854
:10114000134600D00B46A360102800D01146E16082
:1011500070BD000010B50C480168C90512D5012406
:10116000210201600948007800280BD00920C00640
:1011700000F08EFC012802D10548047010BD04481F
:101180000221017010BDC046140401400403002078
:1011900005030020FEB5002402943422825C012A5B
:1011A00001D102225AE00646343601223270076825
:1011B000BB685B0715D4019660C901220092AA4062
:1011C000304B08399E4211D1B86A9043B862284624
:1011D000103802282246019E3FD8112D18D02E48E3
:1011E00017E0816B20230B43836336E0BB6A134314
:1011F000BB62C06A421E072A32D228461038022833
:101200002246019E29D8112D0CD0009908060BE02A
:101210002048102D00D121481B490A6802400A606D
:1012200022461AE000998805102D00D1C8051649FC
:101230000A6802430A60102D22460ED11348006846
:101240001349FEF773FF0A214143029102980028D7
:10125000E6D00298401E0290F8E734701046FEBDBA
:10126000009A12079042C8D07A6907200240896824
:101270009142C2D07A6982437A6101407869084319
:101280007861BAE70110000008270140A80100209A
:1012900040420F00FFFFBFFFFFFFFFFEFFFF7FFF8A
:1012A00010B5044600680168490702D5416849073E
:1012B00005D40168090730D5416809072DD5A16B10
:1012C000C90604D401214902A26B0A43A263C16882
:1012D0000905890F1BD1A17E002918D101680907D2
:1012E00015D5816849070AD441680C2291434160B1
:1012F000FF200230A16B8143481CA06307E0A06B74
:1013000020210143A163E06B01210143E1632046F9
:10131000C046C04620680C210160016809060DD551
:10132000416809060AD501200004A16B0143A163AD
:101330002046C046C0462068802101600168C90679
:1013400014D54168C90611D5A16A012902D0C16826
:10135000C90709D0E16B02220A43E2631021016050
:101360002046C046C04620681021016010BD000024
:10137000F8B5002864D004460646243605463835BC
:10138000806B002805D100203074E063204600F017
:1013900095F82868C0064DD420688168490749D46B
:1013A000812149002A688A43911C296082680321AF
:1013B0000A40012A05D10268D2070ED1C268120480
:1013C0000BD4C26818239A43A3681343C3608907E8
:1013D00002698A43616811430161C168354A0A4064
:1013E000C260A16A491E4A1E914109030091227EF2
:1013F0009203637EDB031343A27E57031F43E3681C
:1014000021693B43009F3B43891E4F424F41BF0030
:101410001F43317849003943E37E012B15D1002A5F
:1014200010D0A26B20231343A363E26B0123134369
:10143000E3630AE028681021014301202960F8BD18
:101440000120F8BD012212041143E269FF23C233D7
:101450009A4202D00A43216A1143C2680A43C26019
:10146000E26A531E072B20D243690726B343436128
:101470003240436913434361C0680F4A02408A42C5
:1014800007D10020E063A26B0121114302229143A6
:10149000D4E7A06B1021014302208143A163E16BDB
:1014A000012001433C342546C8E701231B079A422B
:1014B000DAD0E1E71902FEFFE7FF3F83F0B587B01E
:1014C000044602A81421FEF773FE206820498842D2
:1014D0003BD1012670021F494A6802434A604A68AC
:1014E00002400192019870040A6802430A60096888
:1014F0000140019100270497032003900290019876
:101500000920C00602A900F007FA134D2020B102FD
:1015100032028023114EC0C52F606B60AA60E96063
:1015200028616F61083D284600F024F9002801D0A9
:10153000C046C0466C6225630C24002120460A4642
:1015400000F00EFD204600F0FFFC07B0F0BDC046E5
:101550000024014014100240101000200800024036
:10156000FEB50E460446016888680227400737D456
:101570003420205C012833D00292254634350123E3
:101580002B70607E012808D001932046FFF768FA8F
:101590000746002824D12168019BA06B114A024014
:1015A00018021018A0630027E7631C200860486831
:1015B000102202434A602F70206B0C4A0C4D85624A
:1015C000C262094A0263CA681A43CA60403132469D
:1015D000029B00F05FF92068816804220A43826060
:1015E0003846FEBDFEF0FFFFDF090008F9090008DC
:1015F0007709000870B504463420205C012801D129
:10160000022070BD26463436012535702046FFF78E
:101610008BF9002821D12068C168A943C160206BE3
:1016200000F01EF80546002803D0A06B40210143BE
:10163000A163206841681022914341602046FFF772
:10164000E0F9002D00D02846002806D1FF20023006
:10165000A16B8143481CA06300200021317070BD44
:1016600010B52121425C01462031022A10D10268C6
:1016700013680E24A343136013680124A34313606B
:10168000C26B006C2346834053604C70002002E024
:1016900004228263012000220A7010BDB0B521210E
:1016A000415C022917D101462031026813680E24DB
:1016B000A343136013680125AB431360C26B036C33
:1016C0002C469C40546000240C704D70416B0029E6
:1016D00004D0884702E00421816301242046B0BD84
:1016E000F8B5C16B046C00910D6802681668730749
:1016F0000FD504210F46A7403B462B4009D0136865
:101700009B0602D413688B43136000994F60C16A33
:101710002BE003462033B10713D50227A7403946F3
:1017200029400ED01168890605D411680A24A14306
:101730001160012159700021197000994F60816A70
:1017400013E0310714D50821A140294010D01168B9
:101750000E25A943116001210A46A240009C626047
:10176000816300221A705970016B002900D08847EC
:10177000F8BD0000F0B585B000282DD0044606461F
:10178000203602207070A2CC236860680190A068A7
:101790000290E0680390206904900868104A0240B3
:1017A0002A433A431A43019802430298024303989A
:1017B0000243049802430A600025E5620948206359
:1017C000357009480C3C08181421FEF7AFFC800066
:1017D00020640120707000E00125284605B0F0BDAE
:1017E0000FC0FFFF00000240F8FFFDBFFEB504463A
:1017F0002120205C25462035022809D12068006878
:1018000080060BD41646002901910BD004270AE06C
:10181000002028700420A0630120FEBD01200102E9
:10182000A163FEBD0227206C874000F03DF90290C5
:10183000E16B0868384214D1226C0868D040000778
:1018400017D4701CF4D0002E05D000F02DF90299A9
:10185000401AB042ECD92020A0630020287001205B
:101860000EE0206C019A002A0CD0042282404A60CB
:101870000DE00120034693404B60A06300212970D6
:101880006870FEBD022282404A600120687000201C
:101890002870FEBDF8B505462020285C02240128EA
:1018A00026D028462030012606704778012F12D115
:1018B000022444700024AC6328680768B7430760BB
:1018C0002846FFF733FC28680168EA6A002A05D039
:1018D0000E22114308E00021017009E00A221143A1
:1018E0000160016804229143016001683143016095
:1018F0002046F8BDB0B5044600F0D6F80546601C99
:1019000002D004480078041900F0CEF8401BA04231
:10191000FAD3B0BD00000020F0B589B0564A05905A
:10192000904201D0052000E00220009000200746F0
:101930000790034602910E683046D84000D198E0E7
:10194000012504959D402E4000D18CE006934A6805
:10195000102010431228059C039710D108461C2123
:1019600039400F228A40069BDF08BF00E7193B6A17
:10197000934302698A401A433A62039F42680323F1
:10198000114619400798814001938340206898438D
:1019900008432060D943122A15D804989040394B47
:1019A000184210D0059CA0680840029BDB68079F86
:1019B000BB40039F0343A3601009069B98406368E4
:1019C000AB4303436360059CE068084002998B6861
:1019D000079DAB400343E360D000284C069B42D5F3
:1019E00027490868049A1043086008681040089066
:1019F0000C253D400F20A84001998B43089A2249AD
:101A00005A5882435B180920C0060599814206D0C6
:101A10001E488142009F029903D1049F01E00027E4
:101A20000299AF4017431F6023684A68D00301D56D
:101A3000334300E0B343039F23606368900301D501
:101A4000334300E0B3436360A368D00201D533435E
:101A500000E0B343A360E368900201D5334300E0A4
:101A6000B343E360069B0798801C07903F1D5B1CF7
:101A700061E709B0F0BDC04600080048000401401D
:101A8000181002400600060008000140000400484B
:101A900000690840411E88417047002A01D0182281
:101AA00000E0282281507047FA4800687047C0461D
:101AB000B0B502464120135C0220202B19D11346F9
:101AC00040331C78012C14D0242058701068026810
:101AD0000124A24302602203056895430560026861
:101AE0000A43026001682143016000201870202130
:101AF0005970B0BDB0B502464120135C0220202BC6
:101B000019D1134640331C78012C14D0242058706E
:101B1000106802680124A24302600F2212020568C5
:101B200095430902294301600168214301600020B7
:101B3000187020215970B0BDF8B501688C690A6829
:101B4000802313400122E50506D5002B04D01502A1
:101B5000466C16434664CD61650507D5002B05D05C
:101B60009502466C082737434764CD61A40507D525
:101B7000002B05D05202436C02241C434464CA610A
:101B8000416C0B22114201D001F01AF9F8BD80B569
:101B900002689169436B1268002B00D0984780BDA2
:101BA000F8B5002822D0044605464035687800285C
:101BB00004D100202870204600F0F8F82420687036
:101BC0002068026801218A4302600F2212066368BE
:101BD000934303618368184A13408360A368E668EF
:101BE000012E05D1CE033343836009E00120F8BD07
:101BF0002127BF023B438360022E01D1CB02436009
:101C000043680E4E1E434660C3681340C36022699A
:101C100063691343A26912021A43C260E269236A2C
:101C20001343036002680A430260002060642021BD
:101C300069702063A870F8BDFF7FFFFF008000027D
:101C4000F0B589B005464120285C022420283CD10B
:101C50000E9F002F36D00F98002833D016460890DC
:101C60002A464032107801282FD00493079101248E
:101C700014700692FFF718FF05900090E1031923F6
:101C80002846224601F0DAFA00281ED1109A2120B7
:101C90000699487040208870002068646F6207468B
:101CA0006863089868850892009205980190284614
:101CB00007993246049B01F0EBF9002808D00698FA
:101CC000077002E0012460026864204609B0F0BD9C
:101CD0000297059F012426066306688D000A049674
:101CE000039307D0FF222A850020009028460799F9
:101CF000334606E0688D288502990091C2B22846D5
:101D0000079901F085FA3E46089B28461946324657
:101D100001F0E2FA0028D8D12868696A0A7882625C
:101D2000688D401E6885481C6862288D411E298583
:101D3000688D0904089B1FD100281DD000968021C2
:101D400000262846324601F079FA0028BDD1688D78
:101D5000000A06D0FF222A85009628460799049B90
:101D600006E0688D28850096C2B228460799039B35
:101D700001F04EFA3E46089B688D0028C5D12846E2
:101D80001946324601F082FA0028069F9DD1286844
:101D90002021C1614268044B134043607970029C6A
:101DA0003C70BC7091E7C04600E800FEF0B587B01B
:101DB000044602A81421FEF7FBF920682B4988424B
:101DC00051D10125A8052A4F396801433960396886
:101DD000014001910695032005900495122103917D
:101DE00002900198234802A9FFF796FD6805B9689B
:101DF0000143B960204D80210091E9600026AE606A
:101E00006E601E4914312960B9682E616E61AE6141
:101E1000EE610140019101982846FFF7ABFC0028D4
:101E200001D0C046C0466C62E563154D10201349D1
:101E300029606860AE600098E8602E616E61AE61F6
:101E4000EE612846FFF796FC002801D0C046C04648
:101E50006C62A5631724002120460A4600F080F832
:101E6000204600F071F807B0F0BDC04600540040B5
:101E70001410024000140048541000201C000240BE
:101E8000981000201B48007802490A681018086062
:101E90007047C046DC13002010B5064801681022C8
:101EA0000A4302600024204600F006F800F026F8FD
:101EB000204610BD0020024070B504467D20C000C1
:101EC0000C4E3178FEF732F901460B480068FEF7F8
:101ED0002DF900F0E5FC0125032C08D8002806D1D7
:101EE0000025E84321462A4600F03AF87460284667
:101EF00070BDC04600000020A801002082B0094843
:101F000001680122114301600168114001910199AA
:101F1000110742680A4342604068084000900098F8
:101F200002B0704718100240002809D41F21084051
:101F30000121814003480160BFF34F8FBFF36F8FD2
:101F40007047C04680E100E0002805D41F2108400A
:101F500001218140014801607047C04600E100E076
:101F600080B502F08BFD80BDF0B502685423D15AD4
:101F700001242143D15213214D0100214155D65A4C
:101F800002273743D752401984600846F0BD10B588
:101F90000C0604D54907090E4018283004E0490111
:101FA00040182521C9004018002A05D003810121CD
:101FB0000173190C418102E0C380002101730020EC
:101FC00010BD80B52722120183584A018018C26BC8
:101FD000184601F02EFE80BD80B5272212018358DD
:101FE0004A0180184F2292008258184601F082FE62
:101FF00080BD0000B0B500280CD00446064D03207B
:102000006055204600F025FC204600F095FB00209E
:102010006055B0BD0120B0BD2902000010B54521BA
:10202000C900425C012A01D1022010BD44180121DF
:102030002170006802F068FB0020207010BD10B510
:1020400007220A40090609D451014118FF232A3307
:102050000024CC542523DB00C91805E051014118A8
:1020600029230124CC5428310A704522D200835CF4
:10207000012B01D1022010BD8418012222700068BA
:1020800002F0D0FA0020207010BDB0B50F220A4037
:1020900043689A4201D9012424E007220A40090634
:1020A00009D451014118FF232A330024CC5425239D
:1020B000DB00C91805E05101411829230124CC5443
:1020C000283100248C700A704522D200835C012BD9
:1020D00001D1022406E0851801222A70006802F06E
:1020E00037FB2C702046B0BD4907090E401851211E
:1020F00089004058704770B507240C40090609D480
:1021000061014118FF252A3500264E552525ED0091
:10211000491905E061014118292501264E5528314C
:102120000A61CB700C704A78002A00D0CC81022B57
:1021300001D100220A714522D200835C012B01D11A
:10214000022070BD841801222270006802F05EF93E
:102150000020207070BDB0B507240C40610141180B
:102160002525ED004C55491900240D4614351CC594
:102170004C70006802F03EFB2046B0BD70B50446CE
:1021800007250D404068854201D9012070BD080631
:1021900009D448012018FF212A3100224254252168
:1021A000C900411805E068012118292001220A54BC
:1021B00028310D70012088704522D200A35C012BCC
:1021C00001D1022070BDA6183070206802F0F6FA26
:1021D000002D05D123200001211820680020C046D1
:1021E0000020307070BDB0B507240C40610141186B
:1021F00028254C55283100240D4614351CC50122D4
:102200004A70006802F0F6FA2046B0BDF0B58BB017
:1022100004461320039020680125E9020691442119
:10222000405A00040894049500D458E12520C000C9
:10223000079020180290E8030A9020462430059069
:10224000232000012018019020684421415E0029CC
:1022500000D445E1014644310B880F251D402AD0AA
:10226000AA00865A0A9B1E4200D1C2E08218138837
:10227000F54F3B40274680241C4314806A01BC185C
:10228000079AA3184D229200A25C002A09935CD001
:102290001A789300C35AD200121889895118EB4A50
:1022A000F132134267D0E64A8F5AE6490F4072D0A6
:1022B0000399090167E00288DB0627D4E24B1A4044
:1022C0000A9B1A430280DE4A801889894018059DBE
:1022D0002979C900405ADB4908406064E16B08185D
:1022E000E063002720463946FFF76BFE2878002878
:1022F000AAD0206C0028A7D1059B18788021014323
:10230000C8B221684C2288521F709DE7069B1A4272
:1023100000D196E0CA4A121889895118029D2A787C
:10232000D20089188B88C7490B40EB61EA88019974
:1023300002F06AFB20680188C34A114080220A43E8
:102340000280204600F065FA7EE7BD4A12188989AE
:1023500051181A78D20089188F88BA490F4000D1D5
:10236000A6E097214900625A4F21890061583B46F7
:1023700002F04AFB1CE0B24A51188F88B1490F4065
:1023800009D099214900625A4F21890061583B4682
:1023900002F03AFB00E000270999089800680978E4
:1023A0008900425AA84B1A400A9BC0331343435238
:1023B000512080002158C91921504F2080002158F8
:1023C000CA192250052080012358002B04D0272051
:1023D000C0002058B84206D909980178089C2046C8
:1023E000FFF7FAFD05E009980178089C2046FFF701
:1023F000B2FE300600D427E76800400021680A5A80
:10240000914B1A400A9B1A430A528D4808185022D1
:10241000895A4018690163182821595CCA00805AFA
:10242000884A10402833D8615A6912185A619B694A
:102430002046002B02D0FFF7D6FE05E7FFF7C1FDCF
:1024400002E70A9B1A4200D1FEE602887E4B1A4040
:102450008023134303807A4A1218121D8989511868
:10246000029E3378DB00CB5A76490B40F36111D0E2
:10247000716900290ED0F28802F0C6FAF06971691C
:102480000818706100212046FFF7A6FD20686C49FE
:1024900009180A1D049D5021415A3369002B09D0A7
:1024A0003E2B0BD85C082B40E318089C9B020EE0E7
:1024B00000277DE78B5A634D2B4006E0DC065B0965
:1024C000002C089C00D15B1E9B020A9D2B438B5263
:1024D00001885E4A11405E4A51400180B4E620689E
:1024E0004421405A5649891E08420CD02068442194
:1024F000425A584B13404352204600F04BF90021FA
:10250000204600F072F920684421405A01462068B4
:102510004904254604D54421425A4F4B13404352A7
:1025200003994C014421405A01462868890404D586
:102530004421425A494B134043522C194421405ADA
:1025400001462868C9041AD54021425A04239A43F7
:102550004252425A08239A4342522078012804D119
:10256000002121700898C046C046089D284600F00A
:1025700023F928684421425A394B13404352049DA1
:102580004421405A06990842089F19D0049805032F
:1025900038684021425A08231343435202464032CE
:1025A0009388304E1E409680425A04231343435270
:1025B0004421405A2842049D02D1384600F05EF979
:1025C00038684421405A00061FD538684421425AD1
:1025D00080239A4342522178002903D0384600F0E4
:1025E0004DF912E04030018804220A43028001883C
:1025F00008220A4302802570808A80083C2101401D
:10260000616038462946C046C04638684421405A71
:10261000800508D538684421425A134B1340435271
:10262000384600F0DBF838684421405AC00505D52B
:1026300038684421425A0D4B134043520BB0F0BD51
:1026400002040000FF0300000F0F00000F3F000016
:1026500080B00000FFFB0000FFBF0000FFDF0000B4
:10266000FFEF0000FFF70000FFFD0000FFFE00008D
:10267000F0B589B000285AD004464520C00026187D
:102680007078002804D100203070204600F064F8F3
:1026900020462430089003207070206802F04EF825
:1026A00061680020C2B291420ED95301E318282577
:1026B00058552833DA8101225A7000221A615A6172
:1026C0009A61DA70401CEDE70020C2B291420DD948
:1026D0005201A2182523DB00D054D2180023136125
:1026E00053619361D3705370401CEEE7A06805906E
:1026F000E0680690256907966669A769E269236A1A
:10270000206800950196029703920493059A069B10
:1027100002F004F800250898057001200799487018
:10272000E069012804D12046FFF71EFC00E00125E6
:10273000284609B0F0BD000080B500681349884202
:1027400000D080BD0120C00511490A6882430A609B
:102750001F20FFF7E9FB80BD1CB500680B498842CC
:1027600000D01CBD0120C00509490A6802430A6067
:1027700009680140019101981F24002120460A4662
:10278000FFF7EEFB2046FFF7DFFB1CBD005C0040BF
:102790001C100240B0B504468068022801D0C04633
:1027A000C0462720050160590121017400206059AD
:1027B00001F054FBB0BD000010B50446806900284C
:1027C00006D03648016806229143016000F0AAFE57
:1027D00027200001205801F069FB10BD80B527219A
:1027E0000901405801F06CFB80BD10B54522D200B4
:1027F000835C012B01D1022010BD841802462432D3
:10280000117001222270006802F013F9002020707C
:1028100010BD80B527210901425823210901411823
:10282000104601F065FB80BDB0B504464520C000F0
:10283000215C012901D10220B0BD2518012028709A
:10284000206801F059FF206802F0CCF800202870C1
:10285000B0BDB0B504464520C000215C012901D1BE
:102860000220B0BD251801202870206801F066FF05
:10287000206802F0E5F800202870B0BD10B50446CD
:1028800027200001205801F07EFBA069002804D019
:102890000248016806220A43026010BD10ED00E004
:1028A000401E010E01D0012070470749074A5060C1
:1028B000074803680B40032189075918016000206D
:1028C0009060072111607047FFFFFF0010E000E0FB
:1028D00020ED00E0B0B53C22825C012A01D102204B
:1028E000B0BD02463C3202235370012313700068CE
:1028F00044687025AC430D682543846845609D0796
:10290000A84205D0CD4DA84202D0064DA84204D120
:102910008025AC43496821438160002010705370CA
:10292000B0BDC04600040040B0B5002814D0044635
:1029300005463C356878002804D1002028702046E0
:1029400000F00CF80220687001CC214600F046FE31
:10295000012068700020B0BD0120B0BD1CB500682A
:10296000B649884200D01CBD0120C00208490A684F
:1029700002430A6009680140019101980D24002179
:1029800020460A46FFF7ECFA2046FFF7DDFA1CBDA9
:10299000181002400068C26801210A43C2608268C0
:1029A00007231340062B02D002680A43026000206E
:1029B00070470000F8B504463C20205C012801D196
:1029C0000220F8BD25463C350220687001262E7095
:1029D00020688268304B1A4082600F6802460832D5
:1029E000002F1ED0102F1CD0202F1AD0302F18D01F
:1029F000402F1DD0502F3ED0602F23D07003874230
:102A00002AD0702F43D17733106818404B688C68F8
:102A1000C9681C43090221430143116011687720F2
:102A200027E01068702188430743072038432DE0D2
:102A3000CA68496800F01CFE226891684720084374
:102A4000302121E0CA68496800F023FE22689168BD
:102A500067200843102117E07733106818404B684F
:102A60008C68C9681C430902214301431160B1030A
:102A7000106808430AE0CA68496800F0F9FD226856
:102A800091685720084320218843083210600020B5
:102A900028706E70F8BDC0468800FFFFB0B50446D0
:102AA0008020C54320680169890717D5C168890757
:102AB00014D529467E310161012121778069800783
:102AC00003D02046C046C04605E02046C046C0466A
:102AD0002046C046C046002020772068016949078B
:102AE00018D5C168490715D529467C3101610221F5
:102AF000217780698005800F03D02046C046C046FC
:102B000005E02046C046C0462046C046C0460020DC
:102B1000207720680169090717D5C168090714D50E
:102B200029467831016104212177C069800703D0EB
:102B30002046C046C04605E02046C046C046204666
:102B4000C046C0460020207720680169C90618D514
:102B5000C168C90615D52946703101610821217760
:102B6000C0698005800F03D02046C046C04605E0FE
:102B70002046C046C0462046C046C04600202077BA
:102B800020680169C90709D0C168C90706D029466C
:102B90007F310161204600F025F8206801690906AF
:102BA00007D5C168090604D505612046C046C04660
:102BB00020680169490609D5C168490606D5294634
:102BC000403101612046C046C0462068016989063F
:102BD00007D5C168890604D5603505612046C04621
:102BE000C046B0BDF8B500681449884200D0F8BDB1
:102BF000134D288801242146814089B21148124B87
:102C0000224698472888401C81B20F2900D90D2000
:102C100028800E48FF21002632460B4FB8472888EF
:102C20000B4940180D38017808482246B8472888D3
:102C30008440A1B203483246B847F8BD002C014099
:102C40002C000020000800489B1A000800040048DF
:102C500097070020FEE7000080B5074800688069FC
:102C60004005400F03D00448FEF766FF80BD0248D0
:102C7000FEF78DFF80BDC046DC10002080B5406AA5
:102C8000816B00224A63C16B4A634121415C602928
:102C900006D10146413120220A70C046C04680BD9F
:102CA000C046C04680BD10B5CA0701D1002308E068
:102CB0004122825C28231340282B01D0F22300E01C
:102CC00042238A0701D41A4609E04122825C282463
:102CD0001440282C01D0F42200E044221A4311238E
:102CE0000B404C0701D5B8242243112B01D190236E
:102CF0001A4312231940122901D160210A430068A6
:102D000001689143016010BD00688169890701D5A0
:102D1000002181628169C90703D1816901220A43C7
:102D200082617047F8B504464120205C28210140AB
:102D300020682546403528291CD18169836982682D
:102D4000C6680096FE261F0CC903CB0FE168022956
:102D500015D1D10979404907890F1ED0009F37400E
:102D6000042120461E46FFF79EFF002028702046C3
:102D700031460EE0002129700821C161F8BD04210F
:102D800020460093FFF78FFF002028703740204631
:102D900000993A46C046C046F8BDA16C491CA164E2
:102DA000A16C0229EAD105490A400021A1642970D9
:102DB0000821C16120461946ECE7C046FF03000028
:102DC00070B504464120205C42220026A654814A68
:102DD000E2626685626C0A436264283825464035A3
:102DE000022806D803212046FFF75DFF2648282148
:102DF00009E007212046FFF756FF68786028304633
:102E000002D0202130466970266360632068026822
:102E1000016852040CD409041BD4687860282CD1B2
:102E200000202870202068702046C046C04670BD33
:102E30000122920391430160A06B002822D000215F
:102E4000297012494163FEF729FC00281AD0A06BB3
:102E500010E00121C90302688A430260E06B002888
:102E600010D00021297009494163FEF717FC0028A2
:102E700008D0E06B416B884770BD00202870204669
:102E8000C046C04670BDC046013100087D2C000818
:102E900070B50446DD48E06200252563412020220C
:102EA000225442202554656326464036480712D5F1
:102EB000606A2168496A0170606A401C6062208D06
:102EC000002808D0618D491E6185401E2085606CF8
:102ED00004210143616407212046FFF7E4FE3570B9
:102EE00020681021C1612046C046C04670BDC04662
:102EF000F8B50D4604460068076820210091C161BD
:102F000007212046FFF7CFFE0120C6032068416855
:102F10003143416041685D4A0A4042602046FFF704
:102F2000F3FE780403D4374207D0E06B00E0A06BD7
:102F3000002802D0006840686085680710D5606A84
:102F40002168496A0170606A401C60620420854300
:102F5000208D002804D0401E2085608D401E608595
:102F600027464037608D002803D0606C0421014360
:102F7000616400262663BE706663606C00280BD017
:102F8000616C2046FFF71CFF7878282820D1204666
:102F90002946FFF77DFFF8BDE06A9C4DA84209D1A4
:102FA0003E7078780099797022280ED12046C0466C
:102FB000C046F8BD204600F00FF8E5623E7000986C
:102FC00078702046C046C046F8BD2046C046C04680
:102FD000F8BDC0460000FFFF70B504464220002542
:102FE00025544120205C2646403629280CD1282033
:102FF00070702120206301212046FFF754FE3570B8
:103000002046C046C04670BD70782A280BD12820C3
:1030100070702220206302212046FFF744FE3570A5
:103020002046C046C04670BDF8B50E46044600684E
:103030008169C90601D40020F8BD154627464037EE
:10304000816989060BD4711CFAD0FEF72DFD202171
:10305000002E11D0401BB0420ED82068F0E710219E
:10306000C1612021C1612046FFF74EFE2068416802
:10307000064A0A4042600421606C084360642020D4
:10308000787000203870B8700120F8BD00E800FEAC
:10309000F0B585B003920446184800900493DAB264
:1030A00001252B06204600F0B3F80A9E0B9F204610
:1030B00031463A4600F010F900281BD102960498D8
:1030C0000128039E09D02068310A816220460299B6
:1030D0003A4600F001F900280CD12068F1B2816273
:1030E0000097802100222046029B00F0A7F80546A9
:1030F000401E8541284605B0F0BDC0460020008036
:10310000FEB504464020205CE36A012801D102207C
:10311000FEBD16460D46204640300127029007703E
:103120000E40B00605D5204629460193FFF7E0FE84
:10313000019BF00616D4700727D4300749D4B00796
:10314000029E5AD5608D00285AD02068616A0A789C
:103150008262481C6062208D401E2085608D401E6A
:1031600060854AE0608D002827D020681021C16169
:10317000606C04210143616423480342029E3CD1F8
:10318000616C2046FFF71CFE37E0608D0028029E30
:103190000CD0606A2168496A0170606A401C6062F4
:1031A000208D401E2085608D401E6085608D1749F2
:1031B0008B4222D000281DD01FE0029E7078790635
:1031C0008B420BD1282809D120462946FFF760FE03
:1031D00013E02046FFF7A6FD029E0EE070782168FE
:1031E0001022CA6109498B4207D0292805D12046FF
:1031F000FFF78AFD2046FFF7EFFE00203070FEBD8E
:1032000001480342F9D1F5E7FFFFFFFE0000FFFF91
:1032100070B5049C650D00684668AE43054D3540A9
:10322000054E0E401E4311043143214329434160A2
:1032300070BDC046009C00FCFF030000FEB51D46AB
:1032400016460F46044640300190089802902068C8
:1032500080693840C01B41424141B14214D1681CD1
:10326000F5D0FEF721FC002D03D00299401AA842A8
:10327000EDD9606C202108436064019A51700020F0
:10328000107090700120FEBD0020FEBDF8B51646FE
:103290000F4604464030009020688069800618D4AC
:1032A000204639463246FFF7BFFE0125002811D1DE
:1032B000FEF7FAFB002F02D0801BB842ECD9606CFD
:1032C000202108436064009A5170002010709070B3
:1032D00000E000252846F8BDF8B516460F4604461E
:1032E000403000902068806980071AD42046394613
:1032F0003246FFF799FE0125002813D1781CF1D042
:10330000FEF7D2FB002F02D0801BB842EAD9606CD6
:10331000202108436064009A517000201070907062
:1033200000E000252846F8BDB0B5520000239A42BF
:103330000ED0450F040F052D01D3373400E0303493
:10334000CC5401241C4300250D559B1C0001EEE7C5
:10335000B0BD000081B005490A6802430A600968EF
:1033600001400091009801B07047C046141002401F
:1033700010B5014602680079002810D0002A15D047
:103380004879204B022813D0012814D000281AD1E4
:1033900058689043586018681043186011E0194845
:1033A000016891430160416891434160002010BD74
:1033B0001868104301E0186890431860586810437B
:1033C0005860002000E00120897903290ED8C0460A
:1033D0007944097949008F4401020B0EE7E7D96867
:1033E0009143D96099681143996010BD012010BDC7
:1033F0009968914301E0996811439960D968114334
:10340000D96010BD00040140F8B500260B681C46C9
:10341000F4403AD00124B440234034D000961C46F6
:103420005C434D6826466E43032767430268BA43F0
:1034300032430260FE436A1E012A05D88A6862434D
:1034400087683740174387600A696243C768374017
:103450001743C760022D009E15D14D69FF2B08D878
:10346000644365430F226243036A93432B43036221
:1034700009E01A0A5243524355430F235343426A09
:103480009A432A434262761CC0E74A68521E012AC8
:1034900005D8C968594342689A430A4342600020EC
:1034A000F8BD0000014908607047C046A80100202F
:1034B00080B50920C00601210902FEF7E9FA0028BB
:1034C0001FD010481049002200F08AFB002801D0CC
:1034D000C046C0460B480D4900F07BFD002801D0D6
:1034E000C046C04607480A4900F0DEF9002801D06E
:1034F000C046C046034800F083FD002801D0C04606
:10350000C04680BD4C0D002008000020AC0100200A
:10351000D002002070477047704780B5FEF7B2FCBC
:1035200080BD0000B0B525490A68012002430A6049
:103530000A68D207FCD0224C21680143216021682F
:103540008907FCD5226880252A4378218A43226096
:10355000626B02436263626B9207FCD5626B2A4323
:103560008A4362630004616B01436163606B8003A3
:10357000FCD56068F0218843606007200002616824
:1035800081436160606803210143616060680C21D0
:1035900001400C29FAD10B48FFF784FF0020FEF709
:1035A0008BFC606B042188436063206B102188438F
:1035B0002063206BA8432063B0BDC04600200240BA
:1035C00000100240006CDC027047000080B5024829
:1035D000FFF764FA80BDC0469C130020B0B50568B3
:1035E00001229407A04205D01C4B984202D01C4BEC
:1035F000984204D170239D434B682B4300E02B4637
:10360000A0420ED0164CA0420BD0164CA04208D0BF
:10361000124CA04205D0144CA04202D0134CA04240
:103620001AD103242402A343CC681C4380239C4367
:103630004B69234303608B68C3620B688362074B4B
:10364000984205D0084B984202D0084B984201D1CD
:10365000096901634261B0BD1C46E7E7002C0140E7
:1036600000040040002000400048014000440140A8
:10367000B0B5036A046A0125AC4304628469F0258D
:10368000AC431201224382610A2293430B4303623B
:10369000B0BD10B5036A1024A34303620F231B03BC
:1036A00084699C4312032243036A8261A0229343EC
:1036B00009011943016210BDF8B50C4605465720B3
:1036C000C1006F58002F13D0142060432E18F069EA
:1036D000002808D06918896862018918896BFCF78D
:1036E00025FD002906D08520800000263E500BE0F5
:1036F000022609E01C363046002606602846214690
:103700003246334600F048FC3046F8BD70B50446FA
:103710005720C600A559204600F035FB83218900BB
:103720006850A05900280AD0A21969188120800089
:10373000281800685268D2689047002070BD0220A7
:1037400070BD000070B5044681210E4EB0470025C3
:10375000E56201212046B0475B2080002550822190
:103760002046B04725645720C0002158002907D0C3
:1037700024186068406880472068C046C0462560BD
:10378000002070BD213C000810B55721C900421827
:103790005368002B0BD04158012040020C182078B0
:1037A000FF2804D062789B689847FF202070002093
:1037B00010BD00000A210180004870476C02002003
:1037C0004321018000487047E4010020432101802B
:1037D00000487047280200204321018000487047BC
:1037E00078020020FEB50446007C01210F464E02FF
:1037F0000028009600D040268121029102220192E9
:10380000204633461C4DA847E76220463946019AB8
:103810003346194DA8475B208000275082210322A0
:1038200008232046A8472764029880000290183099
:1038300000F0E8FD5721CD00605187218900FCF799
:10384000B7FC6159002915D06019406800680D4621
:1038500080472A4602996818002707614761207C43
:103860000028009B084600D0402312580121204622
:1038700000F0EBFA3846FEBD333E000810B5572184
:10388000C9004258002A05D0037C0121002B03D037
:10389000402302E0022010BD4B028124A4001259F3
:1038A00000F0D3FA002010BD002904D0AF2292000E
:1038B000815000207047022070475722D200805864
:1038C000812292008150002070475723DB00C058AE
:1038D0004123DB00C150C018826000207047FEB554
:1038E0000E4605465720C0002F5802A80024047039
:1038F00001A80480A72080002918307860220240A7
:1039000011D0202A3AD1F288002A19D000061FD4FB
:1039100001204002381842707178017028463946FB
:1039200000F074F82FE070780B281AD00A281CD009
:10393000002823D10878032820D101A9022219E008
:103940007078096A8B6800243146224698471AE04D
:103950007078096A8B6839469847F2882846394654
:1039600009E0087803280ED008E00878032805D17C
:1039700002A90122284600F068F804E028463146F2
:1039800000F03AF802242046FEBD10B55721C900C8
:103990004158002908D04122D20013460C33CC589C
:1039A000002C03D0012010BD022010BD0124CC50FA
:1039B0008B189B6803638A589BB2812100F0ECFA54
:1039C000002010BD80B5AD22920082585268904709
:1039D000002080BD10B513460A460024214600F0A1
:1039E00034FA204610BD10B513460A46002421467D
:1039F00000F0D2FA204610BD10B50446802100F038
:103A0000A7FA0021204600F0A3FA10BDB0B5134676
:103A10000A46572189004350A524A40003250551D7
:103A200041184B600024214600F00FFA2046B0BD3B
:103A300010B5A521890005224250002421462246C6
:103A4000234600F002FA204610BD10B513460A4680
:103A5000A521890002244450C36103620024214649
:103A600000F09AFA204610BD10B5A5218900042265
:103A70004250002421462246234600F08DFA20467B
:103A800010BD10B50446A720800001212154201844
:103A900080694268217920469047204600F06AFA02
:103AA000204600F067F9002010BD000010B50A465E
:103AB00003A0264C214600F065F8204610BDC04604
:103AC00043444320436F6E666967000012200880FC
:103AD00000487047BC02002010B50A4603A01B4CEA
:103AE000214600F04FF8204610BDC0464344432015
:103AF000496E746572666163650000000420088089
:103B000000487047E002002010B50A4603A00F4CA1
:103B1000214600F037F8204610BDC0465374727934
:103B2000782E496E6300000010B50A4603A0074CCA
:103B3000214600F027F8204610BDC0465765624D6B
:103B40004D535F506F776572000000009C070020A6
:103B5000B0B51A200880094908688A6810180BD087
:103B60004C68074DA91C0822FFF7DEFB1235042222
:103B700020462946FFF7D8FB0148B0BDACF7FF1F30
:103B8000E4020020B0B500281CD0002304462578AC
:103B9000002D02D0641C5B1CF9E7DBB25B009B1CB0
:103BA00013800B70022203240123CC540378002BD2
:103BB00008D0D4B20B5501231343DBB2921C401C36
:103BC0000024F2E7B0BD0000032804D8C000034978
:103BD000C140C8B2704702207047C04600020102CF
:103BE00010B5002811D0A7239B00C3189C69002C96
:103BF00001D000249C61002900D05961027001218C
:103C0000197000F0C7F8002010BD022010BD80B56B
:103C10000B2292018058FEF738FAFFF7D5FF80BDDE
:103C200080B50B2292018058FEF709FAFFF7CCFF0E
:103C300080BDF8B50446A5208000271800290AD0C9
:103C4000386A42690220002A53D03B7A032B50D1B4
:103C5000204690474CE03868002814D0042812D041
:103C600002283FD1206A666AB04211D9801B2062C7
:103C700083B2204611461A46FFF7B5FE00212046C2
:103C80000A460B461BE08021204600F061F929E03E
:103C9000E56928463146FCF749FAB54212D30029B6
:103CA00010D1786885420DD20025204629462A4643
:103CB000FFF799FE7D60204629462A462B4600F0F4
:103CC000C4F80FE0386AC168002904D0387A0328A4
:103CD00001D1204688478021204600F039F920464E
:103CE000FFF7A6FE387B012802D100203873F8BD0B
:103CF0000020F8BD70B50546A520800028180029D1
:103D00000BD0026A92690224002A31D0007A03287B
:103D10002ED12846904700242AE001680024052976
:103D200014D0032924D10B2149016B181E6859684E
:103D30008E4211D9701A1860884200D3084683B2A7
:103D4000284611461A46FFF745FE11E00460284652
:103D5000214600F0FDF80BE0016A0969002904D052
:103D6000007A032801D1284688472846FFF77CFEC1
:103D7000204670BD80B50B2189014058FEF73AF905
:103D8000FFF722FF80BD80B50B2292018058FEF71D
:103D9000ABF980BDF8B50B218A011B49815027235F
:103DA0001B01C85000238B61CB610B6202230B61A6
:103DB0000824164D0D604C608B6086180846FEF78F
:103DC00057FC002801D0C046C046306800241823A4
:103DD0000F4F21462246B84730688021582322469B
:103DE000B84730688121C0232246B8473068012196
:103DF0000D022B4610332246B847306882212246F6
:103E00002B46B8472046F8BD28110020005C004032
:103E10008F1F00080B22920180584A06120D80184D
:103E2000090601D52A3002E09521490040180078A2
:103E3000704710B514460B22920180581A4623464B
:103E4000FEF759F9FFF7C0FE10BD10B50B24A40111
:103E50000059FEF780F9FFF7B7FE10BDF8B504462C
:103E60000025402629462A463346FFF7E2FF2B204D
:103E7000C000012727502018C660802120462A460E
:103E80003346FFF7D6FFA520800025502018077283
:103E90006662A76105616560416A002904D0006A15
:103EA00042680021204690470020F8BDA7218900E4
:103EB000425C042A02D1401841780170002070470A
:103EC00080B5A7218900425C032A05D14118896980
:103ED000C969002900D08847002080BD80B50B2229
:103EE00092018058FEF781FCFFF76EFE80BD000056
:103EF000F8B50446A5208600A7193D461435284686
:103F000000F053F80120A0511048205A7860397D04
:103F10001F200840022808D001280BD000280ED10D
:103F20002046294600F072F80EE02046294600F0AF
:103F300089F909E02046294600F02DFA04E08020A6
:103F40000140204600F004F80020F8BDAE02000059
:103F500080B50B2292018058FEF710F9FFF734FE6E
:103F600080BD80B50B2189014058FEF75DFCFFF74D
:103F70002BFE80BD80B50B2189014058FEF769FCFE
:103F8000FFF722FE80BDA7218900425C0423435431
:103F9000401842700020704710B50B24A40100594E
:103FA000FEF721F9FFF710FE10BD0A7802704A787B
:103FB00042708A78CB781B029A1842800A794B7932
:103FC0001B029A1882808A79C97909028918C180EE
:103FD0007047002904D0AD22920081500020704724
:103FE0000220704780B5AD2292008258002A05D089
:103FF00012689047411E8841400080BD022080BD6C
:1040000080B5FFF7AEFF002080BD00007CB50D46F7
:104010000446097860200840A72189006618002816
:104020000AD0402802D0202800D06FE0B069826812
:104030002046294690476CE06878092866D8C04633
:1040400078440079400087440411611A61203A6184
:104050004F5B3078401E022858D8E888022855D196
:10406000B068002800D1A4E00320A3E03078401E0F
:1040700002284BD8688801284BD1002003E06888CB
:10408000012846D10120B060D3E0A88800283DD1A6
:10409000E88800283AD168887F2837D83178032902
:1040A00034D0B070C5B220462946FFF717FF20462E
:1040B000FFF7DAFC002D00D1BFE00220BEE001A82E
:1040C000002101806888010A491E06291ED8C046C1
:1040D0007944097949008F44032E34191941490064
:1040E000207C71690A688EE0E88801280ED130785A
:1040F000411E02291AD20020A0602146083118E092
:1041000068884F4D2870C1B2022904D32046FFF7BA
:1041100073FC00207CBD3078032831D0022840D1C8
:10412000002900D185E00320307033E00328EDD171
:10413000211D012242E0B069217C002942D0C16AE0
:1041400041E0C0B20528E1D87844007940008744B6
:1041500002484B4E51547069426850E0207C002860
:10416000D4D1B069416B01A888474EE0207C00287B
:10417000CCD1B069016B01A888470146072026E031
:10418000002926D06068884253D0C1B22046FFF78C
:1041900019FC297861602046FFF724FF0228B5D07A
:1041A00047E02046FFF728FC29782046FFF70AFC65
:1041B000AFE70120E06021460C3102222046FFF7E4
:1041C00044FCA6E7816A01A888470146022048709E
:1041D0001CE000206060022030702046FFF7F2FBF8
:1041E00027E0706982680AE07069C26807E0706958
:1041F000026904E07069426901E070698269002A1D
:1042000000D183E7207C01A99047014601A80288DC
:10421000002A0AD0E888002807D0824200D302464C
:1042200001A802802046FFF710FCE888002800D093
:104230006FE72046FFF718FC6BE70120307068E756
:104240009A070020B0B50A4604460878602101406C
:10425000A72080002018002909D0402901D020295A
:1042600075D18069836820461146984772E02029FD
:1042700006D18069836820461146984705466AE062
:1042800011795378002B17D0012B27D0032B5ED147
:104290000078032825D15088002809D180200843C0
:1042A000802805D0D088002802D12046FFF750FE94
:1042B0002046FFF7D9FB4DE0007803281FD00228E5
:1042C00045D180200843802841D17F200840142216
:1042D0004243A318080640D5143341E00078032870
:1042E00018D0022833D18020084380282FD02046C0
:1042F000FFF72EFE80212046FFF72AFE2AE00F233B
:104300000B4080200A4614255D43631902400ED0FD
:104310009B690FE05088002500281CD1480602D078
:104320002046FFF774FC2046FFF79EFB13E02B2589
:10433000ED005B59002B0AD07F230B4014255D4311
:104340006519002A14D155229200AD1811E02046BB
:10435000FFF752FB00252846B0BD552080001B18F2
:1043600000251D60022220461946FFF76EFBF2E78A
:1043700014350843802801D1002005E02046FFF7CE
:1043800049FD0028F8D00120286002222046294655
:10439000FFF75BFBDEE7B0B50D4604460978602009
:1043A000084003D0402801D020280AD1A72080004F
:1043B00020180178491E022903D8A9880906490E48
:1043C00004D02046FFF718FB0020B0BD806982684A
:1043D0002046294690470028F6D1E8880028F3D1E6
:1043E0002046FFF741FBEFE710B50446AD20800003
:1043F000205842682179204690472046FFF7BAFDB1
:10440000002010BD004870479C090020F0B586B020
:1044100002460F78B8001318105A7D4D0540CC782D
:10442000032C03940AD800200490C0467C442479CD
:104430006400A74401060C09012006E00120049055
:1044400005E07448401C01E0032040020543A94CEC
:1044500025431D801888D54D2840384320431880B7
:10446000087B0028059347D018886B4E06406B48A0
:104470003018059B18805020145A02940124A5027C
:104480005519FF00EB190193E4430E892640009271
:10449000029A019B9E52059E009A105A3A1DAA1834
:1044A0004B8923401352D14A1346F13330881840C8
:1044B0004978002942D0BF490028049C8D4DBB4F4C
:1044C00003D030883840084330803088400605D516
:1044D000308838402B46403303433380308838409F
:1044E000084330803037308838400399012948D05C
:1044F00029462031484045E05020165A0124A002A8
:1045000010188519FF004E78002E40D0C888A043AF
:10451000E853059E30884006764AA44B05D530887E
:104520001840114640310143318030333188194001
:1045300003980128049C3ED1114364E00028049CA8
:104540006C4B9A4D04D0308828409A490143318001
:104550003088400605D5308828401946403101434F
:1045600031803088284019464031014331803088FD
:1045700010409149414031803035318829401943FC
:1045800041E0284330803188114029433BE05032DC
:1045900004233B43CE88A643EE5206263E438019B1
:1045A0000F691188002F08D03E2F10D83C407A08A0
:1045B0001219950207E0203224E00A5A154E1640DF
:1045C0004C4D803D3543059E049C784B0BE0FE0628
:1045D0007A09002E059E049C464D744B00D1521E54
:1045E0009202803D15430D52318880480246F132D7
:1045F000114204D0318819406E4A0A433280328811
:104600000240074951403180204606B0F0BDC04607
:104610008F89FFFFFF0300000F0E00008081000064
:1046200080B0FFFF70B50A789200845A80184B78EA
:104630000A7B3049002A21D0E34A1546F1352C4047
:10464000002B28D0E34BE44D002C03D004881C4001
:104650002C4304800488640605D504881C400E465B
:1046600040362643068004881C402C4304803033A7
:1046700004881C400C430480134634E0002B27D0F0
:10468000D44A1346303364062DD5048814400A46B4
:104690004032224326E0CF4B002C04D004881C403B
:1046A000CD4D254305800488640605D504881C404B
:1046B0000D4640352543058004881C400D46403595
:1046C00025430580048814400C43048030330AE0FD
:1046D000BD4B1A46F132144205D00288BD4C14403D
:1046E000BD4AA218028002881A400A4302800020B4
:1046F00070BDC046808000005821425A0123DB0370
:1047000013434352002070475821425A024B134032
:10471000435200207047C046FF7F000010B5402282
:104720000121815200218152034640339980198230
:10473000835AB04C1C438452084610BD4021425A53
:10474000024B1340435200207047C0467F40000098
:10475000B0B50A7B002A27D10A789300C25AC01844
:104760004B78002B10D052069A4B114A05D504887D
:104770001C401546203525430580C978012913D0F2
:104780003033018819400DE08F490B46F1331A424E
:1047900005D002888F4B13408F4A9A1802800288F6
:1047A0000A408A49514001800020B0BD0F0F00002F
:1047B000A080000080C0000080B0000010B54B78E1
:1047C000002B01D0084A00E0064A002B01D0084B1C
:1047D00000E07D4B09788900445A1C405440445203
:1047E000002010BD8090FFFF9080FFFF0F3F000072
:1047F0003F0F0000F0B587B00D4604460E6988698A
:10480000811B00D20021A961B04200D80646297B55
:104810006878012814D1002918D029788800225AF4
:104820005020205A201801239B02C0185206C900AC
:10483000002A31D40222114346522846083030E083
:10484000002917D000283ED028787BE0EA886969E3
:10485000B3B2204600F0FFF85020205A21182878E3
:10486000C200921C8918012292028E525B4AB03219
:10487000584950E05020205A20180123990241182D
:104880002878C200921D002E4DD03E2E51D83340C4
:104890007508EB189B0254E0062211434652284645
:1048A0000A3069690288B3B2204600F0D4F868780B
:1048B000002826D0012830D128788200A35A454903
:1048C0000B40454D23E05020205A0127B9026118C2
:1048D00008180690234650332878C500AA1C002EDD
:1048E000059139D0039304920195FD0302953E2E64
:1048F00045D835463D40710849198D020699019BFE
:1049000047E028788200A35A32490B40344D5B19A6
:10491000A352324AB032303116E0304AB0322D491B
:104920003031287810E0555A294E2E40DB03F31819
:1049300007E0F7067509002F00D16D1EAD02DB03FD
:104940002B4353522049214A8000235A0B405340A5
:104950002352002007B0F0BD0699515A1C4E314039
:10496000FF03C919069E915306210D431988059A24
:1049700051184A5B164B1A40D2194A53E2E7F10626
:1049800072090029019B00D1521E950202990D4324
:104990000699049A555206210B4303990988059AF2
:1049A00055180949094A3E2E04D837407608F619A9
:1049B000B60207E0F7067609002F00D1761EB60290
:1049C000029F3E435E53BFE70F3F000080B00000F0
:1049D000FF0300000F0F000080C000000080FFFFF9
:1049E000C08000004021425A024B13434352002032
:1049F0007047C04680BF000080B50248FDF706FC46
:104A000080BDC0462811002010B5801801229202F6
:104A100080185A08002A07D004880C70240A4C70A9
:104A2000521E891C801CF5E7DA0701D00088087047
:104A300010BD002902D14C21802242520020704733
:104A400040220121815203464033002199800323F3
:104A500083520846704710B58018012292028018D0
:104A60005A1C5208002A08D00B784C782402E3180C
:104A70000380891C521E801CF4E710BD002805D459
:104A80000322034693430C4A9A1806E00F22024081
:104A9000083A03239A43074BD2188007C00E8901B6
:104AA000C9B28140FF2383401068984308431060D7
:104AB0007047C0461CED00E000E400E098B0FDF750
:104AC000EBF9FEF72FFD0025179516951595012496
:104AD000E004F44EB047A005B0476004B047A0041E
:104AE000B0476603F0498E62A003886203460B90CC
:104AF000E003886202460C9009200A90C1060E91DC
:104B000004200D908862E9498C62022701978F6228
:104B10008862082005908862102006908862202014
:104B200007908862402008908862802009908862FF
:104B3000A00202908861E0020390886120030F9038
:104B4000886104968E618B618A6114951395129524
:104B50001194109610AFD64AD3483946164690475E
:104B600014951395129511940B981090CE483946D0
:104B7000B04714951395129511940C981090CA484B
:104B80003946B04714951395129511940D9E1096C1
:104B90000E983946C64A904714951395129511946C
:104BA0001094C2483946C24A9047149513951295FD
:104BB000119401981090BD483946BD4A904714950C
:104BC0001395129511941096B8483946B84EB047CF
:104BD000149413941295119402981090B348394686
:104BE000B047149413941295119403981090AF4801
:104BF0003946B04714941394129511940F9810905D
:104C0000AA483946B0471494139412951194049805
:104C10001090A6483946B0471494139412951194F5
:104C20000B981090A1483946B047149413941295EC
:104C300011940C9810909D483946B04714951395DF
:104C4000129511940598109098483946B0471495DC
:104C50001395129511940698109094483946B047D0
:104C60001495139512951194079810908F48394612
:104C7000B0471495139512951194089810908B488D
:104C80003946B04732461495139512951194099EF2
:104C90001096864839469047864801680F2291430E
:104CA00001600E9BD86884490840D86016A803228A
:104CB000827184801A680A401A6027021697FEF7EC
:104CC00057FBFF2000067D490A6882430A607C4842
:104CD00006607C4801682143016000682040109014
:104CE00010980A9E304629462A46FDF739F9304683
:104CF000FDF72AF90A26304629462A46FDF730F9FB
:104D00003046FDF721F95C206F4E35543466B565A9
:104D1000C1376E48B063F56335647564B4640D984B
:104D200031464C31A1C138363046FCF721FB200713
:104D300012900F981190109510AF30463946FCF73D
:104D400029FA109430463946FCF724FAFEF7B0FBF6
:104D50005F4E60484D304F215F4A32607160B560F0
:104D6000F06035617561B561139512951195304606
:104D7000FDF7DAFD0F98109010A93046FDF71AFEE6
:104D80001795169516A93046FDF7A4FD534F5448C4
:104D9000386050487860BD60FC603846103014219F
:104DA0000F91FBF705FA3846FCF7FAFE384629461C
:104DB000FCF77EFE38462946FCF79CFE3046FDF7A0
:104DC000E9FD4148047000F0F9F8284600F0E8F8E1
:104DD00000F042F91220434A29469047424E06CE3F
:104DE00042A0454F2346083EB84728460F993D4A02
:104DF000904706CE41A02346083EB84728212846C2
:104E0000384A904706CE3FA02346B84700F024F921
:104E100000200F90FBF76CFE2B4EB068FBF7DAFA20
:104E200002460B46354610352846384C214600F0E0
:104E3000A1F9F068FBF7CEFA02460B46243630465D
:104E4000214600F097F93C271421384600F000F97C
:104E5000254806C801242846234600F075F9282174
:104E6000384600F0F5F8204806C83046234600F0E2
:104E70006BF900F0F1F814484078022804D00128BA
:104E8000C6D1FEF715FB09E02148FDF7C7F8214C14
:104E90002046FFF7A9FA2046FEF7F3FD0A480F99CE
:104EA0004170B5E755330008000800480004004889
:104EB0000934000810000140FFFFFCFF04E400E09B
:104EC00000E100E01410024004030020002401402F
:104ED0009C1300200B020000002C0140DC1000207D
:104EE000005400405150000824000020537472798F
:104EF000782E494E43000000495100086261745603
:104F00003A000000636170563A00000052680008E1
:104F1000281100204C0D0020F8B50C4606460A2149
:104F20000091FBF703F91148405C114DA87064270C
:104F300030463946FBF7FAF80C49095C29704743BB
:104F4000F01BC0B20099FBF7F1F80849085C6870E3
:104F50000020032809D02146C140C90703D0295C9D
:104F600080220A432A54401CF3E7F8BD4268000837
:104F70009707002010B543B2002B10D43F290ED85C
:104F800007240C400123A340C908C901081841495E
:104F90000C5C012A01D11C4300E09C430C5410BD61
:104FA000002801D00020C04301218902394A00298C
:104FB00003D01070521C491EF9E77047F8B5642001
:104FC000FCF798FCAE20344FB84720252846B84758
:104FD00010263046B847B020B847C820B84700244C
:104FE0002046B8473046B8474020B8478120B847E8
:104FF000FF20B847A120B847A620B847A820B84747
:105000003F20B847A420B847D320B8472046B84728
:10501000D520B847F020B847D920B8472220B84754
:10502000DA20B8471220B847DB20B8472846B847EF
:105030008D20B8471420B847AF20B8472046FFF767
:10504000AFFF00F009F83748448004800120F8BD24
:10505000344A518010807047FEB500250D4E0E4F2A
:10506000384C082D15D028465038C0B2B84700201B
:10507000B8471020B8476420802100960191029023
:105080007821402201232046FCF7DAFD80366D1C92
:10509000E7E7FEBD9703002029510008F0B587B06F
:1050A0000593049203461F4C2088CAB20692121838
:1050B00000207F2A33D86288090ACCB2A1183F2980
:1050C0002DD80598464246410193203B6343029305
:1050D00000250394A5421CD002982818400004998A
:1050E0000F5A00240698A04210D03846A040000471
:1050F000324600D5059A0B4908882018C0B2498865
:105100006918C9B2FFF736FF641CEBE76D1C039CFE
:10511000E0E704490888069A80180880019807B0DB
:10512000F0BDC04600030020F8B503A908700A20AE
:105130000123009101930290024878210022FCF79C
:105140007FFD8FBDDC100020F8B51C4615460E46CD
:105150000746387800280BD031462A462346FFF709
:105160009DFF01467A1C387881421746F1D0F8BD80
:105170000020F8BD0FB410B504A9074B02AA03988C
:1051800000F0ECF8044602A9002000F083FC204661
:1051900010BC08BC04B01847955A00082021020C26
:1051A00001D010211046020A01D010460839020928
:1051B00001D01046091F820801D01046891E4208FE
:1051C00001D0881E7047081A704702E008C8121FF5
:1051D00008C1002AFAD170477047002001E001C1E0
:1051E000121F002AFBD17047F0B51FB486B0099892
:1051F000089A030D0021024314D05148514A18184F
:10520000504305141198012810981AD0281A401CF0
:1052100000264D4F4D49009601910490002812DA66
:10522000444211E01198012449A3012801D11098AA
:10523000C1430698119A84600360C26041600BB05C
:10524000F0BD4042E4E70446210500203F4A001C2F
:1052500051410391029012E0E00707D032463B46ED
:1052600001990098FAF7F4FF0191009032463B460D
:1052700010461946FAF7ECFF06460F466410002C5C
:10528000EAD10498039B0028029A0999089806DA43
:10529000FAF7DEFF019B009AFAF7DAFF05E0FBF769
:1052A0002FFA019B009AFBF72BFA04460E460022C8
:1052B000284BFBF7BDFA03D80020C043014607E0A6
:1052C0000022254B20463146FBF768F9FBF790FAA0
:1052D000102409E0002C0ADB0A220023FBF78EF8D9
:1052E000079B30321A55641E02460A43F2D111223E
:1052F000641C079B121B1C19119B012B03D001235B
:1053000008430ED10AE0084304D011201090002079
:10531000119077E71098151A6D1E0BE010988242D5
:1053200002DD00236D1C03E0824201DA00236D1EC2
:10533000002BEED0069811998260C16030C07EE7E4
:1053400001FCFFFF104D0000000014400000F03F82
:10535000300000000000F0430000E03FFFB597B0D0
:105360000646002518E2252877D100242746FD4966
:10537000049400E00443761C32780120203A9040E7
:105380000842F7D130782A280ED002223078014620
:105390003039092916D804990A235943303940185D
:1053A0001443761C0490F1E7189802C804911890F1
:1053B000002904DA012040030443484204900220FB
:1053C0000443761C30782E2814D1042004437078CE
:1053D000761C2A2809D11898761C80C8189009E0F4
:1053E0000A214F43303FC719761C307801463039C7
:1053F0000929F5D930786C2810D006DC4C281AD051
:1054000068280ED06A2817D104E0742813D07A28AF
:1054100012D110E00120400504430CE001210905F0
:1054200001E0032109050C437178814203D1012079
:1054300000052418761C761C3078119066280BD055
:1054400013DC58287DD009DC00287BD04528F6D015
:105450004628F4D047281AD1A5E118E0632835D0B2
:10546000642870D0652812D19DE170286CD008DCCA
:105470006728F1D069287BD06E280DD06F2806D11F
:10548000BAE073282ED0752871D0782859D01A9A8E
:10549000199990476D1C7EE16002400F022809D0E7
:1054A00003280DD00428189801680DD00D60001D48
:1054B000189070E11898EA1701680D604A60F6E7E5
:1054C000189801680D80F2E70D70F0E718986A46A9
:1054D00001781172001D18900020507202A80090EF
:1054E000012005E0189802C8189000200091C043E0
:1054F00061070DD5002101E00199491C0191B942D4
:1055000012DA8142F8DB009A515C0029F4D10BE0F9
:10551000002101E00199491C01918142FADB019AC5
:105520000099895C0029F5D1019904981A9B471AC2
:1055300021463846199A00F097FA01994019451802
:105540000BE04FE02CE113E04EE00098009900786A
:10555000491C00911A9A199990470198401E019090
:10556000401CF2D1214638461A9B199A10E137E0C7
:105570000A200021009001916002410F022907D00A
:10558000189A01CA1892C2179446032908D00AE053
:105590001898C01DC108C90005C91891944607E0B4
:1055A00000B2C2179446042902D140B2C1178C46FA
:1055B00000226146944506DA0A46002140429141A4
:1055C0008C462D2102E0210504D52B216A4611735A
:1055D000012103E0E10701D02021F7E7029155E026
:1055E0000A200AE0102008E010200090002104208A
:1055F00004430191082703E0082000210191009055
:105600006002410F022907D0189A01CA189200229D
:105610009446032908D008E01898C01DC108C900A5
:1056200005C91891944603E080B2042900D1C0B2A4
:1056300000210291210729D51199702906D0009ADD
:105640001021019B4A401A4305D00EE040216A46D2
:105650001173012108E06146014306D030216A46FA
:1056600011731199517302210291009A0821019B33
:105670004A401A430AD16146014301D1610705D569
:1056800030216A46117301217F1E02911199582918
:1056900004D035A10E910DA90D910DE037A1F9E7C8
:1056A0006146019B009AFAF7A9FE0E9B8C469B5C13
:1056B0000D9A521E0D92137061460143F0D10D9860
:1056C00005A9081A20300190600703D501200004C5
:1056D000844300E001270198874201DD381A00E089
:1056E0000020019900904118029809180498401A66
:1056F0000490E00306D421461A9B199A049800F0FE
:10570000B3F94519002706E003A81A9AC05D199954
:1057100090476D1C7F1C02988742F5DBE0030CD597
:1057200021461A9B199A049800F09EF9451904E045
:105730001A9A3020199990476D1C0099481E0090C4
:105740000029F5DC08E00D980D990078491C0D91B1
:105750001A9A199990476D1C0199481E01900029C9
:10576000F1DC63E10928010030313233343536375A
:10577000383961626364656600000000303132339D
:10578000343536373839414243444546000000003D
:1057900000F05AF94519761C3078002800D0E2E56F
:1057A00028461BB0F0BD600700D406271898C01D1E
:1057B000C108C90048680A680831C30FDB0718919F
:1057C000190001D09CA108E0210501D59BA104E0AE
:1057D000E10701D09AA100E09AA1430011985B086B
:1057E000109165280CD006DC452809D046281DD02C
:1057F000472841D141E0662818D067283CD13CE0D9
:105800000021112F01DB112000E0781C0191009094
:1058100008A911A8FFF7E8FC139905910021119A36
:1058200015927F1C12980197009150E00120C0074B
:1058300003900120019008A9009711A8FFF7D4FC5C
:10584000139A149905920022119B009212981593B5
:10585000059A0192002901D0104602E0791C4018F7
:105860000190381A01D5019804E04042401E009092
:10587000781C0190C01B029043E0012F00DA012741
:105880000021112F01DD112000E038460191009028
:1058900008A911A8FFF7A8FC13990591119A0021F6
:1058A000129815920091019721070CD40599B942DD
:1058B00001DB019900E00191012904DD159A491EDF
:1058C000515C302906D0B84201DA011D05DA012108
:1058D000029115E00199491EEDE7002805DC0099C9
:1058E000411800910199091A03E0019A411C914263
:1058F00000DD01910099401A401C02900120C00770
:105900000390200706D402990198814202DB00200F
:10591000C043029000206946C87707AF0121039871
:105920000337C907884224D0022011902B201290FF
:10593000039800280CDA404203902D20129007E0D3
:105940000A210398FAF7F2FB30317F1E0390397079
:105950001199481E11900029F2DC03980028EFD11C
:10596000791E129808703078202108404530BF1EFB
:10597000387006A8C01BC01D03901098007800283E
:1059800000D00120019941180298C0170918039806
:1059900009180498401A401E0490E00306D42146DA
:1059A0001A9B199A049800F05FF84519109800782E
:1059B000002803D01A9A199990476D1CE00324D54A
:1059C00021461A9B199A049800F04EF845191CE0DC
:1059D0000098002807DB00990598884203DD159898
:1059E000405C199901E0199930201A9A9047009863
:1059F0006D1C401C00900298401E0290002804D1AB
:105A00001A9A2E20199990476D1C0199481E0190F1
:105A10000029DDDC05E038781A9A7F1C1999904737
:105A20006D1C0399481E03900029F4DC21461A9B43
:105A3000199A0498ACE600002D0000002B0000002D
:105A40002000000000000000F8B5044600251E46B6
:105A50001746880404D405E039462020B0476D1C61
:105A6000641EF9D52846F8BDFFB50446002581B06F
:105A70001E46C80301D5302700E02027880404D53E
:105A800005E038460399B0476D1C641EF9D52846D9
:105A900005B0F0BD0A68531C0B6010707047000021
:105AA00000000000000000000000000000000000F6
:105AB00000000000000000000000000000000000E6
:105AC00000000000000C000C000C000C000C000C8E
:105AD000000C000C000C000C000C0000000C000C72
