:020000040800F2
:10000000C0130020D5000008F5350008E72C0008D3
:1000100000000000000000000000000000000000E0
:10002000000000000000000000000000B9360008D9
:100030000000000000000000F7350008BB36000893
:100040000501000805010008050100080501000878
:100050000501000805010008050100087D0D0008E4
:1000600005010008450D000805010008050100080C
:10007000390600086D370008050100080501000871
:100080000501000800000000000000000501000854
:10009000000000000501000805010008E92C000827
:1000A0000000000005010008050100080501000826
:1000B000050100080000000005010008654E000869
:1000C0000348854600F06AFA00480047314F0008AF
:1000D000C01300200C4880F308880C480168090E02
:1000E0000B4A914205D10B480B4901600B480C4962
:1000F00001600C4880470C480047FEE7FEE7FEE73A
:10010000FEE7FEE7FEE70000C01300200400000049
:100110001F00000018100240010000000000014014
:100120000000000069370008C100000810B5202A4F
:1001300004DB0846203AD040002110BD0B46D340D6
:10014000D0402024A21A91400843194610BD03460E
:100150000B439B0703D009E008C9121F08C0042AFB
:10016000FAD203E00B780370401C491C521EF9D2EE
:100170007047D2B201E00270401C491EFBD27047AA
:100180000022F6E710B513460A4604461946FFF763
:10019000F0FF204610BD421C0178401C0029FBD115
:1001A000801A7047024670B54A40D30FDB07400003
:1001B0002DD04A002AD0010E140E00021202091995
:1001C000400A520A8418E50104465443000A120A00
:1001D0002E045043A4194219200CC543AA18120C2E
:1001E0000125AD03521C521912047F39240400D09A
:1001F000521C104301D44000491EC2B20C06C00973
:100200002018401C4008802A02D003E0002070BD66
:1002100040084000002900DA0020184370BD0000AB
:10022000F0B51FB488B00B9909980024484009998B
:10023000C00F490049080991C0070B990090490077
:1002400049080B9109990898A64608431CD00B99B8
:100250000A98084318D0099801244000420D48002C
:10026000410D099824050003000B204309900B98C9
:100270000003000B20430B9050181C49401800222B
:1002800001901446104605E0002001460DB0F0BD77
:10029000032801DA034600E003239C46C11A0AAE94
:1002A0000AE05F0008ADED5B4F00F75B7D43002780
:1002B000AA187C41491C5B1E6145F2DD410004AB7C
:1002C0005A522104120C0A43240C401C0828DFDB7C
:1002D000019802900099704601910090059B049A44
:1002E0000799069800F008F9D0E700000DFCFFFF21
:1002F00010B5002904DB0C460121C9074042A14189
:10030000002B04DB1C460123DB075242A341101AD9
:100310008B4101D3012010BD002010BD10B500227B
:100320009623114600F0A2F810BDC20F4100400212
:100330000123400ADB05D207090EC0187F2901DA24
:1003400000207047962903DC9623591AC84001E023
:1003500096398840002AF4D04042704770B5CD0FDE
:100360004A0009030123090B1B0519430B4BED0739
:100370000024520D9A4201DA002070BD074B34333D
:100380009A4203DC9A1AFFF7D1FE02E004495118A1
:1003900088402C43F1D0404270BD0000FF030000B4
:1003A000CDFBFFFFC20FD207400040080BD0C10DAC
:1003B0000723DB01C91840020905400A1143C2089E
:1003C00040071143704700200146704770B504464E
:1003D000002903D000202022012310E0002801D0B2
:1003E0000020C043C046C0460DE02546D5408D42A2
:1003F00005D30D469540641B1D4695404019154692
:10040000521E002DF1DC214670BD000070B50025A4
:1004100004462E46002911D0002C01DA0125444261
:10042000002901DA012649422046FFF7CFFFB542F5
:1004300000D04042002D00D0494270BD002C02DAAD
:100440000121C90702E0002C00DD03490846C0462F
:10045000C046214670BD0000FFFFFF7F002904DA7F
:10046000401C490001D140084000704770B400248E
:10047000050C05D11024000402D1002921D011243B
:10048000050E01D100020834050F01D10001241D21
:10049000850F01D18000A41C002801DB4000641CF2
:1004A000002908D020252E1B0D46F540A14000D084
:1004B00001212943084301061B1B000ADB1D02D54D
:1004C000002070BC7047DB05181880180029F8DA86
:1004D000401C4900F5D170BC40084000704710B581
:1004E000002B08DA0024401C614192185B411A433A
:1004F00001D14008400010BDF0B51FB482B00546E0
:100500000C0003D0084605F0AFF802E005F0ACF8A7
:100510002030024600902146284600F051F8049B06
:10052000059A04460F4618431143084314D0184651
:1005300010431BD0009840210A1A18460599FFF76E
:10054000F5FD05460E46009A0599049800F038F826
:10055000084305D0012004E02046394607B0F0BD2D
:100560000020C11705430E432C43374300990E98D2
:100570006305401A7905E40A00220C43FD0A0A309B
:1005800002D500200146E9E70105101969410C9CDC
:100590000D9D00196941FFF7A2FFDFE7064C012519
:1005A000064E05E0E36807CC2B430C3C984710341B
:1005B000B442F7D3FFF788FDE86600080867000833
:1005C00010B5202A04DB0146203A9140002010BDDE
:1005D000914020239C1A0346E3401943904010BDEC
:1005E00070B58C180578401C6B075B0F01D1037840
:1005F000401C2A1106D10278401C03E006780E70D8
:10060000401C491C5B1EF9D12B0705D40023521E48
:100610000DD40B70491CFAE70378401CCB1A921CCE
:1006200003E01D780D70491C5B1C521EF9D5A142D8
:10063000D8D3002070BD000080B5974800F043FC7F
:1006400080BDC04670B50446006881680025490732
:100650001DD58168490706D58168890703D481685B
:1006600010220A43826001F0D7F8064620688068AD
:1006700040070CD501F0D0F8801B0328F6D3606C3E
:10068000102101436164A06C01252843A064284621
:1006900070BD80B50146806A426C50231A4204D076
:1006A000C06B426B0846904780BD01214A02436CF3
:1006B000134343640268D3681B059B0F1AD1036A76
:1006C000002B17D113681B0714D593685B070AD456
:1006D00051680C2399435160FF210231426C8A43D7
:1006E000511C416406E0426C202313434364826C36
:1006F0000A43826400F0E4FB80BD80B5806A416CEF
:1007000040220A434264816C04220A43826400F05E
:10071000D9FB80BD80B5806A00F0D3FB80BD70B589
:1007200004460068826803210A400025012A23D17B
:100730000268D20702D1C26812041DD5826805235F
:100740001340012B10D182680223134383600160A0
:1007500001F062F8064620688068C0070CD001F0FE
:100760005BF8801B0328F6D3606C102101436164A1
:10077000A06C01252843A064284670BDF8B5044646
:10078000002700970068816803220A40012A05D1EA
:100790000168C90731D1C16809042ED48168184A9B
:1007A000114206D0606C102101436164A06C0125E8
:1007B00020E08168012529438160124800681249C0
:1007C000FFF704FE00900098002802D00098401E19
:1007D000F8E701F021F8064620680068C0070CD150
:1007E00001F01AF8801B0328F6D3606C1021014336
:1007F0006164A06C2843A06400E03D462846F8BD33
:10080000170000809C01002040420F00F8B5214FE6
:10081000B91C214802252A4600F0B0FC7D20C40006
:100820001E4E002D06D000213046224600F092FEDA
:100830006D1EF6E7184800F0E7FC7888FFF76EFDBC
:100840001749FFF7AFFCB860B888FFF767FD154997
:10085000FFF7A8FCF860FFF7A5FD134A134BFFF75D
:1008600047FD0246401E82410920C006042100F0D7
:10087000CCFFF868FFF796FD00220D4BFFF7D0FC88
:10088000FFF76CFD012104F0ABFD204600F0E0FE17
:10089000F8BDC046FC020020700D0020BC0D0020F9
:1008A00066666E3B66661E3B333333333333154027
:1008B0000000594080B5212804D0202808D10548DF
:1008C000072203E0034B072208461946FFF73FFCC7
:1008D000002080BD0800002000207047B0B5E34C28
:1008E0000649002520462A4603F0B7F8E1490C31B5
:1008F000204603F0AAF82846B0BDC0461C0A0020D6
:10090000F0B585B00746D94C2046394603F09DF82E
:10091000204603F07BF802F06FFE0126F0030390FF
:10092000387801465139D24D08290CD90146713920
:10093000082929D87944097949008F440E3FB554D4
:10094000B5B569B57E00C0467944097949008F4440
:100950000435AB4AABAB5FAB7400C6488079462820
:100960006FD1C548C5493C468CC88CC12746007824
:100970000870C248FFF70FFC81B2C04800F0CAF906
:100980000022284603998CE0452802D0652800D033
:100990008AE0B848007A462853D1B748B7493C4660
:1009A0008CC88CC1274600780870B448FFF7F3FB69
:1009B00081B2B24800F0AEF9710370E0AD48407A00
:1009C00046283ED1AC48AD493C468CC88CC1274630
:1009D00000780870A948FFF7DEFB81B2A74800F055
:1009E00099F931035BE0A348807A462829D1A248CF
:1009F000A2493C468CC88CC12746007808709F48A5
:100A0000FFF7C9FB81B29D4800F084F9F10246E08E
:100A10009848C079462814D1974898493C468CC8D4
:100A20008CC12746007808709448FFF7B4FB81B268
:100A3000924800F06FF9B10331E08E48C07A462841
:100A40001DD04F280DD18E488C493C468CC88CC196
:100A50002746008808808948FFF79DFB81B28748B8
:100A60000AE0864C874916222046FFF770FB204695
:100A7000FFF791FB81B2204600F04CF913E07E486D
:100A80007E493C468CC88CC12746007808707B485C
:100A9000FFF781FB81B2794800F03CF9B1020022F6
:100AA000284600F0B2FE38783C4643280ED058283D
:100AB00009D0754F5A280CD0632807D07A2803999B
:100AC00026D0782807D1B10373A721E071036FA75F
:100AD0001EE003991CE042388101C0B28008401832
:100AE000C1B20D2927461CD830468840FF2102316B
:100AF000084208D16C49084208D16C49084210D01C
:100B00003103684F04E0F1026CA701E0B10268A76D
:100B10000122284600F079FE0B21384600F0FAF851
:100B2000274638782022014604921143612935D1A5
:100B3000504CA0794F2804D000222846039900F099
:100B400064FEE0794F2804D0B1030022284600F06B
:100B50005CFE207A4F2804D071030022284600F062
:100B600054FE607A4F2804D031030022284600F05A
:100B70004CFEA07A4F2804D0F1020022284600F053
:100B800044FEE07A4F2804D0B1020022284600F04B
:100B90003CFE4DA00D2100F0BDF838780146049EC2
:100BA000314373290AD14CA00E2100F0B3F83F2045
:100BB00081020122284600F028FE387801463143A0
:100BC0006D2908D1484C2046FFF7E5FA81B220464E
:100BD00000F0A0F83878014631436B2934D14348FE
:100BE000046843492046FFF7DDFAFFF79EFB0397B1
:100BF00064273946FFF70AFC02912046FFF795FB70
:100C000004463C4806683046FFF78FFB05463046F1
:100C1000049E3749FFF7C6FAFFF787FB3946FFF70F
:100C2000F5FB0B46009402980190144C32A120462B
:100C30002A4604F005FD2046FFF7ADFA81B22046B2
:100C400000F068F803980078304370280AD100203B
:100C500002F006FD094C2046FFF79DFA81B22046BE
:100C600000F058F8002005B0F0BDC046AC0A0020E6
:100C7000000400486C030020B06600085C0A0020F5
:100C8000D8660008C06600089766000850573320F1
:100C90003A204F46460D0A00505732203A204F4620
:100CA000460D0A00A3660008080800002020000086
:100CB000505736203A204F46460D0A0050573520EF
:100CC0003A204F46460D0A00505720414C4C203ADE
:100CD000204F4E0D0A000000505720414C4C203A46
:100CE000204F46460D0A0000360000200803002071
:100CF0000000C842040300202376696E2C25642E70
:100D000025640D0A237663616D2C25642E25640D00
:100D10000A0D0A0010B50A4601465720C000084BCC
:100D2000185885239B00C058002801D0012010BD11
:100D3000034C204602F091FE204602F0EEFE10BD6C
:100D4000AC0A002080B5024800F089FB80BDC04697
:100D5000BC0D002070B5046C456C0126AE40666089
:100D60000468636040681028134600D00B46A360F7
:100D7000102800D01146E16070BD000010B50C488D
:100D80000168C90512D501242102016009480078D3
:100D900000280BD00920C00600F032FD012802D146
:100DA0000548047010BD04480221017010BDC04602
:100DB00014040140FC020020FD02002070470000E6
:100DC000FEB5044600250295006C012801D10220E1
:100DD000FEBD012020642668B268520713D484C97E
:100DE0000120019090402F4B08399F4210D1B16AE9
:100DF0008143B16210461038022828463ED8112A95
:100E000017D02D4816E0616C20220A43626435E059
:100E1000B36A0343B362A06B431E072B30D2104664
:100E200010380228284629D8112A0CD00199080622
:100E30000BE02048102A00D120481B490A680240D4
:100E40000A6028461AE001998805102A00D1C805D1
:100E500015490B6803430B60102A28460ED113482E
:100E600000681349FFF7B2FA0A2141430291029840
:100E70000028E6D00298401E0290F8E72564FEBDE7
:100E8000019B1B079842CAD07369072003408968F9
:100E90009942C4D073698343736101407069084308
:100EA0007061BCE701100000082701409C01002090
:100EB00040420F00FFFFBFFFFFFFFFFEFFFF7FFF6E
:100EC00070477047704710B50446006801684907CD
:100ED00002D54168490705D40168090730D5416842
:100EE00009072DD5616CC90604D401214902626C41
:100EF0000A436264C1680905890F1BD1216A002970
:100F000018D10168090715D5816849070AD44168D5
:100F10000C2291434160FF200230616C8143481CE8
:100F2000606407E0606C202101436164A06C0121D2
:100F30000143A1642046FFF7C3FF20680C21016034
:100F4000016809060DD5416809060AD5012000048B
:100F5000616C01436164204600F0BEF82068802186
:100F600001600168C90614D54168C90611D5616BD5
:100F7000012902D0C168C90709D0A16C02220A4325
:100F8000A264102101602046FFF79CFF2068102119
:100F9000016010BDF8B5002860D004460546443510
:100FA000406C002805D100202064A064204600F099
:100FB00095F82868C0064BD420688168490747D453
:100FC000812149002A688A43911C29608268032193
:100FD0000A40012A05D10268D2070ED1C268120464
:100FE0000BD4C26818239A43A3681343C3608907CC
:100FF00002698A43616811430161C168344A0A4049
:10100000C260616B491E4A1E91410903A2699203A5
:10101000E369DB031343226A56031E43E36827692F
:1010200033430B43B91E4E424E41B6001E43216B63
:1010300049003143636A012B15D1002A10D0626C3C
:10104000202313436364A26C01231343A3640AE0C7
:1010500028681021014301202960F8BD0120F8BD56
:10106000012212041143A26AFF23C2339A4202D022
:101070000A43E16A1143C2680A43C260A26B531E6D
:10108000072B20D243690726B343436132404369AB
:1010900013434361C0680F4A02408A4207D10020CF
:1010A000A064626C0121114302229143D4E7606C79
:1010B00010210143022081436164A16C012001439E
:1010C00048342546C8E701231B079A42DAD0E1E7F6
:1010D0001902FEFFE7FF3F8370470000F0B587B0BD
:1010E000044602A81421FFF74BF8206820498842E3
:1010F0003BD101267002B9494A6802434A604A68F6
:1011000002400192019870040A6802430A6009686B
:101110000140019100270497032003900290019859
:101120000920C00602A900F0A5FA124D2020B10244
:1011300032028023104EC0C52F606B60AA60E96048
:1011400028616F61083D284600F0CEF9002801D0E3
:10115000FFF734FEAC62E5630C24002120460A460A
:1011600000F07CFD204600F06DFD07B0F0BDC046EC
:1011700000240140BC0D002008000240F8B50E46D6
:101180000446016888680227400732D4206C012891
:101190002FD0154601272764E069012805D0204695
:1011A000FFF7ECFA002824D12168606C124B034051
:1011B00001221002181860640027A7641C20086030
:1011C0004868102303434B602764E06B0D4BC362F8
:1011D0000B4B0363094B4363CB681343CB60403134
:1011E00032462B4600F006FA2068816804220A4342
:1011F00082603846F8BDC046FEF0FFFFFB060008DF
:101200001507000893060008B0B50446006C0128D5
:1012100001D102252FE0012525642046FFF712FAAF
:10122000002826D12068C16801229143C160E06B8B
:10123000416A0025022908D100F0D4F8002804D022
:10124000616C40220A4362640546206841681022AE
:10125000914341602046FFF762FA002D09D1002832
:10126000054606D1FF200230616C8143481C606452
:101270000025002020642846B0BD70B5002818D095
:101280000446006B002802D1204600F077F8206861
:10129000016802229143016000F0BEFA0546206811
:1012A0004168890707D500F0B7FA401B0B28F6D331
:1012B00011E0012070BD016801263143016000F09A
:1012C000ABFA054620684168C9070BD100F0A4FAC3
:1012D000401B0B28F6D301204104626B0A43626372
:1012E000052648E0A169491E4A424A41D1010268E7
:1012F00080239A4351180160E169491E4A424A41DC
:101300009101026840239A4351180160216A491EE5
:101310004A424A415101026820239A435118016010
:10132000616A491E4A1E91410901026810239A43CD
:1013300051180160A16A491E4A424A41D10002681F
:1013400008239A4351180160E16A491E4A424A4102
:101350009100026804239A4351180160A168E26871
:101360000A432169114362690A436168491E1143B6
:10137000C16100206063266370BD000010B586B0B7
:10138000044601A81421FEF7FBFE2068124988429A
:101390001FD101204106114A93680B439360936863
:1013A0000B4000930099800411680143116011689B
:1013B000014000910420059000200390022002903B
:1013C00003200490000201900098054801A900F054
:1013D00051F906B010BDC046006400401410024030
:1013E0000004004810B5416A022910D101680A685A
:1013F0000E239A430A600A6801239A430A60016C2B
:10140000426C1C4694404C604362002102E004217F
:10141000C163012100220262084610BD10B5416A75
:10142000022915D101680A680E239A430A600A68E6
:1014300001239A430A60016C426C1C4694404C6044
:10144000002404624362816B002904D0884702E0D3
:101450000421C1630124204610BD406A7047F8B5DD
:10146000016C436C04273D469D4000910E68026864
:101470001468354201D0610719D402259D403542D8
:1014800001D0A1071DD4DE4031072BD5210729D576
:1014900011680E24A143116001210A469A40009B65
:1014A0005A60C163002202624162416B17E0116819
:1014B000890602D41168B943116000994D60016B2F
:1014C0000DE01168890605D411680A23994311605B
:1014D000012141620021016200994D60C16A002929
:1014E00000D08847F8BD0000FEB5002828D004468B
:1014F00002206062E2CC236860680090A0680190DE
:10150000E06802900868104A02402A4332433A4396
:101510001A430098024301980243029802430A606A
:101520000025E5620948206325610948103C081838
:101530001421FEF74BFF800060640120606200E030
:1015400001252846FEBDC0460FC0FFFF0000024037
:10155000F8FFFDBFF8B50446406A022809D12068AB
:10156000006880060BD41646002900910BD0042594
:101570000AE0002020620420E0630120F8BD012081
:101580000102E163F8BD0225606C854000F044F97A
:101590000746216C0868284213D1626C0868D04065
:1015A000000716D4701CF4D0002E04D000F034F9DB
:1015B000C01BB042EDD92020E06300202062012052
:1015C0000EE0606C009A002A0CD0042282404A602F
:1015D0000DE00120034693404B60E063002121624F
:1015E0006062F8BD022282404A60012060620020F1
:1015F0002062F8BDF8B50546006A0224012824D00F
:1016000001262E62686A012812D102206862002435
:10161000EC6328680768B74307602846FFF79AFB22
:10162000286801682A6B002A05D00E22114308E0C1
:101630000020286209E00A221143016001680422A7
:10164000914301600168314301602046F8BD00000C
:10165000B0B5044600F0E0F80546601C02D004482E
:101660004068041900F0D8F8401BA042FAD3B0BD7E
:1016700000000020F0B589B003915B4907908842D3
:1016800001D0052000E002200090002406942646A8
:10169000039D28680146F14000D1A2E00123059393
:1016A000B340184000D196E0019004946C68122C6D
:1016B00065D8059DA5404F490D4260D00327069A85
:1016C00097400296079EB568BD430398C168914054
:1016D0002943B1602109029A914075689D430D43E9
:1016E0007560029EFF437300079AD1683940856890
:1016F0009D400D43D56010212143122910D11C219A
:10170000049C21400F248C40F508AD00079A551920
:101710000246286AA04314698C4004432C62546832
:10172000079A106838400327214639409940014301
:101730001160E000039D049C019A4CD52C49086877
:10174000059B184308600868184008900C23234044
:101750000F2098403146B943089C274D4C5984438B
:101760004F190920C006079981420FD023480799D5
:101770008142009D03981D490BD1059D09E003237B
:1017800006998B40DF430B460398ADE7002503988D
:1017900016499D4025433D600C684368D80301D538
:1017A000144300E094430C604C68980301D5144343
:1017B00000E094434C608C68D80201D5144300E0EB
:1017C00094438C60CC68980201D5144300E09443A4
:1017D000039DCC60049C241D0699891C0691761CEF
:1017E00057E709B0F0BDC0460008004800040140BA
:1017F00018100240060006000800014000040048DE
:1018000000690840411E88417047002A01D0182213
:1018100000E0282281507047DD4800687047C046CC
:10182000B0B5436C0222202B17D1036C012B14D0CE
:1018300024224264026813680124A3431360230333
:1018400015689D43156013680B43136011682143AD
:10185000116000220264202141641046B0BDB0B581
:10186000436C0222202B17D1036C012B14D02422AD
:101870004264026813680124A34313600F231B0210
:1018800015689D43090229431160116821431160C5
:1018900000220264202141641046B0BD70477047A9
:1018A000F8B5012201688C690B68E50506D51D06AF
:1018B00004D51502C66C1643C664CD61650507D50F
:1018C0001D0605D59502C66C08273743C764CD6150
:1018D000A40507D51B0605D55202C36C02241C4380
:1018E000C464CA61C16C0B22114201D001F0A6FA96
:1018F000F8BD80B502689169436B1268002B00D077
:10190000984780BD7047000070B5002820D004467D
:10191000406C002804D100202064204600F0F4F838
:10192000242060642068026801218A4302600F223B
:1019300012066368934303618368184A1340836007
:10194000A368E568012D05D1CD032B43836009E031
:10195000012070BD2126B60233438360022D01D1E0
:10196000CB02436043680E4D1D434560C36813407E
:10197000C360226963691343A26912021A43C260F9
:10198000E269236A1343036002680A43026000208D
:10199000E064202161642063A06470BDFF7FFFFFCD
:1019A0000080000270470000F0B589B00546406C29
:1019B0000224202838D10E9F002F32D016460F9ACD
:1019C000002A2ED0286C01282ED00892059307916A
:1019D00001242C64FFF720FF04900090E1031923F9
:1019E0002846224601F09EFC00281DD11099212096
:1019F00068644020A8640020E8646F620690686311
:101A00000898688508910091049F019728460799D6
:101A10003246059B01F0A2FB002808D006982864F6
:101A200002E001246002E864204609B0F0BD012410
:101A300026066306688D000A059603930AD0FF22E6
:101A40002A850020009028460799334601F042FC81
:101A5000069E08E0688D2885069E0096C2B228463C
:101A6000079901F037FC089B284619463A4601F0D1
:101A7000A1FC0028D8D12868696A0A788262688D3A
:101A8000401E6885481C6862288D411E2985688D26
:101A90000904089B1FD100281DD000978021002633
:101AA0002846324601F03EFC0028BDD1688D000A70
:101AB00006D0FF222A85009628460799059B06E056
:101AC000688D28850096C2B228460799039B01F0CD
:101AD00001FC069E089B688D0028C5D12846194642
:101AE0003A4601F044FC00289ED128682021C161BB
:101AF0004268044B1340436069642E64AE6434460C
:101B000092E7C04600E800FEB0B586B0044601A8E2
:101B10001421FEF735FB20681549884225D101259F
:101B2000A805144C216801432160216801400091FF
:101B300005950320049003951221029101900098CD
:101B40000D4801A9FFF796FD6805A1680143A16052
:101B5000A1680140009100981724002120460A4600
:101B600000F07CF8204600F06DF806B0B0BDC0462D
:101B700000540040141002400014004870477047A1
:101B80001B48406802490A68101808607047C04640
:101B9000B811002010B50648016810220A430260FF
:101BA0000024204600F006F800F026F8204610BD7C
:101BB0000020024070B504467D20C0000C4E7168C4
:101BC000FEF704FC01460B480068FEF7FFFB00F03F
:101BD00093FE0125032C08D8002806D10025E843F0
:101BE00021462A4600F03AF83460284670BDC046C7
:101BF000000000209C01002082B0094801680122F9
:101C00001143016001681140019101991107426877
:101C10000A434260406808400090009802B0704754
:101C200018100240002809D41F21084001218140DA
:101C300003480160BFF34F8FBFF36F8F7047C046FB
:101C400080E100E0002805D41F21084001218140E7
:101C5000014801607047C04600E100E080B503F034
:101C600047F980BDF0B502685423D15A01242143BD
:101C7000D152B9218D0000214151D65A0227374354
:101C8000D752401984600846F0BD7047B0B528248B
:101C90000D0605D5072529404C430019283004E0DE
:101CA0004C4300192D21C9004018002A02D083603E
:101CB000012101E0C380002101730020B0BD80B587
:101CC000BD229200835828224A438018C26B1846CE
:101CD00002F07BF880BD80B5BD2292008358282297
:101CE0004A4380185F2292008258184602F0CEF8CC
:101CF00080BD70B5012400280FD00546AB208600BA
:101D00000320A851286803F0D4F8002805D1AE19A3
:101D1000284600F03DFD00243460204670BD10B51B
:101D20005521C9004258012A01D1022010BD441892
:101D300001212160006802F0A7FD0020206010BD95
:101D400010B507220A4009060AD428215143411838
:101D5000FF236A330024CC542D23DB00C91806E08E
:101D600028215143411829230124CC5428310A70D9
:101D70005522D2008358012B01D1022010BD8418B6
:101D800001222260006802F00DFD0020206010BDDD
:101D9000B0B50F220A4043689A4201D9012426E0D7
:101DA00007220A4009060AD4282151434118FF237B
:101DB0006A330024CC542D23DB00C91806E0282107
:101DC0005143411829230124CC54283100248C701C
:101DD0000A705522D2008358012B01D1022406E05B
:101DE000851801222A60006802F06CFD2C602046F4
:101DF000B0BD07220A4028215143401861218900C3
:101E00004058704770B507240C4009060AD42821B1
:101E100061434118FF256A3500264E552D25ED00FA
:101E2000491906E0282161434118292501264E550C
:101E300028310A61CB700C704A78002A00D0CC811E
:101E4000022B01D100220A715522D2008358012BA6
:101E500001D1022070BD841801222260006802F0C6
:101E600097FB0020206070BDB0B507240C402821EE
:101E7000614341182D25ED004C55491900240D46AC
:101E800014351CC54C70006802F06EFD2046B0BDD4
:101E900010B507220A4043689A4201D9012010BDBB
:101EA0000B060AD428234B43C118FF236A330024AE
:101EB000CC542D23DB00C91806E0282151434118DA
:101EC00029230124CC5428310A7001228A70552319
:101ED000DB00C458012C01D1022010BDC4182260BF
:101EE000006802F025FD0020206010BDF8B5072431
:101EF0000C4028252946614341184C2601278F555F
:101F00004C558B64283100240D4614351CC54F7088
:101F1000006802F029FD2046F8BD0000F0B591B040
:101F20000446B92004902068012631020791B102CD
:101F30000E91F1020991B1030A9102F09BFF000496
:101F4000109400D4F0E22D20C0000B9010990818D6
:101F500005900296F0030F90084624300890AD20BB
:101F6000800008180390109800684421415E002901
:101F700000D4D7E2014644310B880F271F404FD0D1
:101F8000BA00865A0F9B1E4200D15AE1821813886C
:101F9000EA4C234080241C43148028227A43109B5F
:101FA0009C180B9AA5185D229200A25C002A0D963F
:101FB00000D182E0FF226C32A25C022A0C9500D094
:101FC00090E08A8929780691CB000A990E4200D1C7
:101FD000DEE00321C90165580E9E3618B218D218EA
:101FE0005688F14A1640AA1B00D200226250B54220
:101FF00007D806998900425AEC4B1A40EC4B5A40DC
:1020000042520D99490608D506998900425AE54B76
:102010001A400F9BC03313434352002E7AD1DDE0A8
:102020000288DB062BD4DF4B1A400F9B1A43028039
:102030000E9A101889894018089C2179C900401807
:102040004288D9490A4010984264C16B8918C1631B
:1020500000263146FFF733FE2078002883D0109801
:10206000006C002800D07EE7089B1878802101438F
:10207000C8B2109909684C2288521E7073E7099BF8
:102080001A424AD00E9A121889895118059C227852
:10209000D2008918CB88C4490B40E361E2880399D8
:1020A00002F0EBFE109803681988BE4A11408022A6
:1020B0000A431A8000F0D9FB55E70E9A1218898955
:1020C00051182A78D2008918CE88B7490E405DD0C1
:1020D000B7214900625A5F2189006158334602F0F6
:1020E000CCFE8FE02A789300C65AAE4D2E400F9D4D
:1020F000C0353543C552C35AD2008989AB4DF1353D
:102100002B426DD00E9B1B189A1851184E88A64969
:102110000E4063D0172109016CE00F9B1A4200D1D9
:1021200021E702889F4B1A408023134303800E9AB5
:102130001218921D89895118059C2378DB00CB5A0F
:1021400099490B40E36112D0616900290FD0E28800
:1021500002F093FEE0696169081860610021109D3A
:102160002846FFF7B8FD28680E9909188A1D029EB7
:102170005021415A2369002B00D136E13E2B00D972
:1021800039E15C083340E3189B023CE1002639E06A
:102190000321C90165580E9E3618B218D218D68888
:1021A000814A1640AA1B00D200226250B54207D8CD
:1021B00006998900425A7D4B1A407D4B5A40425243
:1021C0000D99490608D406998900425A754B1A4060
:1021D0000F9BC03313434352002E09D1002610E059
:1021E0000E9B1B189A185118CE886F490E40F5D0D7
:1021F00004994900625A5F2189006158334602F010
:102200003CFE0C9D612080002158891921505F20DF
:1022100080002158891921500320C001205800282E
:1022200004D02F20C0002058B04204D9297810983B
:10223000FFF751FD04E010980068294602F094FB76
:102240000D9E300600D48EE678004100109C206878
:10225000425A544B1A400F9B1A4342522821794349
:1022600062182B21515C17462837022946D107995D
:102270000E4243D050213346465A01465031069112
:102280003978CC000D935B060C9459D40E9B1B1827
:1022900001939B191B19DE88434B1E40146CA31B32
:1022A00000D200231364B44200D883E00A9B0D9C43
:1022B0001C4206D18900435AF64C2340F74C234375
:1022C00043524C21515C012900D01EE1D16B891988
:1022D0000D91D163536C9B195364916B956C1446AB
:1022E00048348D4200D396E013464C330021002D34
:1022F00000D1BCE0197021602E46B9E05021415A4E
:102300000E9B1B185B183978CC001B195B88E04CBE
:102310002340146CE51A00D2002515649C4209D9AB
:10232000D16BC918D163516CC9185164394602F098
:102330001BFB18E61098FFF7C2FC14E60F0F000015
:102340000E9B1B1801939B191B195E88D04B1E40D6
:10235000146CA31B00D200231364B44232D90A9B2D
:102360000D9C1C4206D08900435ACA4C2340CB4CDA
:10237000234343524C21515C012900D0C5E0D16B6D
:102380008B19D363516C89195164946B956CA54278
:102390000D9345D213464C3300211970002D0C9C2F
:1023A00041D144E00F0F0000FF0300000F3F000089
:1023B00080A000001098FFF782FC0A980D99014256
:1023C00008D0A2E01098FFF77AFC0A980D99014214
:1023D00000D19AE01098006839788900425AAD4BD4
:1023E0001A40AE4B1A4342528FE08B5AAC4C2340FA
:1023F0008B528B5A05E0DC065B09002C00D15B1E7A
:102400009B020F9C23438B520188A34A1140A54A8B
:1024100051400180A7E56B1A23600C9B0E4628E013
:10242000291B25460C9C1346483319602E4629214A
:10243000515C012913D0002953D102210C43019989
:102440000C1906990B88002E33D03E2E3FD831460A
:10245000029D2940750869188902195341E002213B
:102460000C4301990919069B1B88CE5239E019705B
:102470000C9B0D992924145D012C12D0002C40D105
:1024800006210B430199CC1806990B88002E17D012
:102490003E2E2AD83146029D2940750869188902C6
:1024A0002DE006242343019CE418069B1B88E6527A
:1024B00027E0195B25467A4C21405953595B0DE0C2
:1024C000195B0C96764E31401953195B14E0F506F2
:1024D0007109002D00D1491E890225460F9C214318
:1024E0005953128EB3B20D990DE0F5067109002D06
:1024F00000D1491E89020C960F9E31430C9E195340
:102500000D99528EB3B202F0DFFC10980068397852
:102510008900425A5F4B303313400F9AB0325A4011
:10252000425220E5029E01E01098006802F0A2FCF1
:102530000E9908420DD0109C20684421425A5A4BF3
:1025400013404352204600F051F90021204600F08C
:1025500078F9109C206802F08DFC014620680A9AE8
:10256000114205D04421425A504B813B1340435203
:1025700004998C0002F07EFC0146109800688904E2
:1025800004D54421425A4A4B13404352109D2C1902
:1025900002F070FC01462868C9041AD54021425A4D
:1025A00004239A434252425A08239A4342522068D3
:1025B000012804D1002121601098FFF766FB109DCF
:1025C000284600F025F928684421425A394B134027
:1025D000435202F04FFC0999084213D0109800684A
:1025E0004021425A08231343435202464032938803
:1025F000314D1D409580425A042313434352109895
:1026000000F068F91098006802F034FC000620D54C
:10261000109800684421425A80239A43425221680C
:10262000002903D0109800F055F912E040300188DD
:1026300004220A430280018808220A43028026609D
:10264000808A80083C210140616010983146FFF784
:102650001CFB1098006802F00DFC800508D510984E
:1026600004684421625A154B1340635200F0E2F8AB
:102670001098006802F0FEFB0799084206D01098F7
:1026800000684421425A0E4B1340435211B0F0BD32
:10269000FF0300000F0F00000F3F000080C000008C
:1026A000FF83000080B00000FFFB000080C0FFFF40
:1026B000FFDF0000FFEF0000FFF70000FFFD00005C
:1026C000FFFE0000F0B589B000285CD0044655201C
:1026D000C00026187068002804D100203060204611
:1026E00000F066F8204624300890032070602068CF
:1026F00002F0DEF861680020C2B291420FD92823AF
:102700001D4655436519E8542835EA8101226A704F
:1027100000222A616A61AA61EA70401CECE700208D
:10272000C2B291420ED928235343E2182D23DB0075
:10273000D054D2180023136153619361D370537046
:10274000401CEDE7A0680590E068069025690796B3
:102750006669A769E269236A206800950196029775
:1027600003920493059A069B02F098F800250898B6
:102770000570012007994860E069012804D12046CE
:10278000FFF770FA00E00125284609B0F0BD00000F
:1027900080B500681349884200D080BD0120C00583
:1027A00011490A6882430A601F20FFF73BFA80BD87
:1027B0001CB500680B49884200D01CBD0120C00533
:1027C00009490A6802430A600968014001910198B9
:1027D0001F24002120460A46FFF740FA2046FFF753
:1027E00031FA1CBD005C00401C100240B0B504462C
:1027F0008068022801D0FEF7E1FABD20850060590B
:10280000012101F039FC605901F0F6FBB0BD000078
:1028100010B504468069002806D0364801680622B3
:102820009143016000F04EFFBD208000205801F070
:102830000BFC10BD80B5BD218900405801F00EFC95
:1028400080BD10B55522D2008358012B01D1022042
:1028500010BD8418024624321170012222600068E3
:1028600002F020FB0020206010BD80B5BD21890052
:102870004258AD2189004118104601F009FC80BD85
:10288000B0B504465520C0002158012901D10220CD
:10289000B0BD251801202860206802F0D7FA206812
:1028A00001F0EAFF00202860B0BDB0B50446552015
:1028B000C0002158012901D10220B0BD25180120F6
:1028C0002860206801F0F4FF206801F0DDFF00209F
:1028D0002860B0BD10B50446BD208000205801F02E
:1028E00022FCA069002804D00248016806220A439D
:1028F000026010BD10ED00E0401E010E01D001206D
:1029000070470749074A5060074803680B40032196
:1029100089075918016000209060072111607047F5
:10292000FFFFFF0010E000E020ED00E0704770477F
:10293000B0B5C26B012A01D102211CE0022202645F
:102940000122C26303685C687025AC430D682543AF
:102950009C685D609507AB4205D0DC4DAB4202D070
:10296000374DAB4204D18025AC434968214399607F
:102970000021C16302640846B0BDC04610B50028FE
:102980001BD00446006C002804D10020E0632046E0
:1029900000F016F8022020642068211D00F0EEFEF1
:1029A000012060666064A064E06420656065A065E5
:1029B000E06520662064002010BD012010BD0000ED
:1029C0001CB50068C149884200D01CBD0120C0026E
:1029D00008490A6802430A600968014001910198A8
:1029E0000D24002120460A46FFF738F92046FFF75C
:1029F00029F91CBD18100240016C012919D10221CE
:102A000001640168C86801221043C86090078142D0
:102A100005D0AE48814202D0094881420BD1886876
:102A2000072303400020062B09D00B6813430B60DB
:102A30007047012070470868104308600020704705
:102A40000004004070B50446C06B012801D102208B
:102A500070BD022020640125E56320688268304B48
:102A60001A4082600E6802460832002E1ED0102ED8
:102A70001CD0202E1AD0302E18D0402E1DD0502E13
:102A80003ED0602E23D0680386422AD0702E43D1D8
:102A90007733106818404B688E68C9681E43090276
:102AA0003143014311601168772027E010687021DD
:102AB00088430643072030432DE0CA68496800F088
:102AC000A7FE2268916847200843302121E0CA68A8
:102AD000496800F0AEFE2268916867200843102123
:102AE00017E07733106818404B688E68C9681E433A
:102AF0000902314301431160A903106808430AE049
:102B0000CA68496800F084FE22689168572008432B
:102B100020218843083210600020E063256470BDE6
:102B20008800FFFF7047B0B504468020C543206889
:102B30000169890717D5C168890714D529467E31EF
:102B400001610121E1618069800703D02046FFF720
:102B5000E9FF05E0204600F08AF8204600F088F8FA
:102B60000020E06120680169490718D5C16849075C
:102B700015D529467C3101610221E161806980051A
:102B8000800F03D02046FFF7CDFF05E0204600F080
:102B90006EF8204600F06CF80020E06120680169C2
:102BA000090717D5C168090714D52946783101618D
:102BB0000421E161C069800703D02046FFF7B2FF1E
:102BC00005E0204600F053F8204600F051F80020C0
:102BD000E06120680169C90618D5C168C90615D524
:102BE0002946703101610821E161C0698005800FCB
:102BF00003D02046FFF796FF05E0204600F037F8A7
:102C0000204600F035F80020E06120680169C9071E
:102C100009D0C168C90706D029467F310161204625
:102C200000F028F820680169090607D5C16809067F
:102C300004D505612046FFF779FE20680169490641
:102C400009D5C168490606D52946403101612046AB
:102C500000F048F820680169890607D5C16889062F
:102C600004D5603505612046FFF761FEB0BD7047B1
:102C700070470000F8B500681449884200D0F8BDDC
:102C8000134D288801242146814089B21148124BF6
:102C9000224698472888401C81B20F2900D90D2070
:102CA00028800E48FF21002632460B4FB84728885F
:102CB0000B4940180D38017808482246B847288843
:102CC0008440A1B203483246B847F8BD002C014009
:102CD00034000020000800480B18000800040048D9
:102CE000B80300207047FEE780B507480068806998
:102CF0004005400F03D00448FEF7D2FD80BD0248D6
:102D0000FEF7F7FD80BDC046040E002080B5806A46
:102D1000816B002901D000228A63C16B002901D098
:102D200000228A6300F0ECFA80BD10B5CA0701D119
:102D3000002307E0426C28231340282B01D0F22304
:102D400000E042238A0701D41A4608E0426C282496
:102D50001440282C01D0F42200E044221A430B0432
:102D600001D5B8231A43102901D190231A432029F1
:102D700001D120231A43402901D140210A43006890
:102D800001689143016010BD00688169890701D520
:102D9000002181628169C90703D1816901220A4347
:102DA00082617047F8B50446406C282101402068D4
:102DB00028291CD1816983698268C668FE251F0C99
:102DC000C903CB0FE168022916D1D109794049071F
:102DD000890F20D02E400120C10320461D46FFF759
:102DE000A4FF0020206420462946324610E000213E
:102DF00021640821C161F8BD0120C10320461E469F
:102E0000FFF793FF002020642F40204631463A46CA
:102E1000FEF745FDF8BD216D491C2165216D022994
:102E2000E9D105490A400021216521640821C161D9
:102E300020461946ECE7C046FF030000B0B5044643
:102E4000406C0025A564914AE2626585E26C0A4304
:102E5000E2642838022806D803212046FFF765FFE0
:102E6000284D282007E03F492046FFF75EFF606CB1
:102E7000602801D0202060646563A06B216B00286E
:102E80001BD0212901D0112917D121680A685204C9
:102E900004D5012292030B6893430B60FEF7DDFA21
:102EA00001281ED000202064A06B17498163FEF723
:102EB000B5FA002818D0A06B21E0E06B002810D0F4
:102EC000222901D012290CD121680A68120404D5E4
:102ED0000122D2030B6893430B60FEF7BEFA012870
:102EE00003D1204600F00CFAB0BD00202064E06B56
:102EF00005498163FEF792FA0028F5D0E06B816BFB
:102F00008847B0BDC53100080D2D0008B0B5044696
:102F1000EF48E06200252563202060646563A564B6
:102F2000480712D5606A2168496A0170606A401CCE
:102F30006062208D002808D0618D491E6185401E89
:102F40002085E06C04210143E16406492046FFF737
:102F5000ECFE256420681021C1612046FEF722FDA9
:102F6000B0BDC04603800000FEB502910446006873
:102F70000768616C20220192C2612139092911D8A8
:102F8000212541487944097949008F4406040B0BF7
:102F90000B0B0B0B0604401C222581B22046FFF7C9
:102FA000C4FE25630125EE0320684168314341607A
:102FB0004168694A0A4042602046FFF7E5FE78040E
:102FC0000AD43742029D13D020680168B1430160E2
:102FD000E06B002809D10BE0A80321680A6882434E
:102FE0000A60A06B0028029D02D0006840686085DE
:102FF000680710D5606A2168496A0170606A401CE0
:10300000606204208543208D002804D0401E208566
:10301000608D401E6085608D002803D0E06C042127
:103020000143E1640026A6646663E06C00280BD0CF
:10303000E16C2046FFF702FF606C282822D1204671
:103040002946FFF763FFFEBDE06AA14DA8420AD101
:10305000606C019961642664266322280FD12046A2
:10306000FEF78CFDFEBD204600F012F8E5620198E7
:103070006064266426632046FEF794FCFEBD20466D
:10308000FEF77DFDFEBDC046018000000000FFFF91
:10309000B0B50446006801680025A5644A0403D45D
:1030A000090405D5134900E0114902680A4002608D
:1030B000606C29280CD12820606421202063012124
:1030C0002046FFF732FE25642046FEF758FDB0BDCE
:1030D000606C2A280BD12820606422202063022102
:1030E0002046FFF722FE25642046FEF747FDB0BDCF
:1030F000FFBFFFFFFF7FFFFF70B50E46044600686D
:103100008169C90601D4002070BD15468169890610
:103110000BD4711CFAD0FEF77FFB411B2020B1427B
:1031200010D8002E0ED02068F0E71021C1612021B8
:10313000C1612046FFF728FE20684168064A0A4020
:1031400042600420E16C0143E164202060640020BF
:103150002064A064012070BD00E800FEFEB51D469D
:103160000292044616480090DAB201200306204677
:1031700000F0B0F8089E099F204631463A4600F01C
:1031800019F9002801D00120FEBD012D0AD02068C8
:103190000299090A8162204631463A4600F00AF94E
:1031A0000028F0D120680299C9B28162009780217D
:1031B00000222046334600F0B5F8411E8841FEBD8E
:1031C00000200080F8B50446C36A006C012801D1D4
:1031D0000220F8BD16460D4601272764880607D54C
:1031E000B00605D5204629460093FFF7BDFE009B9B
:1031F000E80601D5F0061BD4680701D570072AD46C
:10320000280701D530073DD4A8075ED5B0075CD5A7
:10321000608D002852D02068616A0A788262481C5A
:103220006062208D401E2085608D401E60854CE0D0
:10323000608D00282AD020681021C161E06C042133
:103240000143E1643806034383423ED1E16C2046EA
:10325000FFF7F4FD39E0608D00280CD0606A21682A
:10326000496A0170606A401C6062208D401E2085A2
:10327000608D401E6085608D15498B4225D00028E9
:1032800020D022E02046FFF78DFD1EE0606C79061D
:103290008B4206D1282804D120462946FFF736FE66
:1032A00013E0606C21681022CA6109498B420CD07E
:1032B00029280AD12046FFF767FD03E038060343BB
:1032C000834202D12046FFF7E3FE00202064F8BDD0
:1032D0000000FFFF70B5049C650D00684668AE43B2
:1032E000054D3540054E0E401E4311043143214328
:1032F0002943416070BDC046009C00FCFF030000F4
:1033000080B5416C602907D120214164002101640E
:103310000163FEF7C3FA80BD002101640163FEF77B
:10332000F1FA80BDF8B51D4616460F4604460698CC
:103330000090206880693840C01B41424141B14241
:1033400013D1681CF5D0FEF767FA0099401AA8421D
:1033500001D8002DEDD1E06C20210843E0646164C8
:1033600000202064A0640120F8BD0020F8BDF8B55D
:1033700016460F46044620688069800617D420460A
:1033800039463246FFF7B8FE0125002810D1FEF776
:1033900043FA801BB84201D8002FECD1E06C202109
:1033A0000843E064616400202064A06400E000251C
:1033B0002846F8BDF8B516460F46044620688069D1
:1033C000800719D4204639463246FFF795FE01257D
:1033D000002812D1781CF1D0FEF71EFA801BB842EB
:1033E00001D8002FEAD1E06C20210843E064616439
:1033F00000202064A06400E000252846F8BDB0B598
:10340000520000239A420ED0450F040F052D01D320
:10341000373400E03034CC5401241C4300250D55D2
:103420009B1C0001EEE7B0BD81B005490A6802436C
:103430000A60096801400091009801B07047C046D9
:103440001410024010B5014602684068002810D0F0
:10345000002A15D0087A204B022813D0012814D056
:1034600000281AD1586890435860186810431860B3
:1034700011E019480168914301604168914341603E
:10348000002010BD1868104301E0186890431860D0
:10349000586810435860002000E00120497A032951
:1034A0000ED8C0467944097949008F4401020B0EB9
:1034B000E7E7D9689143D96099681143996010BDD5
:1034C000012010BD9968914301E09968114399600A
:1034D000D9681143D96010BD00040140FEB5002732
:1034E00000910C682346FB404AD00125BD40254091
:1034F00044D04A680192531E022B02972B4613D2E6
:103500006B438E685E4303275F438268BA4332434E
:1035100082600099CA6862434668A64316434660C3
:10352000FC43029F009903E06B4303245C43E443A4
:103530000A695A43C66826401643C660019A022AA1
:1035400016D12E0A01D0242200E020224F6985588E
:10355000002E114602D07643764301E01E465E43BC
:103560000F227243954377432F4347500099029FA0
:103570004A685343026822401A4302607F1CB0E746
:103580000020FEBD014908607047C0469C01002034
:1035900080B50920C00601210902FEF731F9002893
:1035A0001FD010481049002200F0E6FB002801D08F
:1035B000FDF704FC0B480D4900F0DBFD002801D0AD
:1035C000FDF7FCFB07480A4900F036FA002801D055
:1035D000FDF7F4FB034800F0E3FD002801D0FDF700
:1035E000EDFB80BDAC0A002010000020A0010020EF
:1035F000C40200207047704710B5184A1068C00B0D
:1036000001210B4683432548037013689B0B0C462E
:103610009C43447013685B0B0C469C438470136896
:103620001B0B0C469C43C4701368DB0A0C469C437E
:1036300004711268920A91434171002106290BD04E
:10364000425C012A03D0002A04D1462200E04F2226
:1036500043189A71491CF1E710BDC0461004004898
:10366000BFB50446FFF7C8FF601E052806D80B4902
:10367000081883790A480CA122460BE00748C37951
:103680008279017A447A857AC07A00AF32C7039092
:103690000348044901F0D4FFBFBDC0466C030020BD
:1036A0005C0A0020446600082370737461742C2542
:1036B000642C25630D0A0000704780B5FEF760FAA0
:1036C00080BD0000B0B525490A68012002430A60A8
:1036D0000A68D207FCD0224C21680143216021688E
:1036E0008907FCD5226880252A4378218A432260F5
:1036F000626B02436263626B9207FCD5626B2A4382
:103700008A4362630004616B01436163606B800301
:10371000FCD56068F0218843606007200002616882
:1037200081436160606803210143616060680C212E
:1037300001400C29FAD10B48FFF724FF0020FEF7C7
:1037400039FA606B042188436063206B1021884341
:103750002063206BA8432063B0BDC0460020024018
:1037600000100240006CDC027047000080B5024887
:10377000FFF7D9F980BDC04650110020B0B50468EC
:103780001E4A904205D001239B0203431C4DAB42CD
:1037900006D170239C434B682343904201D111E032
:1037A00023460124A407A0420CD0154CA04209D006
:1037B000144CA04206D0144CA04203D0134CA0429B
:1037C0001C4604D103242402A343CC681C43802359
:1037D0009C434B69234303608B68C3620B6883621D
:1037E000904205D0084A904202D0084A904201D146
:1037F0000969016301214161B0BDC046002C01404F
:103800000004004000200040004801400044014006
:10381000B0B5036A046A0125AC4304628469F025EB
:10382000AC431201224382610A2293430B43036299
:10383000B0BD10B5036A1024A34303620F231B031A
:1038400084699C4312032243036A8261A02293434A
:1038500009011943016210BDF8B50C460546572011
:10386000C1006F58002F14D0142060432E18F06947
:10387000002809D069188968282262438918896B51
:10388000FCF7A4FD002906D08520800000263E50CC
:103890000BE0022609E01C3630460026066028466A
:1038A00021463246334600F047FC3046F8BD70B53D
:1038B00004465720C600A559204600F030FB83215E
:1038C00089006850A05900280AD0A21969188120DF
:1038D0008000281800685268D2689047002070BDA8
:1038E000022070BD70B5044681210E4EB047002500
:1038F000E56201212046B0475B20800025508221EF
:103900002046B04725645720C0002158002907D021
:103910002418606840688047206800F033FE256006
:10392000002070BDB93D000810B55721C9004218EC
:103930005368002B0BD04158012040020C1820780E
:10394000FF2804D062789B689847FF2020700020F1
:1039500010BD00000A21018000487047600200206D
:103960004321018000487047D80100204321018095
:10397000004870471C020020432101800048704726
:103980006C020020FEB5044600690126770200287B
:10399000009700D040278121029102220192204607
:1039A0003B46194DA847E66220463146019A3B4600
:1039B000154DA8475B208000265082210322082352
:1039C0002046A8472664029885002846183000F053
:1039D000DBFD07465720C0002750002F11D02018CC
:1039E00040680068804778190026066146612069B2
:1039F0000028009B00D040237A590121204600F086
:103A0000F2FA3046FEBDC046CF3F000810B5572140
:103A1000C9004258002A05D003690121002B03D0B8
:103A2000402302E0022010BD4B028124A400125961
:103A300000F0D9FA002010BD002904D0AF22920076
:103A4000815000207047022070475722D2008058D2
:103A5000812292008150002070475723DB00C0581C
:103A60004123DB00C150C018826000207047FEB5C2
:103A70000E4605465720C0002F5802A800240470A7
:103A800001A80480A7208000291830786022024015
:103A900011D0202A3AD1F288002A19D000061FD46A
:103AA000012040023818427071780170284639466A
:103AB00000F074F82FE070780B281AD00A281CD078
:103AC000002823D10878032820D101A9022219E077
:103AD0007078096A8B6800243146224698471AE0BC
:103AE0007078096A8B6839469847F28828463946C3
:103AF00009E0087803280ED008E00878032805D1EB
:103B000002A90122284600F068F804E02846314660
:103B100000F03AF802242046FEBD10B55721C90036
:103B20004158002908D04122D20013460C33CC580A
:103B3000002C03D0012010BD022010BD0124CC5068
:103B40008B189B6803638A589BB2812100F0F4FABA
:103B5000002010BD80B5AD22920082585268904777
:103B6000002080BD10B513460A460024214600F00F
:103B70003AFA204610BD10B513460A4600242146E5
:103B800000F0DAFA204610BD10B50446802100F09E
:103B9000AFFA0021204600F0ABFA10BDB0B51346D5
:103BA0000A46572189004350A524A4000325055146
:103BB00041184B600024214600F015FA2046B0BDA4
:103BC00010B5A52189000522425000242146224635
:103BD000234600F008FA204610BD10B513460A46E9
:103BE000A521890002244450C361036200242146B8
:103BF00000F0A2FA204610BD10B5A52189000422CC
:103C00004250002421462246234600F095FA2046E1
:103C100010BD10B50446A7208000012121542018B2
:103C200080694268217920469047204600F072FA68
:103C3000204600F06BF9002010BD000010B50A46C8
:103C400003A0264C214600F065F8204610BDC04672
:103C500043444320436F6E6669670000122008806A
:103C600000487047B002002010B50A4603A01B4C64
:103C7000214600F04FF8204610BDC0464344432083
:103C8000496E7465726661636500000004200880F7
:103C900000487047D402002010B50A4603A00F4C1C
:103CA000214600F037F8204610BDC04653747279A3
:103CB000782E496E6300000010B50A4603A0074C39
:103CC000214600F027F8204610BDC0465765624DDA
:103CD0004D535F506F77657200000000BC070020F5
:103CE000B0B51A200880094908688A6810180BD0F6
:103CF0004C68074DA91C0822FFF781FB12350422EE
:103D000020462946FFF77BFB0148B0BDACF7FF1FFB
:103D1000D8020020B0B500281CD000230446257826
:103D2000002D02D0641C5B1CF9E7DBB25B009B1C1E
:103D300013800B70022203240123CC540378002B40
:103D400008D0D4B20B5501231343DBB2921C401CA4
:103D50000024F2E7B0BD0000032803D8800002A1D0
:103D60000858704702207047000000000200000061
:103D7000010000000200000010B5002811D0A723A8
:103D80009B00C3189C69002C01D000249C61002971
:103D900000D0596102700121197000F0C7F80020AD
:103DA00010BD022010BD80B50B2292018058FDF796
:103DB000EFFFFFF7D1FF80BD80B50B229201805845
:103DC000FDF7BEFFFFF7C8FF80BDF8B50446A5208C
:103DD0008000271800290AD0386A42690220002A88
:103DE0002AD03B7A032B27D12046904723E038681E
:103DF000002816D0042814D0022816D1206A656A3B
:103E0000A8421AD9401B206283B2204611461A46A6
:103E1000FFF7B1FE002120460A460B4600F0E3F80A
:103E200003E08021204600F063F9387B012802D1AD
:103E300000203873F8BD0020F8BDE66930462946F9
:103E4000FCF7C4FA002910D1AE420ED3786886423E
:103E50000BD20025204629462A46FFF78CFE7D60BE
:103E6000204629462A462B46D8E7386AC1680029E9
:103E700004D0387A032801D1204688478021204683
:103E800000F036F92046FFF79BFECEE770B50546F9
:103E9000A5208000281800290BD0026A926902240C
:103EA000002A31D0007A03282ED1284690470024DA
:103EB0002AE001680024052914D0032924D10B210C
:103EC00049016B181E6859688E4211D9701A186022
:103ED000884200D3084683B2284611461A46FFF7A7
:103EE00041FE11E004602846214600F001F90BE094
:103EF000016A0969002904D0007A032801D1284603
:103F000088472846FFF778FE204670BD80B50B2114
:103F100089014058FDF7EDFEFFF71EFF80BD80B51B
:103F20000B2292018058FDF764FF80BDF8B50B218C
:103F30008A011B498150BD239B00C85000238B611F
:103F4000CB610B6202230B610824164D0D604C609F
:103F50008B6086180846FEF7B5FB002801D0FCF7F9
:103F60002DFF3068002418230F4F21462246B84702
:103F70003068802158232246B84730688121C02309
:103F80002246B847306801210D022B4610332246E5
:103F9000B8473068822122462B46B8472046F8BDF4
:103FA000580E0020005C00408D1C00087F220A4053
:103FB000282353430B2292018058C018090601D5CB
:103FC0002A3002E0B521490040180078704710B54A
:103FD00014460B22920180581A462346FDF712FF21
:103FE000FFF7BAFE10BD10B50B24A4010059FDF770
:103FF0003BFFFFF7B1FE10BDF8B504460025402693
:1040000029462A463346FFF7E2FF2B20C00001274E
:1040100027502018C660802120462A463346FFF7E5
:10402000D6FFA52080002550201807726662A76180
:1040300005616560416A002904D0006A4268002178
:10404000204690470020F8BDA7218900425C042A41
:1040500002D14018417801700020704780B5A72137
:104060008900425C032A05D141188969C969002980
:1040700000D08847002080BD01610020704780B5D6
:104080000B2292018058FEF7DCFBFFF765FE80BD36
:10409000F8B50446A5208600A7193D4614352846E4
:1040A00000F053F80120A0511048205A7860397D63
:1040B0001F200840022808D001280BD000280ED16C
:1040C0002046294600F072F80EE02046294600F00E
:1040D00089F909E02046294600F01DFA04E0802015
:1040E0000140204600F004F80020F8BDAE020000B8
:1040F00080B50B2292018058FDF7CAFEFFF72CFE17
:1041000080BD80B50B2189014058FEF7B9FBFFF750
:1041100023FE80BD80B50B2189014058FEF7C5FB09
:10412000FFF71AFE80BDA7218900425C0423435497
:10413000401842700020704710B50B24A4010059AC
:10414000FDF7D4FEFFF708FE10BD0A7802704A782A
:1041500042708A78CB781B029A1842800A794B7990
:104160001B029A1882808A79C97909028918C1804C
:104170007047002904D0AD22920081500020704782
:104180000220704780B5AD2292008258002A05D0E7
:1041900012689047411E8841400080BD022080BDCA
:1041A00080B5FFF7AEFF002080BD00007CB50D4656
:1041B0000446097860200840A72189006618002875
:1041C0000AD0402802D0202800D06FE0B069826871
:1041D0002046294690476CE06878092866D8C04692
:1041E00078440079400087440411611A61203A61E3
:1041F0004F5B3078401E022858D8E888022855D1F5
:10420000B068002800D1A4E00320A3E03078401E6D
:1042100002284BD8688801284BD1002003E0688829
:10422000012846D10120B060D3E0A88800283DD104
:10423000E88800283AD168887F2837D83178032960
:1042400034D0B070C5B220462946FFF718FF20468B
:10425000FFF7D2FC002D00D1BFE00220BEE001A894
:10426000002101806888010A491E06291ED8C0461F
:104270007944097949008F44032E341919414900C2
:10428000206971690A688EE0E88801280ED13078CB
:10429000411E02291AD20020A0602146083118E0F0
:1042A00068884F4D2870C1B2022904D32046FFF719
:1042B0006BFC00207CBD3078032831D0022840D12F
:1042C000002900D185E00320307033E00328EDD1D0
:1042D000211D012242E0B0692169002942D0C16A52
:1042E00041E0C0B20528E1D8784400794000874415
:1042F00002484B4E51547069426850E020690028D2
:10430000D4D1B069416B01A888474EE020690028EC
:10431000CCD1B069016B01A888470146072026E08F
:10432000002926D06068884253D0C1B22046FFF7EA
:1043300011FC297861602046FFF724FF0228B5D0E0
:1043400047E02046FFF720FC29782046FFF702FCD3
:10435000AFE70120E06021460C3102222046FFF742
:104360003CFCA6E7816A01A8884701460220487004
:104370001CE000206060022030702046FFF7EAFB5E
:1043800027E0706982680AE07069C26807E07069B6
:10439000026904E07069426901E070698269002A7B
:1043A00000D183E7206901A99047014601A802884E
:1043B000002A0AD0E888002807D0824200D30246AB
:1043C00001A802802046FFF708FCE888002800D0FA
:1043D0006FE72046FFF710FC6BE70120307068E7BD
:1043E000BB070020B0B50A460446087860210140AA
:1043F000A72080002018002909D0402901D02029B9
:1044000066D18069836820461146984763E0117938
:104410005378002B14D0012B24D0032B58D10078D3
:10442000032822D15088002842D1802008438028C8
:104430003ED0D08800283BD12046FFF759FE37E018
:10444000007803281FD0022842D18020084380280A
:104450003ED17F20084014224243A31808063CD5D1
:1044600014333DE0007803281AD0022830D1802090
:10447000084380282CD02046FFF73AFE80212046B2
:10448000FFF736FE27E00F230B4080200A46142555
:104490005D43631902400FD12B25ED005B590CE001
:1044A0005088002817D1480602D02046FFF77BFC31
:1044B0002046FFF7A1FB0EE09B69002B08D07F236D
:1044C0000B4014255D436519002A0FD0143510E008
:1044D0002046FFF759FB0020B0BD552080001B1877
:1044E0000020186002222046194611E05522920051
:1044F000AD180843802801D1002005E02046FFF7D1
:1045000055FD0028F8D001202860022220462946C7
:10451000FFF763FBDFE7B0B50D460446097860207E
:10452000084003D0402801D020280AD1A7208000CD
:1045300020180178491E022903D8A9880906490EC6
:1045400004D02046FFF720FB0020B0BD80698268C0
:104550002046294690470028F6D1E8880028F3D164
:104560002046FFF749FBEFE710B50446AD20800079
:10457000205842682179204690472046FFF7CAFD1F
:10458000002010BD7047000000487047FC07002065
:10459000F0B586B003460F78B8001E18185A7C4D47
:1045A0000540C8780328049008D800227844007990
:1045B0004000874401050B08012005E0012205E0C9
:1045C0000120800201E0032040020543A94C25435D
:1045D00035803088D24D2840384320433080087BD6
:1045E000002844D00392308805966A4E06406A48F7
:1045F0003018059A108050201C5A02940124A502FC
:104600005D19FF00EA190192E4430E8926400093E8
:10461000029B019AD652059E009A105A3A1DAA187A
:104620004B8923401352CE4A1346F1333088184049
:10463000497800293ED000288E4BB94C04D03088F0
:104640002040B949014331803088400605D5308883
:1046500020401946403101433180303430882040B9
:104660000499012941D01946203148403EE05020AC
:10467000185A0390FF00487800283FD01446D819F4
:10468000039A8018C988012291439202815230888E
:104690004006784A05D5308828401146403101430C
:1046A000318030353188294004980128204646D190
:1046B000114320E000286F4B994C04D030882040F3
:1046C0009949014331803088400605D53088204023
:1046D00019464031014331803088104093494140B0
:1046E000318030343188214003E0184330803188F4
:1046F000114019430398318006B0F0BD059604209F
:1047000038430124A6029E190296503330180490B3
:10471000C8880194A043039C049E3053062038436C
:10472000029C271808691988134600280AD03E28D9
:1047300012D8019A02404008801882020AE0203212
:104740005140D8E7C85B154A0240CA53C85B494A82
:10475000803A0243059E09E0C2064009002A059EF0
:1047600000D1401E8002434A803A0243CA53318836
:104770007B480246F132114204D0318829406A4A0E
:104780000A43328032880240054951401846B2E758
:104790008F89FFFF0F0E000080810000FF83000063
:1047A00080B0FFFF70B50A789200845A80184B7869
:1047B0000A7B3049002A21D0694A1546F1352C4040
:1047C000002B28D0564B584D002C03D004881C4099
:1047D0002C4304800488640605D504881C400E46DA
:1047E00040362643068004881C402C430480303326
:1047F00004881C400C430480134634E0002B27D06F
:10480000474A1346303364062DD5048814400A46BF
:104810004032224326E0424B002C04D004881C4046
:10482000414D254305800488640605D504881C4055
:104830000D4640352543058004881C400D46403513
:1048400025430580048814400C43048030330AE07B
:10485000434B1A46F132144205D00288304C1440C2
:10486000314AA218028002881A400A4302800020BE
:1048700070BDC046808000005821425A0123DB03EE
:1048800013434352002070475821425A024B1340B1
:10489000435200207047C046FF7F000040220121A4
:1048A0008152002181524030818001820846704748
:1048B0004021425A024B1340435200207047C046E9
:1048C0007F400000B0B50A7B002A27D10A78930008
:1048D000C25AC0184B78002B10D05206104B114A08
:1048E00005D504881C401546203525430580C97828
:1048F000012913D03033018819400DE018490B46C7
:10490000F1331A4205D00288054B1340064A9A1823
:10491000028002880A400549514001800020B0BD54
:104920000F0F0000A080000080C0000080B00000D9
:1049300010B54B78002B01D0084A00E0064A002B46
:1049400001D0084B00E0064B09788900445A1C400E
:1049500054404452002010BD8090FFFF9080FFFF24
:104960000F3F00003F0F0000F0B587B00D46044632
:104970004A78012A3ED12969A86988420F4600D8A1
:104980000746287B002862D0E878022800D08DE016
:1049900028788300E218E35AF44E1E402B6A8B42BB
:1049A00000D8C7E0F2490E431680D91B296212884D
:1049B0005021615AC00026465036520600D510E1FB
:1049C00002221043012206929202A21804921018A9
:1049D000475269692A89BBB2204600F075FA6869B6
:1049E000C1196961286A2A699042059100D911E1CB
:1049F000002310E1287B00283AD0E878012868D00D
:104A0000022800D094E0002A00D0BCE15020205AB7
:104A1000012291026118069109182B692746503727
:104A20000392D2032878C000861C002B04920590C4
:104A300000D12FE1029608463E2B00D951E11946DC
:104A4000039E31405A085118049A890251E1EA88BC
:104A50006969BBB2204600F037FA5020205A20186E
:104A60002978C900891C401801218902475273E046
:104A70002F69A869C11B00D20021A961B84200D8E2
:104A800007465020205A20180123990241182878FF
:104A9000C000821DE548E64E002F7FD03E2F00D992
:104AA00085E03B407F08FB189B028BE0297888005B
:104AB000225A5020205A5206C900002A4ED40222FF
:104AC000114361180818012189024752284608300D
:104AD0004DE02969A869431A00D20023AB618842DE
:104AE00000D80146D148D24E002A00D095E150228C
:104AF000A25A0127BB02E31804939B1822465032A6
:104B000003920197FA0306922A78D700BA1C00296B
:104B10000297059200D1C8E000933E2900D902E136
:104B20000A46019B1A404F08BF18BF02009BC6E00F
:104B3000012079E1C4490E4316805021615AC0001A
:104B4000801C2018401801218902435269692A8972
:104B50009BB2204600F0B8F9B94E5CE10622114341
:104B60006118081801218902475228460A306969EC
:104B70000288BBB2204600F0A7F90120C60369787D
:104B8000AD48012920D0002928D129788900625A0E
:104B90000346303B13403246C0321CE0505A069068
:104BA000A44F06980740A1485752575A08E0FE06FE
:104BB00006967F09069E002E00D17F1E9C4EBF02E6
:104BC000DB033B43535228E129788900625A0346AC
:104BD000303B13409B4A1A43625200E0984EB03675
:104BE0001BE106221043012206929202A2180492AF
:104BF0001018475269696A89BBB2204600F064F90F
:104C00006869C1196961286A2A699042059121D8A9
:104C1000002320E0C31B31462B62904200D8074698
:104C20000698C603687801284BD0002800D0E2E03F
:104C30000888049908182A78D200921D002F00D104
:104C4000C5E03E2F00D9CEE0069939407B085B18BD
:104C50009B02CFE0C31B31462B62904200D807462F
:104C60000698C6036878012833D0002800D0CCE02D
:104C70000888049908182A78D200921C002F00D1C5
:104C8000ABE03E2F00D9B8E0069939407B085B18AD
:104C90009B02B9E0705A029008466649029A114098
:104CA000049A3152315A114324E0D25A0092614F92
:104CB000009A1740059AD752D75A069A1743059A71
:104CC0003BE00888049908182A78D200921D875280
:104CD00091E00888049908182A78D200921C87521B
:104CE00093E0DA065909002A00D1491E049A890284
:104CF0001143029E31520621059808433988069EC9
:104D00007118002B07D03E2B34D8039E1E405A0842
:104D10009219920236E01646425A464B13404352CD
:104D2000425A32432EE0CA064B09002A00D15B1ECC
:104D3000059A9F02069B1F43009BD7520627029AA3
:104D40003A43039B1B88049FFB18002907D03E2988
:104D500033D8019F0F404908C919890235E0D15A5B
:104D6000344F0F40D752D15A069F2DE00F0E00004E
:104D7000808100001746DE065A09002E00D1521E1F
:104D800092023A434252E9692848294E002944D008
:104D900029788900635A40221A405B0402D4002A11
:104DA00002D03AE0002A38D06118234A303A0B8802
:104DB0001340224A9A180A802FE0CF064909002F93
:104DC00000D1491E069F89023943D15225E0115A6C
:104DD000184B0B401352135A0BE0115A154B0B4052
:104DE0001352135A0FE0F9067B09002900D15B1E0C
:104DF0009B02334313526A8908E0F9067B090029B4
:104E000000D15B1E9B02334313522A89BBB220465A
:104E1000059900F059F8B036074829788900625A98
:104E2000024072406252002007B0F0BD0F3F000008
:104E300080B00000FF8300003F0F0000C080000032
:104E40000080FFFF80C000008080000002464032EA
:104E5000002191804022024B835208467047C04691
:104E600080BF000080B50248FDF758F880BDC046FD
:104E7000580E00204421405A704710B58018012276
:104E8000920280185A08002A07D004880C70240A5D
:104E90004C70521E891C801CF5E7DA0701D000888F
:104EA000087010BD002902D14C21802242520020FE
:104EB00070474022012181520346403300219980EE
:104EC000032383520846704710B5801801229202CE
:104ED00080185A1C5208002A08D00B784C782402FB
:104EE000E3180380891C521E801CF4E710BD0000EB
:104EF000002805D40322034693430C4A9A1806E07F
:104F00000F220240083A03239A43074BD218800726
:104F1000C00E8901C9B28140FF23834010689843C5
:104F2000084310607047C0461CED00E000E400E05C
:104F30009AB0FCF72FFEFEF7C5FB002618961796D1
:104F4000169615960125E804FD4CA047A805A04734
:104F50006804A047A804A0476C03FA498C62A80320
:104F6000886203460B90E803886202460C90092091
:104F70000A90C1060E9104200D908862FA498D6254
:104F8000022701978F6288620820059088621020AE
:104F900006908862202007908862402008908862EE
:104FA000802009908862A80202908861E80203903C
:104FB000886128030F90886104948C618B618A61F9
:104FC0001496139610A870C010AFE84AE548394609
:104FD0001446904714961396129611950B981090BC
:104FE000E0483946A04714961396129611950C98EE
:104FF0001090DC483946A0471496139612961195E6
:105000000D9C10940E983946D84A904714961396E2
:10501000129611951095D4483946D44A9047149663
:1050200013961296119501981090CF483946CF4AA1
:1050300090471496139610A870C0CB483946CB4CB5
:10504000A047149513951296119502981090C64892
:105050003946A04714951395129611950398109010
:10506000C1483946A04714951395129611950F988B
:105070001090BD483946A047149513951296119586
:1050800004981090B8483946A04714951395129685
:1050900011950B981090B4483946A0471495139574
:1050A000129611950C981090AF483946A047149667
:1050B00013961296119505981090AB483946A04763
:1050C000149613961296119506981090A648394694
:1050D000A047149613961296119507981090A2481F
:1050E0003946A04714961396129611950898109079
:1050F0009D483946A047224614961396129611955C
:10510000099C1094984839469047994801680F22A5
:10511000914301600E9BD86896490840D8600320EF
:105120000C90020216A802811A680A401A601795AC
:105130002F021697FEF786F9FF2000068E490A68AF
:1051400082430A608D4804608D48016829430160EC
:1051500000682840109010980A9C2046314632463C
:10516000FCF77CFD2046FCF76DFD864C864841C46B
:1051700026606660A5600D98E06026616661C137B3
:10518000A661E66127626662A662E562083C204687
:10519000FBF700FF280712900F981190109610AFA0
:1051A00020463946FBF70CFE109520463946FBF7A2
:1051B00007FEFEF7EDF9754F75484D304F21754AE2
:1051C0003A607960BE60F8603E617E61BE611396B0
:1051D000129611963846FDF7D1FB0F98109010A942
:1051E0003846FDF72FFC1796169616A93846FDF798
:1051F0009FFB694C6948206065486060A660E56077
:105200002046103014210F91FAF7BAFF2046FCF720
:105210007BFB20463146FCF703FB20463146FCF77A
:105220001EFB28055E4C0C9B99045E4AA263E36357
:1052300026646664A164E064204650301821FAF7C1
:105240009FFF20463830FCF718F83846FDF7D4FBAE
:10525000257000F019F9304600F008F900F062F905
:105260001220514A31469047504C06CC50A0534F23
:105270002B46083CB84730460F994B4A904706CC1E
:105280004FA02B46083CB84728210F963046464A87
:10529000904706CC4CA02B46B84700F043F9FBF7EB
:1052A000B5FA3F4DAC682046FBF73FF8064620466E
:1052B0004749FAF777FFFBF738F864273946FBF7D9
:1052C000A5F80B462C46103420464249324600F0E1
:1052D000B7F9EE683046FBF728F8054630463C49FA
:1052E000FAF760FFFBF721F83946FBF78FF80B461A
:1052F0002B4F2437384637492A4600F0A1F93C267F
:105300001421304600F00AF9284806C80125204635
:105310002B4600F07FF92821304600F0FFF82348A3
:1053200006C838462B4600F075F900F0FBF81C481B
:105330004078022808D00128B1D1FEF729F90DE004
:1053400029340008000800482348FCF7E8FC234CF7
:105350002046FFF709F92046FEF75BFC0F9810493D
:1053600048709CE70008004800040048DD3400084D
:1053700010000140FFFFFCFF04E400E000E100E05A
:1053800014100240700D0020002401405011002034
:105390000B020000002C0140040E002000540040CD
:1053A000FC020020006400401D5500082C00002075
:1053B00053747279782E494E430000001556000848
:1053C000626174563A000000636170563A00000052
:1053D0000000C8423E660008580E0020AC0A0020BB
:1053E000F8B50C4606460A210091FAF7EFFF11487E
:1053F000405C114DA870B0B264273946FAF7E6FF59
:105400000C49095C29704743F01BC0B20099FAF7B8
:10541000DDFF0849085C68700020032809D0214698
:10542000C140C90703D0295C80220A432A54401C8A
:10543000F3E7F8BD2E660008B803002010B543B2AC
:10544000002B11D43F290FD807240C400123A3407F
:10545000C908C90108184249012A02D10A5C1A4345
:1054600001E00A5C9A430A5410BDC046002801D0EE
:105470000020C04301218902394A002903D010705D
:10548000521C491EF9E77047F8B56420FCF7E0F8B4
:10549000AE20344FB84720252846B847102630465E
:1054A000B847B020B847C820B84700242046B847BE
:1054B0003046B8474020B8478120B847FF20B8475A
:1054C000A120B847A620B847A820B8473F20B84732
:1054D000A420B847D320B8472046B847D520B847BE
:1054E000F020B847D920B8472220B847DA20B8477B
:1054F0001220B847DB20B8472846B8478D20B84768
:105500001420B847AF20B8472046FFF7AFFF00F0A0
:1055100009F83748448004800120F8BD344A51809E
:1055200010807047FEB500250D4E0E4F384C082DEB
:1055300015D028465038C0B2B8470020B8471020D0
:10554000B847642080210096019102907821402282
:1055500001232046FCF728FA80366D1CE7E7FEBDE4
:10556000BB030020F5550008F0B587B00593049201
:1055700003461F4C2088CAB20692121800207F2AC8
:1055800033D86288090ACCB2A1183F292DD80598D2
:10559000464246410193203B634302930025039416
:1055A000A5421CD002982818400004990F5A0024E4
:1055B0000698A04210D03846A0400004324600D5DC
:1055C000059A0B4908882018C0B249886918C9B2E1
:1055D000FFF734FF641CEBE76D1C039CE0E7044914
:1055E0000888069A80180880019807B0F0BDC04668
:1055F000F8020020F8B503A908700A2001230091E1
:1056000001930290024878210022FCF7CDF98FBD6A
:10561000040E0020F8B51C4615460E46074638789D
:1056200000280BD031462A462346FFF79DFF01464E
:105630007A1C387881421746F1D0F8BD0020F8BDB9
:105640000FB410B504A9074B02AA039800F032F872
:10565000044602A9002000F013F9204610BC08BC43
:1056600004B01847815800082021020C01D01021F5
:105670001046020A01D010460839020901D010462E
:10568000091F820801D01046891E420801D0881ED9
:105690007047081A704702E008C8121F08C1002AA4
:1056A000FAD170477047002001E001C1121F002AA3
:1056B000FBD17047FFB58DB00F460546002606E0CA
:1056C00025280AD0109A0F9990476D1C761C2878CF
:1056D0000028F5D1304611B0F0BD00240121674A01
:1056E000009400E004436D1C2B780846203B984052
:1056F0001042F7D128782E2815D104200443687869
:105700006D1C2A280AD101CF6D1C00900BE0009976
:105710000A225143303940186D1C00902878014608
:1057200030390929F3D92878692843D006DC0028C4
:10573000D0D063280BD0642804D13BE073280FD06D
:1057400075284CD0109A0F999047761C94E03878C1
:10575000694608720020487202A80190012003E007
:10576000386801900020C0433F1D61070CD500241C
:1057700000E0641C00998C420FDA8442F9DB019945
:10578000095D0029F5D108E0002400E0641C844292
:10579000FCDB0199095D0029F8D1361907E0019871
:1057A00001990078491C0191109A0F999047641E45
:1057B000F5D261E00A20019001CF002802DA4042D0
:1057C0002D2102E0210504D52B216A461172012109
:1057D00003E0E10701D02021F7E70C9104E00A2063
:1057E000019001CF00210C910BA90B9108E00199C8
:1057F000FAF7ECFD0A460B993032491E0B910A70FC
:105800000028F4D10B9803A9081A203001906007F2
:1058100001D5009801E0012000900199884203DD44
:1058200001460198081A00E000200024009006E0DC
:1058300002A8109A005D0F999047641C761C0C9882
:105840008442F5DB04E0109A30200F999047761CD3
:105850000099481E00900029F5DC08E00B980B9990
:105860000078491C0B91109A0F999047761C01996A
:10587000481E01900029F1DC6D1C28E70928010071
:105880000A68531C0B601070704700000000000095
:105890000000000000000000000000000000000008
:1058A00000000000000000000000000000000000F8
:1058B000000C000C000C000C000C000C000C000C88
:1058C000000C000C000C0000000C000C000000009C
:1058D00000000000001B001B001B001B001B000041
:1058E00000000000000000000000000000000000B8
:1058F0000000000000000000801980198019801944
:10590000C07FC07F80190033C07FC07F0033003369
:10591000003300330000000000000000001E003FC4
:10592000807580650074003C001E0007800580655E
:1059300080658075003F001E000400040000000028
:10594000007000D840D8C0D880D900730006000C81
:10595000801BC036C066C046C00680030000000041
:1059600000000000001E003F003300330033001E23
:10597000000CC03CC066806380618063C03E801CB8
:105980000000000000000000000C000C000C000CE7
:10599000000C0000000000000000000000000000FB
:1059A0000000000000000000000080000001000373
:1059B000000600060004000C000C000C000C000C9B
:1059C000000C000400060006000300018000002017
:1059D00000100018000C000C000400060006000671
:1059E0000006000600060004000C000C0018001061
:1059F00000200000000C002D003F001E00330000BE
:105A00000000000000000000000000000000000096
:105A1000000000000000000000000000000C000C6E
:105A2000000C000CC0FFC0FF000C000C000C000CB0
:105A30000000000000000000000000000000000066
:105A40000000000000000000000000000000000056
:105A500000000000000C000C00040004000800001E
:105A60000000000000000000000000000000000036
:105A7000001E001E000000000000000000000000EA
:105A80000000000000000000000000000000000016
:105A9000000000000000000000000000000C000CEE
:105AA00000000000000000000003000300030006E7
:105AB000000600060006000C000C000C000C00188C
:105AC000001800180000000000000000001E003F49
:105AD0000033806180618061806D806D8061806154
