:020000040800F2
:1000000090150020D5000008DD3400087F26000888
:1000100000000000000000000000000000000000E0
:10002000000000000000000000000000DF370008B2
:100030000000000000000000DD370008093800085B
:100040000501000805010008050100080501000878
:100050000501000805010008050100089D0E0008C3
:1000600005010008410E000805010008050100080F
:100070001506000889380008050100080501000878
:100080000501000800000000000000000501000854
:100090000000000005010008050100088126000895
:1000A0000000000005010008050100080501000826
:1000B000050100080000000005010008594F000874
:1000C0000348854600F058FA004800477950000878
:1000D000901500200C4880F308880C480168090E30
:1000E0000B4A914205D10B480B4901600B480C4962
:1000F00001600C4880470C480047FEE7FEE7FEE73A
:10010000FEE7FEE7FEE70000901500200400000077
:100110001F00000018100240010000000000014014
:100120000000000085380008C100000810B5202A32
:1001300004DB0846203AD040002110BD0B46D340D6
:10014000D0402024A21A91400843194610BDD2B2D3
:1001500001E00270401C491EFBD270470022F6E706
:1001600010B513460A4604461946FFF7F0FF20462D
:1001700010BD421C0178401C0029FBD1801A704739
:10018000024670B54A40D30FDB0740002DD04A002D
:100190002AD0010E140E000212020919400A520A56
:1001A0008418E50104465443000A120A2E04504301
:1001B000A4194219200CC543AA18120C0125AD033D
:1001C000521C521912047F39240400D0521C1043CF
:1001D00001D44000491EC2B20C06C0092018401CC0
:1001E0004008802A02D003E0002070BD4008400093
:1001F000002900DA0020184370BD0000F0B51FB4DC
:1002000088B00B990998002448400999C00F49000B
:1002100049080991C0070B990090490049080B91C2
:1002200009990898A64608431CD00B990A980843D8
:1002300018D0099801244000420D4800410D09984A
:1002400024050003000B204309900B980003000BCA
:1002500020430B9050181C4940180022019014466E
:10026000104605E0002001460DB0F0BD032801DA7C
:10027000034600E003239C46C11A0AAE0AE05F0071
:1002800008ADED5B4F00F75B7D430027AA187C416A
:10029000491C5B1E6145F2DD410004AB5A5221044A
:1002A000120C0A43240C401C0828DFDB0198029042
:1002B0000099704601910090059B049A0799069851
:1002C00000F008F9D0E700000DFCFFFF10B5002991
:1002D00004DB0C460121C9074042A141002B04DB8D
:1002E0001C460123DB075242A341101A8B4101D364
:1002F000012010BD002010BD10B50022962311462C
:1003000000F0A2F810BDC20F410040020123400AD4
:10031000DB05D207090EC0187F2901DA00207047DB
:10032000962903DC9623591AC84001E09639884083
:10033000002AF4D04042704770B5CD0F4A0009033F
:100340000123090B1B0519430B4BED070024520D2C
:100350009A4201DA002070BD074B34339A4203DC25
:100360009A1AFFF7E3FE02E00449511888402C4333
:10037000F1D0404270BD0000FF030000CDFBFFFF45
:10038000C20FD207400040080BD0C10D0723DB018C
:10039000C91840020905400A1143C2084007114329
:1003A000704700200146704770B50446002903D00D
:1003B00000202022012310E0002801D00020C043AB
:1003C000C046C0460DE02546D5408D4205D30D46BA
:1003D0009540641B1D46954040191546521E002D40
:1003E000F1DC214670BD000070B5002504462E46A4
:1003F000002911D0002C01DA01254442002901DA3C
:10040000012649422046FFF7CFFFB54200D04042C7
:10041000002D00D0494270BD002C02DA0121C9072D
:1004200002E0002C00DD03490846C046C0462146D4
:1004300070BD0000FFFFFF7F002904DA401C490067
:1004400001D140084000704770B40024050C05D16C
:100450001024000402D1002921D01124050E01D15D
:1004600000020834050F01D10001241D850F01D1C0
:100470008000A41C002801DB4000641C002908D077
:1004800020252E1B0D46F540A14000D00121294317
:10049000084301061B1B000ADB1D02D5002070BCAF
:1004A0007047DB05181880180029F8DA401C49004D
:1004B000F5D170BC40084000704710B5002B08DA39
:1004C0000024401C614192185B411A4301D140084D
:1004D000400010BDF0B51FB482B005460C0003D03B
:1004E000084605F01DF802E005F01AF82030024633
:1004F00000902146284600F051F8049B059A0446D6
:100500000F4618431143084314D0184610431BD01C
:10051000009840210A1A18460599FFF707FE05467C
:100520000E46009A0599049800F038F8084305D063
:10053000012004E02046394607B0F0BD0020C11775
:1005400005430E432C43374300990E986305401A28
:100550007905E40A00220C43FD0A0A3002D5002086
:100560000146E9E70105101969410C9C0D9D001930
:100570006941FFF7A2FFDFE7064C0125064E05E0C3
:10058000E36807CC2B430C3C98471034B442F7D3B4
:10059000FFF79AFD1C6500083C65000810B5202A8D
:1005A00004DB0146203A9140002010BD91402023F9
:1005B0009C1A0346E3401943904010BD70B58C1857
:1005C0000578401C6B075B0F01D10378401C2A1192
:1005D00006D10278401C03E006780E70401C491CCE
:1005E0005B1EF9D12B0705D40023521E0DD40B70CE
:1005F000491CFAE70378401CCB1A921C03E01D78D3
:100600000D70491C5B1C521EF9D5A142D8D30020A5
:1006100070BD000080B5A34800F003FD80BDC0465A
:1006200070B5044600688168002549071DD58168BA
:10063000490706D58168890703D4816810220A43D7
:10064000826001F00BF906462068806840070CD5EF
:1006500001F004F9801B0328F6D3606C10210143DC
:100660006164A06C01252843A064284670BD80B554
:100670000146806A426C50231A4204D0C06B426B20
:100680000846904780BD01214A02436C13434364EE
:100690000268D3681B059B0F02D000F0BFFC80BD31
:1006A000036A002BF9D113681B07F6D593685B0723
:1006B0000CD451680C2399435160FF210231426CE4
:1006C0008A43511C416400F0A9FC80BD426C202388
:1006D00013434364826C0A43826400F09FFC80BD34
:1006E00080B5806A416C40220A434264816C0422D6
:1006F0000A43826400F094FC80BD80B5806A00F0FB
:100700008EFC80BD70B504460068826803210A40F3
:100710000025012A23D10268D20702D1C26812043F
:100720001DD5826805231340012B1AD1826802234C
:1007300013438360016001F091F8064620688068E9
:10074000C0070CD001F08AF8801B0328F6D3606C38
:10075000102101436164A06C01252843A064284650
:1007600070BD606C102101436164A06C01252843B9
:10077000A064284670BD0000F0B581B00446002793
:1007800000970068816803220A40012A05D10168A8
:10079000C9070FD1C168090432D481681B4A1142CC
:1007A0000AD0606C102101436164A06C01252843CC
:1007B000A06428E03D4626E0816801252943816048
:1007C000134800681349FFF7EFFD009000980028D8
:1007D00002D00098401EF8E701F040F80646206875
:1007E0000068C0070ED101F039F8801B0328F6D34A
:1007F000606C102101436164A06C2843A06402E096
:100800003D4600E03D46284601B0F0BD170000809F
:100810008C01002040420F00F0B581B02148224DEC
:100820000222294600F062FD7D20C40001271F4EF0
:1008300000213046224600F099FE7F1EF8D019486C
:1008400000F09CFD2888FFF757FD1949FFF798FC39
:10085000184908606888FFF74FFD1749FFF790FCBB
:10086000164D2860FFF78CFD154A164BFFF72EFD3D
:100870000246401E82410920C006042100F0E5FF27
:100880002868FFF77DFD00220F4BFFF7B7FCFFF74D
:1008900053FD012104F0CAFC204600F0F7FE01B030
:1008A000F0BDC046E00F0020BC0C00202C10002042
:1008B00066666E3BB40C002066661E3BB80C0020DA
:1008C0003333333333331540000059400020704731
:1008D00000207047B0B57C4C0549002520462A46CB
:1008E00003F069F90349204603F05DF92846B0BDDD
:1008F000E80B0020200B0020F0B587B00446724DB5
:100900002846214603F04FF9284603F02DF901252A
:10091000E803069020784538342800D957E0C046CF
:1009200078440079400087441A525252525252522F
:1009300052525252232C523552523E524752525228
:1009400052525252525252521A52525252525252BF
:1009500052525252232C523552523E5247005B4E55
:10096000B078002800D190E1012830D1ECA02BE034
:10097000FC4E3078002800D192E1012827D1ED48C3
:1009800022E0F84EF078002800D194E101281ED131
:10099000EEA019E0F34E3079002800D196E101284D
:1009A00015D1FCA010E0EF4E7078002800D198E13E
:1009B00001280CD1E0A007E0EA4E7079002800D1B0
:1009C0009AE1012803D1EBA0112100F021FA20784F
:1009D00001464339372900D93CE1E24EFC4F8900FA
:1009E00001A2525806999746D10A0008550C0008F2
:1009F000550C0008550C0008550C0008550C000853
:100A0000550C0008550C0008550C0008550C000842
:100A1000550C0008550C0008550C0008550C000832
:100A2000550C0008550C0008550C0008550C000822
:100A3000550C0008550C0008550C0008DB0A00088E
:100A4000550C0008E30A0008550C0008550C000876
:100A5000550C0008550C0008550C0008550C0008F2
:100A6000550C0008550C0008D10A0008550C000868
:100A7000550C0008550C0008550C0008550C0008D2
:100A8000550C0008550C0008550C0008550C0008C2
:100A9000550C0008550C0008550C0008550C0008B2
:100AA000550C0008550C0008550C0008550C0008A2
:100AB000550C0008550C0008550C0008DB0A00080E
:100AC000550C0008E30A00081C0D0020F00200206D
:100AD000A448861C6903BF4F03E0A248461CA90333
:100AE000BD4F01229E4800F0B0FE0B21384600F0B9
:100AF0008FF90020307020782027384361283AD1C0
:100B0000984E3078012804D000229548069900F0CC
:100B10009CFE7078012804D0A9030022904800F0C0
:100B200094FEB078012804D0690300228C4800F0BC
:100B30008CFEF078012804D029030022884800F0B8
:100B400084FE3079012804D0E9020022844800F0B4
:100B50007CFE7079012804D0A9020022804800F0B0
:100B600074FEA3480D2100F053F935707570B5700F
:100B7000F5703571757120783843732811D19D480F
:100B80000E2100F045F93F2081020122744800F057
:100B90005CFE7448002141710171C1708170417027
:100BA0000170207838436D2807D1934D2846FFF710
:100BB000E0FA81B2284600F02BF9207838436B2800
:100BC00045D18E4800688E4C2146FFF7D9FAFFF7D1
:100BD0009AFB054664263146FFF706FC069031462F
:100BE0004143681A0A273946FFF7FEFB05908548FE
:100BF00000682146FFF7C4FAFFF785FB044631463B
:100C0000FFF7F2FB04904643A61B20463946FFF748
:100C1000EBFB0C4628463946FFF7E6FB0D4630460F
:100C20003946FFF7E1FB03460094069801900598CA
:100C300002900395744C75492046049A04F05CFCBC
:100C40002046FFF796FA81B2204600F0E1F8002036
:100C500007B0F0BD42388101C0B280084018C2B26E
:100C60000D2A00D947E73F4829469140FF2202322A
:100C700011424CD15A4A11424DD15A4A114200D127
:100C800039E7C61C2903554F2BE769030022344876
:100C900000F0DBFD47A00A2100F0BAF8B57096E637
:100CA00000222F48069900F0D0FD48480A2100F0A4
:100CB000AFF835708BE629030022294800F0C5FD06
:100CC00039A00A2100F0A4F8F57080E6E9020022BC
:100CD000234800F0BAFD2CA00A2100F099F83571E4
:100CE00075E6A90300221E4800F0AFFD34A00A21DA
:100CF00000F08EF875706AE6A9020022184800F02C
:100D0000A4FD19A00A2100F083F875715FE6061DA5
:100D1000E902364FE5E6461DA902334FE1E6C0463B
:100D20002350573320416C7265616479204F6E0DFA
:100D30000A000000086500082350573220416C72F9
:100D400065616479204F6E0D0A000000235057340E
:100D500020416C7265616479204F6E0D0A000000BD
:100D600000040048F0020020505736203A204F4E31
:100D70000D0A00002350573620416C72656164797A
:100D8000204F6E0D0A000000505735203A204F4E7C
:100D90000D0A00002350573520416C72656164795B
:100DA000204F6E0D0A000000505734203A204F4E5D
:100DB0000D0A0000505733203A204F4E0D0A000014
:100DC000505732203A204F4E0D0A0000D9640008D7
:100DD000826400089A6400088E640008A664000813
:100DE0000808000020200000BE640008B26400086B
:100DF000E4640008CA64000826000020B80C002043
:100E000000002041B40C0020D40C0020F264000843
:100E100010B50A4601465720C000084B18588523D4
:100E20009B00C058002801D0012010BD034C204673
:100E300002F0C1FE204602F03CFF10BD1C0D002058
:100E400080B5024800F014FB80BDC0462C10002085
:100E500010B504460548206420680549401814214F
:100E6000FFF7A2FA8000606410BDC0460000024097
:100E7000F8FFFDBF70B5046C456C0126AE4066609E
:100E80000468636040681028134600D00B46A360D6
:100E9000102800D01146E16070BD000010B501F0CF
:100EA000F9FF002813D001F06BFF094800780028F3
:100EB0000DD00920C0060124210200F0C1FC012848
:100EC00002D10448047010BD02480221017010BD17
:100ED000B00C00208413002070470000B0B5094911
:100EE00008688A6810180BD04C68074DA91C0822A6
:100EF00001F026FF123504222046294601F020FF8A
:100F0000B0BDC046ACF7FF1FC8020020F0B583B0EB
:100F1000044600270297006C012802D1022003B08A
:100F2000F0BD012020642668B268520715D40197ED
:100F3000A0C901221046A840314B08399F4213D165
:100F4000B16A8143B162284610380228019F3846B1
:100F500007D8112D19D02F4818E0616C20220A43C0
:100F60006264276403B0F0BDB36A0343B362A06B4D
:100F7000431E072B32D2284610380228019F3846DC
:100F8000EFD8112D0BD010060AE02148102D00D10A
:100F900021481C490A6802400A603846E1E790058A
:100FA000102D00D1D00517490B6803430B60102D9D
:100FB0003846D6D1144800681449FFF7F5F90A21DC
:100FC00041430291029800283846CAD00298401E38
:100FD000029002980028F9D13846C2E713079842D8
:100FE000C9D073690720034089689942C3D07369E7
:100FF000834373610140706908437061BBE7C04679
:1010000001100000082701408C01002040420F0021
:10101000FFFFBFFFFFFFFFFEFFFF7FFF704770472F
:10102000704710B5044600680168490702D5416859
:10103000490705D40168090730D5416809072DD54E
:10104000616CC90604D401214902626C0A436264DE
:10105000C1680905890F1BD1216A002918D10168CF
:10106000090715D5816849070AD441680C229143C4
:101070004160FF200230616C8143481C606407E0DE
:10108000606C202101436164A06C01210143A164D3
:101090002046FFF7C3FF20680C210160206801682B
:1010A00009060DD5406800060AD501200004616CD0
:1010B00001436164204600F0C3F82068802101608C
:1010C00020680168C90614D54168C90611D5616B4D
:1010D000012902D0C168C90708D0A16C02220A43C5
:1010E000A264102101602046FFF79AFF20681021BA
:1010F000016010BDF0B581B0002861D004460546FE
:101100004435406C002805D100202064A0642046AE
:1011100000F098F82868C0064BD420688168490719
:1011200047D4812149002A688A43911C296082683A
:1011300003210A40012A05D10268D2070ED1C268F4
:1011400012040BD4C26818239A43A3681343C360E4
:10115000890702698A43616811430161C168364A9F
:101160000A40C260616B491E4A1E91410903A2698F
:101170009203E369DB031343226A56031E43E368C9
:10118000276933430B43B91E4E424E41B6001E43FE
:10119000216B49003143636A012B17D1002A12D019
:1011A000626C202313436364A26C01231343A36482
:1011B0000CE02868102101430120296001B0F0BD36
:1011C000012001B0F0BD012212041143A26AFF23E5
:1011D000C2339A4202D00A43E16A1143C2680A4309
:1011E000C260A26B531E072B20D243690726B3436C
:1011F00043613240436913434361C0680F4A024070
:101200008A4207D10020A064626C012111430222AE
:101210009143D2E7606C1021014302208143616455
:10122000A16C0120014348342546C6E701231B0772
:101230009A42DAD0E1E7C0461902FEFFE7FF3F839A
:1012400070470000F0B587B0044600260696059664
:1012500004960396029600682049884201D007B0A0
:10126000F0BD012778021E494A6802434A604A6875
:1012700002400192019878040A6802430A600968F2
:1012800001400191049603200390029001980920E7
:10129000C00602A900F00CFA124D2020B9023A0251
:1012A0008023114F2F606E60AE60EB602A61696130
:1012B000A861EE61284600F02BF9002801D0FFF765
:1012C0000BFEAC62E5630C24002120460A4600F0C8
:1012D000D9FC204600F0D2FC07B0F0BD002401404C
:1012E000141002402C10002008000240F0B581B01C
:1012F0000446006880680226400733D4206C012829
:1013000030D015460F4601262664E069012804D036
:101310002046FFF731FA002824D1606C13490140C0
:1013200001221002081860640026A66421681C20AF
:1013300008604868102303434B602664E06B0E4B43
:10134000C3620C4B03630A4B4363CB681343CB600C
:1013500040313A462B4600F069F920688168042242
:101360000A438260304601B0F0BDC046FEF0FFFF88
:10137000E1060008FB0600086F060008B0B5044649
:10138000006C012801D10220B0BD01252564204652
:10139000FFF746F900281FD12068C1680122914358
:1013A000C160E06B00F028F8002819D00546606C99
:1013B00040210143616420684168102291434160EB
:1013C0002046FFF79FF9002D06D1FF200230616C07
:1013D0008143481C60640025002020642846B0BD7D
:1013E000206841681022914341602046FFF78AF946
:1013F0000546002DF0D1E8E710B5416A022910D169
:1014000001680A680E239A430A600A6801239A4316
:101410000A60016C426C1C4694404C60436200219F
:1014200002E00421C163012100220262084610BDCE
:1014300010B5416A022916D101680A680E239A4341
:101440000A600A6801239A430A60016C426C1C46D8
:1014500094404C60002404624362816B002900D0F8
:101460008847204610BD0421C1630124204610BDD9
:10147000F0B581B0016C436C00910C68026815688E
:101480006E0712D504210F469F403E4626400CD0E1
:1014900013689B0602D413688B43136000994F6056
:1014A000016B002918D101B0F0BDA90717D502269C
:1014B0009E403146214012D01168890605D411683A
:1014C0000A239943116001214162002101620099C0
:1014D0004E60C16A0029E6D0884701B0F0BD2907F7
:1014E000E1D5082199402140DDD011680E24A143A7
:1014F000116001210A469A40009B5A60C163002294
:1015000002624162416B0029CDD0884701B0F0BD35
:10151000F0B583B0002823D0044602206062E2CCFC
:10152000236860680090A0680190E06802900868F5
:101530000D4A02402A4332433A431A430098024379
:1015400001980243029802430A60103C2046FFF7CC
:101550007FFC0020E06320620121616203B0F0BDE6
:10156000012003B0F0BDC0460FC0FFFFF0B581B051
:101570000446406A022809D12068006880060CD41D
:1015800016460D4600290DD004270CE000202062ED
:101590000420E063012001B0F0BD01200102E163FD
:1015A00001B0F0BD0227606C874000F057F9034698
:1015B000216C0868384206D0606C002D12D00422DD
:1015C00082404A6013E0626C0868D040000712D580
:1015D0000120034693404B60E0630021216260627A
:1015E00001B0F0BD022282404A600120606200200A
:1015F000206201B0F0BD0093701C07D0002E0FD008
:1016000000F02CF9009BC01AB04209D8216C086880
:101610003842D1D1626C0868D0400007ECD5D7E7DA
:101620002020E063002020620120D8E7F0B581B0DF
:101630000546006A0224012825D001262E62686A28
:10164000012812D1022068620024EC632868076830
:10165000B74307602846FFF70DFC286801682A6B2E
:10166000002A05D00E22114308E0002028620AE07B
:101670000A22114301600168042291430160286835
:10168000016831430160204601B0F0BDB0B50446A9
:1016900000F0E4F80546601C02D004480068041914
:1016A00000F0DCF8401BA042FAD3B0BDE4020020F9
:1016B000F0B58BB008900A68002A00D1B1E00B4663
:1016C00059480899814201D0052000E0022000908D
:1016D000012400252F46039407930BE03143534820
:1016E000C1601A681046E040AD1C3F1D641C002814
:1016F00000D196E0601E039E09908640324005921C
:10170000EFD0049406975868102101431229089FCE
:1017100010D11C20069908400F218140099AD30856
:101720009B00FB181A6A8A43079909698140114393
:101730001962079B03242046A8403A6882435968EF
:101740000B4602942340AB4013433B60C043122935
:1017500014D801228A40374B1A420FD0089FBA682A
:101760000240079BDB68AB401343BB60CA06D20F45
:10177000099B9A407B68B34313437B60089EF268E1
:101780000240079B9868A8401043F060C800069F7D
:10179000049CA6D526490868012210430860086801
:1017A000019210400A900C2038400F218140099F7F
:1017B000029A97430A9A204ABE588E43BF180921BD
:1017C000C906089A8A4205D01C498A42009902D16A
:1017D000019900E0002181403143396013480168DC
:1017E0005868C20302D5059E314301E0059EB1430E
:1017F000069F0E4A11605168820301D5314300E013
:10180000B1430A4A51609168C20201D5314300E0F8
:10181000B143064A9160D168800200D55EE7B143CA
:101820005DE70BB0F0BDC046000800480004014071
:10183000181002400600060008000140000400489D
:1018400000690840411E88417047002A02D01822D2
:10185000815070472822815070470000DF4800689F
:101860007047C046B0B5436C0222202B17D1036CE1
:10187000012B14D024224264026813680124A3437C
:101880001360230315689D43156013680B431360B1
:101890001168214311600022026420214164104636
:1018A000B0BDB0B5436C0222202B17D1036C012BC5
:1018B00014D024224264026813680124A3431360F5
:1018C0000F231B0215689D4309022943116011680B
:1018D0002143116000220264202141641046B0BD02
:1018E00070477047F0B581B001688C690A68802341
:1018F00013400122E50506D5002B04D01502C66C65
:101900001643C664CD61650507D5002B05D0950249
:10191000C66C08273743C764CD61A40507D5002BE3
:1019200005D05202C36C02241C43C464CA61C16C5A
:101930000B22114201D000F049FF01B0F0BD80B58B
:1019400002689169436B1268002B00D0984780BDF4
:101950007047000070B500281ED00446406C002877
:1019600004D100202064204600F0F2F824206064B6
:101970002068026801218A4302600F221206636810
:10198000934303618368174A13408360E368012B24
:1019900004D02125AD0202E0012070BDCD03A66870
:1019A0002E438660022B01D1CB02436043680E4D6B
:1019B0001D434560C3681340C360226963691343D4
:1019C000A26912021A43C260E269236A13430360E8
:1019D00002680A4302600020E06420216164206301
:1019E000A06470BDFF7FFFFF008000027047000011
:1019F000F0B589B00546406C0224202838D10E9FEE
:101A0000002F32D016460F9A002A2ED0286C0128BB
:101A10002ED008920593079101242C64FFF71EFF36
:101A200004900090E10319232846224601F002F9B0
:101A300000281DD11099212068644020A86400204E
:101A4000E8646F6206906863089868850891009161
:101A5000049F0197284607993246059B01F01AF822
:101A6000002808D00698286402E001246002E86497
:101A7000204609B0F0BD012426066306688D000AE1
:101A8000059603930AD0FF222A850020009028465D
:101A90000799334601F0B8F8069E08E0688D28855E
:101AA000069E0096C2B22846079901F0ADF8089B41
:101AB0000DE0688D28850096C2B228460799039BE1
:101AC00001F0A2F8069E089B688D00282BD02846BE
:101AD00019463A4601F006F90028C9D12868696A12
:101AE0000A788262688D401E6885481C6862288D6D
:101AF000411E2985688D0904089BE5D10028E3D0A3
:101B00000097802100262846324601F093F80028ED
:101B1000AED1688D000ACCD0FF222A8500962846D7
:101B20000799059BCCE7284619463A4601F0B5F8D7
:101B300000289DD128682021C1614268034B1340D1
:101B4000436069642E64AE64344691E700E800FEA9
:101B5000B0B586B0002105910491039102910191E5
:101B600000681649884201D006B0B0BD0125A8051D
:101B7000134C2168014321602168014000910595C3
:101B800003200490039512210291019000980D48C2
:101B900001A9FFF78DFD6805A1680143A160A16857
:101BA0000140009100981724002120460A4600F0C9
:101BB00069F8204600F062F806B0B0BD005400405D
:101BC0001410024000140048704770471B4800681A
:101BD00002490A68101808607047C0468813002040
:101BE00010B50648016810220A430260002420460E
:101BF00000F006F800F028F8204610BD0020024052
:101C0000B0B504467D20C0000C490968FEF7CCFB46
:101C100001460B480068FEF7C7FB00F073FB012587
:101C2000032C09D8002807D10025E84321462A467D
:101C300000F028F8034804602846B0BDE402002004
:101C40008C010020E802002082B0094801680122CE
:101C50001143016001681140019101991107426827
:101C60000A434260406808400090009802B0704704
:101C70001810024080B503F0B5F980BD80B503F0BF
:101C8000C5F980BD80B503F0D7F980BDF0B5026815
:101C90005423D15A01242143D15299218D0000218E
:101CA0004151D65A02273743D7524019846008461B
:101CB000F0BD704710B50C060CD54907090E401849
:101CC0002830002A0DD0038101210173190C4181B4
:101CD000002010BD490140182521C9004018002AE4
:101CE000F1D1C38000210173002010BD80B59D2279
:101CF000920083584A018018C26B184602F001FA1C
:101D000080BD80B59D22920083584A0180184F22E1
:101D100092008258184602F05CFA80BDB0B50028E7
:101D20000DD004468B20850003206051204600F032
:101D3000C2FA204600F02EFA00206051B0BD01200A
:101D4000B0BD10B54521C9004258012A01D1022079
:101D500010BD441801212160006802F0FDFE002042
:101D6000206010BD10B507220A40090609D45101B0
:101D70004118FF232A330024CC542523DB00C91843
:101D800005E05101411829230124CC5428310A705F
:101D90004522D2008358012B01D1022010BD8418A6
:101DA00001222260006802F067FE0020206010BD62
:101DB000B0B50F220A4043689A4201D90120B0BD54
:101DC00007220A40090609D451014118FF232A338A
:101DD0000024CC542523DB00C91805E0510141182B
:101DE00029230124CC54283100248C700A70452208
:101DF000D2008358012B01D10220B0BD85180122E9
:101E00002A60006802F0CCFE2C602046B0BD490775
:101E1000090E4018512189004058704770B50724B9
:101E20000C40090609D461014118FF252A35002616
:101E30004E552525ED00491905E061014118292578
:101E400001264E5528310A61CB700C704A78002A61
:101E500000D0CC81022B01D100220A714522D20090
:101E60008358012B01D1022070BD84180122226009
:101E7000006802F0E7FC0020206070BDB0B50724C8
:101E80000C40610141182525ED004C5549190024ED
:101E90000D4614351CC54C70006802F0D5FE204676
:101EA000B0BD70B5044607250D404068854201D994
:101EB000012070BD080609D448012018FF212A31ED
:101EC000002242542521C900411805E0680121186B
:101ED000292001220A5428310D70012088704522E2
:101EE000D200A358012B01D1022070BDA61830608A
:101EF000206802F08DFE002D05D18D208000211874
:101F0000206802F04BFE0020306070BDB0B50724A1
:101F10000C406101411828254C55283100240D46FC
:101F200014351CC501224A70006802F08DFE20465F
:101F3000B0BD0000F0B581B00446006803F012F8AF
:101F4000000402D5204601F0CBFA206803F00AF81D
:101F500040050CD520684421425A524B134043524D
:101F6000204600F049F90021204600F070F999253B
:101F7000206802F0F7FF400405D520684421425A4A
:101F8000494B13404352AD00206802F0EBFF800440
:101F900005D520684421425A444B134043526719E7
:101FA000206802F0DFFFC0041AD520684021425AA1
:101FB00004239A434252425A08239A4342523868B1
:101FC000012804D1002139602046FFF772FE204627
:101FD00000F024F920684421425A354B1340435203
:101FE0000125206802F0BEFF00051BD528030090E4
:101FF00020684021425A082313434352024640328C
:1020000093882E462B4D1D4095803546425A042319
:102010001343435202F0A6FF0099084202D1204622
:1020200000F05EF9206802F09DFF00061FD52068D1
:102030004421425A80239A4342523968002903D0EE
:10204000204600F04DF912E04030018804220A4396
:102050000280018808220A4302803D60808A80084D
:102060003C210140796020462946FFF722FE206886
:1020700002F078FF800508D520684421425A0E4BB3
:1020800013404352204600F0DBF8206802F06AFF5C
:10209000C00505D520684421425A084B13404352DD
:1020A00001B0F0BDFFFB0000FFBF0000FFDF00003C
:1020B000FFEF0000FFF70000FFFD0000FFFE000043
:1020C000F0B589B0002860D004464520C00025182E
:1020D0006868002804D100202860204600F06AF8D3
:1020E000032008956860206802F04EFD61680029B1
:1020F00014D061680020034602465B01E3182825DE
:102100005A552833D5B2DD8101255D7018615861BB
:102110009861D870521CD3B29942EED82046243030
:102120000790002911D00020034602465B01E31806
:102130002525ED005A555B19186158619861D870D2
:102140005870521CD3B29942F0D8A0680590E0684C
:10215000069027461037E0CFE269236A2068009591
:102160000196029703920493059A069B02F0FEFCE7
:10217000002507980570012008994860E06901284A
:1021800004D12046FFF782FD00E00125284609B072
:10219000F0BD000080B500681549884200D080BDC0
:1021A0000120C00513490A6882430A601F20FFF717
:1021B00061FD80BD10B582B000680D49884201D034
:1021C00002B010BD0120C0050A490A6802430A6036
:1021D00009680140019101981F24002120460A4608
:1021E000FFF750FD2046FFF749FD02B010BDC04685
:1021F000005C00401C100240B0B504468068022814
:1022000001D0FEF769FE9D2085006059012102F092
:10221000DCF8605902F097F8B0BD000010B5044634
:102220008069002806D03648016806229143016083
:1022300001F0EEFA9D208000205802F0AEF810BDAB
:1022400080B59D218900405802F0B1F880BD10B5DD
:102250004522D2008358012B01D1022010BD8418E1
:1022600002462432117001222260006802F092FEC0
:102270000020206010BD80B59D21890042588D212D
:1022800089004118104602F0ADF880BDB0B5044693
:102290004520C0002158012901D10220B0BD2518D8
:1022A00001202860206802F04FFC206802F04AFEFE
:1022B00000202860B0BDB0B504464520C0002158BC
:1022C000012901D10220B0BD251801202860206815
:1022D00002F05AFC206802F066FE00202860B0BDC3
:1022E00010B504469D208000205802F0C8F8A0696F
:1022F000002804D00248016806220A43026010BD8B
:1023000010ED00E080B501F06BFA80BD70477047BA
:10231000B0B5C26B012A01D10220B0BD0222026415
:102320000122C26303685C687025AC430D682543D5
:102330009C685D609507AB4205D0CB4DAB4202D0A7
:10234000064DAB4204D18025AC43496821439960D6
:102350000021C16302640846B0BDC04600040040CD
:1023600010B5002812D00446006C002804D10020CB
:10237000E063204600F00CF8022020642068211D54
:1023800001F08AFA01202064002010BD012010BD58
:1023900010B582B00068B449884201D002B010BDC7
:1023A0000120C00209490A6802430A600968014025
:1023B000019101980D24002120460A46FFF762FC96
:1023C0002046FFF75BFC02B010BDC046181002406B
:1023D0000068C26801210A43C26082680723134073
:1023E000062B02D002680A430260002070470000FA
:1023F00070B50446C06B012801D1022070BD0220D7
:1024000020640126E66320688268294B13408360BC
:102410000A683F2A14DD5F2A19DD602A28D0730379
:102420009A422CD0702A3ED14A688D68CB682946E2
:1024300001F082FA2068816877220A43826032E0E4
:102440001F2A0FDC002A11D0102A0FD02BE0402ABF
:1024500021D0502A27D1CA68496801F080FA206843
:1024600050211EE0202A01D0302A1CD1114618E04C
:10247000CA68496801F084FA2068602111E04A685E
:102480008D68CB68294601F057FAB00321688A6845
:1024900002438A6007E0CA68496801F060FA206870
:1024A000402101F054FA0020E063266470BDC0466C
:1024B0008800FFFF7047B0B504468020C543206800
:1024C0000169890716D5C168890713D529467E3168
:1024D00001610121E1618069800703D02046FFF797
:1024E000E9FF05E0204600F08AF8204600F088F871
:1024F0000020E06120680169490717D5C1684907D4
:1025000014D529467C3101610221E1618069800591
:10251000800F03D02046FFF7CDFF05E0204600F0F6
:102520006EF8204600F06CF80020E0612068016938
:10253000090716D5C168090713D529467831016105
:102540000421E161C069800703D02046FFF7B2FF94
:1025500005E0204600F053F8204600F051F8002036
:10256000E06120680169C90617D5C168C90614D59C
:102570002946703101610821E161C0698005800F41
:1025800003D02046FFF796FF05E0204600F037F81D
:10259000204600F035F80020E06120680169C90795
:1025A00008D0C168C90705D029467F31016120469E
:1025B00000F028F820680169090606D5C1680906F7
:1025C00003D505612046FFF7A1FE20680169490691
:1025D00008D5C168490605D5294640310161204624
:1025E00000F04CF820680169890607D5C1688906A2
:1025F00004D5603505612046FFF789FEB0BD704700
:1026000070470000F0B581B000681749884201D0DA
:1026100001B0F0BD154D288801242146814089B2C2
:1026200013482246FFF711F92888401C81B20F2970
:1026300000D90D2028800F4FFF2100263846324652
:10264000FFF703F928880C4940180D3801783846FF
:102650002246FFF7FAF828888440A1B2044832469F
:10266000FFF7F3F801B0F0BD002C0140240000207A
:102670000008004800040048FC0600207047FEE700
:1026800080B50748006880694005400F03D00448C2
:10269000FFF728F980BD0248FFF751F980BDC04619
:1026A0007410002080B5806A816B00228A63C16B40
:1026B0008A63416C602904D120214164FFF710F93D
:1026C00080BDFFF745F980BD10B5CA0703D10022D0
:1026D0008B0708D411E0426C28231340282B09D023
:1026E000F2228B0709D5436C28241C40282C08D0E3
:1026F000F42307E042228B07F5D41346490706D599
:1027000003E044231343490701D5B8210B43006874
:1027100001689943016010BD00688169890701D58E
:10272000002181628169C90703D1816901220A43BD
:1027300082617047F0B581B00446406C28210140A9
:10274000206828291BD1816983698268C668FE25B3
:102750001F0CC903CB0FE168022916D1D1097940BA
:102760004907890F20D02E40042120461D46FFF73F
:10277000ABFF0020206420462946324610E00021AD
:1027800021640821C16101B0F0BD042120461E462C
:10279000FFF79AFF002020642F40204631463A463A
:1027A000FFF79FF801B0F0BD216D491C2165216D37
:1027B0000229E8D104490A40002121652164082149
:1027C000C16120461946EBE7FF030000B0B504469F
:1027D000406C0025A564804AE2626585E26C0A438C
:1027E000E2642838022806D803212046FFF76CFF50
:1027F0002648282109E007212046FFF765FF606C85
:102800006028284602D02021284661642563606341
:1028100020680268016852040CD409041BD4606C5F
:1028200060282CD100202064202060642046FFF71F
:1028300057F8B0BD0122920391430160A06B0028BC
:1028400022D00021216412498163FEF7F1FD0028A6
:102850001AD0A06B10E00121C90302688A4302600C
:10286000E06B002810D00021216409498163FEF744
:10287000DFFD002808D0E06B816B8847B0BD0020E9
:1028800020642046FFF764F8B0BDC046052B000861
:10289000A5260008B0B50446DA48E06200252563A5
:1028A000202060646563A564480712D5606A2168CA
:1028B000496A0170606A401C6062208D002808D05F
:1028C000618D491E6185401E2085E06C0421014315
:1028D000E16407212046FFF7F7FE256420681021F8
:1028E000C1612046FFF782F8B0BDC046F0B581B0A7
:1028F0000D4604460068076820210091C161072148
:102900002046FFF7E1FE0120C603206841683143FD
:10291000416041685E4A0A4042602046FFF7FCFE83
:10292000780405D4374209D0E06B002803D105E0D4
:10293000A06B002802D0006840686085680710D549
:10294000606A2168496A0170606A401C6062042004
:102950008543208D002804D0401E2085608D401EB8
:102960006085608D002803D0E06C04210143E164A0
:1029700000272763A7646763E06C00280CD0E16C34
:102980002046FFF723FF606C282823D120462946E4
:10299000FFF780FF01B0F0BDE06A9A4DA8420AD16E
:1029A0002764606C00996164222810D12046FFF7EB
:1029B0000BF901B0F0BD204600F010F8E562276485
:1029C000009860642046FFF711F801B0F0BD204682
:1029D000FFF7FBF801B0F0BD0000FFFFB0B5044603
:1029E00000258564406C29280CD1282060642120B2
:1029F000206301212046FFF767FE25642046FFF78C
:102A0000E4F8B0BD606C2A280BD128206064222035
:102A1000206302212046FFF757FE25642046FFF77A
:102A2000D3F8B0BD70B5044600688069C00601D413
:102A3000002070BD0E4620688169890610D41546B5
:102A400003E02068816989060AD4701CF9D0FEF77A
:102A500005FF2021002E10D0401BB042F1D90CE020
:102A60001021C1612021C1612046FFF755FE206879
:102A70004168074A0A4042600421E06C0843E06470
:102A80002020606400202064A064012070BDC04646
:102A900000E800FEF0B583B01D46029204461848D7
:102AA0000090DAB201200306204600F0ADF8089E3F
:102AB000099F204631463A4600F014F9002802D01A
:102AC000012003B0F0BD012D0AD020680299090A47
:102AD0008162204631463A4600F004F90028EFD1E1
:102AE00020680299C9B281620097802100222046A5
:102AF000334600F09FF8411E884103B0F0BDC04648
:102B000000200080F0B581B00446C36A006C012843
:102B100002D1022001B0F0BD16460D460127276400
:102B20000E40B00605D5204629460093FFF7DEFE8D
:102B3000009BF00615D4700725D4300745D4B007A4
:102B400056D5608D002857D02068616A0A78826265
:102B5000481C6062208D401E2085608D401E60856F
:102B600046E0608D002825D020681021C161E06C0E
:102B700004210143E1642248034239D1E16C20463B
:102B8000FFF724FE34E0608D00280CD0606A2168D5
:102B9000496A0170606A401C6062208D401E208579
:102BA000608D401E6085608D16498B4220D00028C4
:102BB0001BD01DE0606C79068B420AD1282808D111
:102BC00020462946FFF766FE12E02046FFF7B2FDD9
:102BD0000EE0606C21681022CA610A498B4207D05E
:102BE000292805D12046FFF797FD2046FFF7F6FE7E
:102BF0000020206401B0F0BD01480342F8D1F4E7A1
:102C0000FFFFFFFE0000FFFF70B5049C650D00682C
:102C10004668AE43054D3540054E0E401E43110437
:102C2000314321432943416070BDC046009C00FCF4
:102C3000FF030000F0B583B00F46044600688069CA
:102C40000840401A414241410020914223D11D4693
:102C5000164601900898029007E020688069384085
:102C6000C01B41424141B14214D1681CF5D0FEF76E
:102C7000F5FD002D03D00299401AA842EDD9E06C71
:102C800020210843E064616400202064A0640120E6
:102C900003B0F0BD019803B0F0BDF0B581B01646A9
:102CA0000F46044620688069800617D420463946BE
:102CB0003246FFF7B7FE0125002810D1FEF7CEFD02
:102CC000002F02D0801BB842ECD9E06C20210843D1
:102CD000E064616400202064A06400E000252846D0
:102CE00001B0F0BDF0B581B00446006880690027EE
:102CF000800722D415460E46009703E020688069BD
:102D0000800719D4204631462A46FFF78BFE01275B
:102D1000002812D1701CF1D0FEF7A0FD002E02D0C9
:102D2000401BB042EAD9E06C20210843E0646164B2
:102D300000202064A06400E0009F384601B0F0BD90
:102D400010B504E037330B70521E891C0001002AB5
:102D500007D000234B70440F030F052CF2D2303301
:102D6000F1E710BD81B005490A6802430A600968AD
:102D700001400091009801B07047C0461410024015
:102D800001200002464908607047C0460E490A68A3
:102D900082430A607047C0460F490A6882430A604E
:102DA0007047C04610490A6882430A607047C046AF
:102DB00011490A6882430A607047C04602490A689E
:102DC00002430A607047C0460404014002490A6891
:102DD00002430A607047C0460C04014002490A6879
:102DE00002430A607047C0460004014002490A6875
:102DF00002430A607047C04608040140B0B504466B
:102E00000068616800290ED0002814D0217A0229B8
:102E100014D0012915D000291AD1FFF7B7FF206877
:102E2000FFF7DCFF12E0FFF7BDFF2068FFF7AEFF02
:102E300000252846B0BD00252846B0BDFFF7CEFFCF
:102E400001E0FFF7AFFF2068FFF7B8FF002500E0C3
:102E50000125607A03280ED8784400794000874421
:102E600001020D11E5E72068FFF796FF2068FFF7E4
:102E7000BDFF2846B0BD01252846B0BD2068FFF73C
:102E800097FF02E02068FFF7B1FF2068FFF79EFF81
:102E90002846B0BD02480068C005C00F7047C04654
:102EA0001404014005480168012008407047C046ED
:102EB0000248016801220A43026070470020024074
:102EC000F0B581B00D460446096800292DD00027D1
:102ED00009E06A692046314600F03EF87F1C296807
:102EE0000846F84021D00126BE400E40F6D06A6860
:102EF0002046314600F04AF86868401E012804D890
:102F0000AA682046314600F064F82A692046314616
:102F100000F056F868680228E0D1FF2ED9D86A6917
:102F20002046314600F00EF8D8E76868401E0128B8
:102F300003D8EA68204600F032F8002001B0F0BD66
:102F400081627047494349434A430F234B43016A17
:102F50009943114301627047090A494349434A436F
:102F60000F234B43416A994311434162704700006C
:102F7000014908607047C046180400480320000457
:102F80000921C9060A6882430A60704749434A43D7
:102F900003234B43016899431143016070474A433F
:102FA00043688B43134343607047000003200004D1
:102FB00002490A6882430A607047C0460C00004814
:102FC00049434A4303234B43C16899431143C160BA
:102FD000704749434A4303234B4381689943114354
:102FE000816070472F4801680C2008407047C04638
:102FF0001348016801220A430260704710480168C3
:1030000004229143016070470D4800688007C00F9B
:103010007047C0460A48016880220A4378218A43E3
:10302000026070470120000405490A6802430A60F3
:103030007047C046024800688003C00F7047C04612
:10304000341002400948016801220A4302607047B7
:10305000064800688007C00F7047C04603480168F3
:1030600080220A4378218A430260704700100240A0
:103070000C480168F022914301607047072000026C
:1030800008490A6882430A607047C04609480168D7
:1030900010229143016070470248016803220A43ED
:1030A0000260704704100240024801688022914388
:1030B0000160704730100240024801680F229143BE
:1030C0000160704710000140014908607047C04628
:1030D0008C01002070B584B0154C00250420012619
:1030E000144922C425606560A660E06025616561C1
:1030F000FF20C230A561E56120626562A562E662DB
:10310000039502950195083C2046FDF7F3FF300733
:10311000039030030290019501AD20462946FDF74A
:10312000F5FE019620462946FDF7F0FE04B070BD7D
:10313000E00F00200024014010B582B0094801686A
:103140000122114301600068104001900198092498
:10315000002120460A46FEF795FD2046FEF78EFD2B
:1031600002B010BD14100240F0B597B000261696BC
:103170001596149613961296119610960F960E9613
:103180000124E004FFF7EEFDA005FFF7EBFD60046E
:10319000FFF7E8FDA004FFF7E5FD61030C918D4DFD
:1031A0002846FFF7CDFEA1030D912846FFF7C8FE84
:1031B000E1030B912846FFF7C3FE0920C0060490E7
:1031C000042739460097FFF7BBFE834D284621466A
:1031D000FFF7B6FE022105912846FFF7B1FE28460B
:1031E0003946FFF7ADFE082106912846FFF7A8FEF5
:1031F000102107912846FFF7A3FE202108912846B9
:10320000FFF79EFE402109912846FFF799FE802195
:103210000A912846FFF794FEA0020190FFF7A8FE4E
:10322000E0020290FFF7A4FE20030390FFF7A0FE48
:103230000C9F3846FFF79CFE0D98FFF799FE0B9DFB
:103240002846FFF795FE1296119610960F940E974A
:103250000EAF60483946FFF733FE1296119610966E
:103260000F940D980E905B483946FFF729FE129691
:10327000119610960F940E9556483946FFF720FE8A
:103280001296119610960F94009D0E95049839464B
:10329000FFF716FE1296119610960F940E944E4854
:1032A0003946FFF70DFE1296119610960F94059869
:1032B0000E9049483946FFF703FE12961196109674
:1032C0000F940E95444805463946FFF7F9FD1294D0
:1032D000119410960F9401980E9028463946FFF7E6
:1032E000EFFD1294119410960F9402980E902846B8
:1032F0003946FFF7E5FD1294119410960F94039848
:103300000E9028463946FFF7DBFD12941194109673
:103310000F940C980E9028463946FFF7D1FD129471
:10332000119410960F940D980E9028463946FFF789
:10333000C7FD1294119410960F940B980E90284686
:103340003946FFF7BDFD1296119610960F94069818
:103350000E9028463946FFF7B3FD12961196109647
:103360000F9407980E9028463946FFF7A9FD12964C
:10337000119610960F9408980E9028463946FFF73C
:103380009FFD1296119610960F9409980E9028465C
:103390003946FFF795FD1296119610960F940A98EC
:1033A0000E9028463946FFF78BFDFFF785FEFFF7A5
:1033B000FDFDFFF7E3FD0320010214A80181159430
:1033C00021021491FFF71AFD01F02CFE01F01AFE04
:1033D00017B0F0BD0008004800040048B0B50D4C1F
:1033E000002501200C490D4A22606160A560E06063
:1033F00025616561A561E56125622046FEF7AAFAAF
:1034000020462946FEF72EFA20462946FEF749FABD
:10341000B0BDC046741000200B02000000540040F4
:10342000B0B586B0124C00254F2012494B22D20075
:1034300021606060A560E26025616561A561059518
:10344000049503950295019500952046FEF788FFA7
:1034500001200003029002A92046FEF7C9FF019552
:10346000009569462046FEF753FF06B0B0BDC04642
:1034700040130020002C014080B50920C006012126
:103480000902FEF7DDF900281FD01048104900227C
:1034900000F00EFE002801D0FDF71EFD0B480D497F
:1034A00001F013F8002801D0FDF716FD07480A497E
:1034B00000F070FB002801D0FDF70EFD034801F07D
:1034C00092F8002801D0FDF707FD80BD1C0D0020FB
:1034D0000000002090010020B4020020704700008E
:1034E000F0B58BB0044600684425415F002901D443
:1034F0000BB0F0BD2521C900059161180391002191
:10350000C9430991214624310491014644318D2259
:103510009200A218029201220192D2030A92069509
:1035200008E0FEF7F3FC2068425F01464431099B46
:103530009A42DDDC0A880F2717402FD0B900465A7F
:103540000A9A164200D1FEE041180A889F4B1A40A1
:10355000802313430B807901651805996B184D2161
:103560008900695C0029079608937FD01A7891003A
:10357000435A5021415AD200954EF136334200D180
:10358000A5E0944B1B189A185118091F0E888E49F4
:103590000E4000D1ABE013210901A1E00188D20661
:1035A0002BD48A4A11400A9A114301805021405A73
:1035B0008849081821684018049F3979C9004018C3
:1035C000001F0088804908406064E16B0818E063D0
:1035D000002620463146FEF789FB38780028A2D025
:1035E000206C00289FD1049B187880210143C8B229
:1035F00021684C2288521E7095E70A054BD40A9A1E
:10360000114290D00188714A114080220A43028001
:103610005025415B6F4A891822688918039E3278C9
:10362000D2008B5A68490B40F3610DD071690029B3
:103630000AD0F28801F099FCF0697169081870618C
:1036400000212046FEF75DFB206862494118425B7D
:103650003369002B00D19EE03E2B00D9A2E05D082B
:10366000019E3340EB189B02069DA4E05021415A75
:10367000584A821851181A78D2008E5A52490E4070
:1036800040D0972149006A5A4F2189006958334632
:1036900001F06BFC36E05021415A4E4A89182268ED
:1036A0008918039E3278D2008B5A47490B40F36148
:1036B000F288029901F059FC20680188434A1140C0
:1036C00080220A4302802046FEF7D5FD2BE7414BBE
:1036D000C3189A18565A3C490E4008D099214900FF
:1036E0006A5A4F2189006958334601F03EFC089917
:1036F000206809788900425A344B1A400A9BC0332B
:1037000013434352512080002958891929504F20D2
:10371000800029588A192A50052080012B58002B37
:1037200004D02720C0002858B04205D90898017855
:103730002046FEF7E6FA04E0089801782046FEF7F6
:103740009DFB069D079E300600D4ECE67800400005
:1037500021680A5A1D4B1A400A9B1A430A525020EC
:10376000085A1C4A10184018790163182821595C1E
:10377000CA008018001F0088134A10402833D861FF
:103780005A6912185A619B692046002B00D0C8E67E
:10379000FEF7ACFAC7E6535A0B4D2B400A9D2B435C
:1037A000069D08E0DD065B09002D069D00D15B1E2D
:1037B0009B020A9E334353520188054A1140064A30
:1037C00051400180AFE6C046FF0300000F0F00002C
:1037D0000F3F00000604000080B0000070477047F3
:1037E000B0B5401E010E01D00120B0BD054D68608E
:1037F0000024E043032101F01FFCAC600720286097
:103800002046B0BD10E000E080B5FEF7DFF980BDD6
:1038100080B500F001F880BD80B5FFF749FBFFF7E8
:1038200041FB0128FBD1FFF70DFCFFF711FC01283C
:10383000FBD1FFF713FCFFF7DBFBFFF7E5FB0128EC
:10384000FBD1FFF7E7FBFFF7EDFBFFF7F3FB0128E9
:10385000FBD1FFF70DFCFFF711FCFFF71DFCFFF795
:10386000C1FB0C28FBD10648FFF72EFC0020FEF719
:10387000C7F9FFF7C3FBFFF709FCFFF715FC80BD95
:10388000006CDC027047000080B50248FEF713FEB2
:1038900080BDC04640130020B0B5056801229407E2
:1038A000A04205D01E4B984202D01E4B984204D134
:1038B00070239D434B682B4300E02B461A4DA842D2
:1038C00008DCA0420FD0174CA0420CD0194CA042EB
:1038D00009D023E0124CA04205D0144CA04202D0E3
:1038E000134CA0421AD103242402A343CC681C43E6
:1038F00080239C434B69234303608B68C3620B683E
:103900008362074B984205D0084B984202D0084B7F
:10391000984201D1096901634261B0BD1C46E7E7E5
:10392000002C014000040040FF2B014000480140F2
:103930000044014000200040B0B5FF242402856807
:10394000A54311431A020A432A438260B0BD82682C
:1039500070239A430A430721114381607047B0B531
:10396000036A046A0125AC4304628469F025AC4310
:103970001201224382610A2293430B430362B0BDCA
:1039800010B5036A1024A34303620F231B03846949
:103990009C4312032243036A8261A02293430901DC
:1039A0001943016210BDF0B581B00C4605465720A1
:1039B000C1006F58002F13D0142060432E18F069F7
:1039C000002808D06918896862018918896BFCF79A
:1039D000EBFC002906D08520800000263E500BE03D
:1039E000022609E01C36304600260660284621469D
:1039F0003246334600F04CFD304601B0F0BD70B5A4
:103A000004465720C600A559204600F02EFC83210D
:103A100089006850A05900280AD0A219691881208D
:103A20008000281800685268D2689047002070BD56
:103A3000022070BDB0B50446812100F059FB00257D
:103A4000E5620121204600F053FB5B2080002550F9
:103A50008221204600F04CFB25645720C0002158ED
:103A6000002907D02418606840688047206800F06B
:103A7000E3FE25600020B0BD10B55721C9004218F3
:103A80005368002B0BD04158012040020C182078BD
:103A9000FF2804D062789B689847FF2020700020A0
:103AA00010BD00000A21018000487047500200202C
:103AB0004321018000487047C80100204321018054
:103AC000004870470C0200204321018000487047E5
:103AD0005C020020F0B583B004460069012675023F
:103AE0000028019500D0402581210291022720461F
:103AF0003A462B4600F012FCE662204631463A4632
:103B00002B4600F00BFC5B20800026508221032214
:103B10000823204600F002FC2664029880000290F0
:103B2000183000F08BFE5721CD00605187218900AD
:103B3000FCF714FB6759002F13D060194068006828
:103B4000804702997818002606614661206900289E
:103B5000019B084600D040233A580121204600F03E
:103B6000E9FB304603B0F0BD10B55721C9004258FB
:103B7000002A05D003690121002B03D0402302E075
:103B8000022010BD4B028124A400125900F0D2FB88
:103B9000002010BD002904D0AF22920081500020E7
:103BA0007047022070475722D2008058812292002D
:103BB0008150002070475723DB00C0584123DB00B1
:103BC000C150C018826000207047F0B583B00E4627
:103BD00005465720C0002F5802A80024047001A8F1
:103BE0000480A7208000291830786022024011D07C
:103BF000202A1FD1F288002A22D0000628D40120D2
:103C0000400238184270717801702846394600F039
:103C1000A4F84BE070780B2825D00A282CD0002877
:103C200033D10878032836D101A90222284600F0B2
:103C3000B3F83BE02846314600F085F8022435E031
:103C40007078096A8B6800243146224698472DE037
:103C50007078096A8B6839469847F2882846394651
:103C600000F09AF822E0087803281FD02846314651
:103C700000F069F8022419E00878032811D102A99C
:103C80000122284600F088F810E02846314600F06E
:103C90005AF802240AE02846314600F054F802247B
:103CA00004E02846314600F04EF80224204603B0D6
:103CB000F0BD10B55721C9004158002908D0412254
:103CC000D20013460C33CC58002C03D0012010BD79
:103CD000022010BD0124CC508B189B6803638A58C6
:103CE0009BB2812100F0D4FB002010BD80B5AD2235
:103CF0009200825852689047002080BD80B5A7226C
:103D00009200835C5B1E022B08D84988012907D1E9
:103D1000811800228A6000F04EF880BD00F013F890
:103D200080BD10B513460A460024214600F002FB70
:103D3000204610BD10B513460A460024214600F067
:103D4000A7FB204610BD10B50446802100F07CFB87
:103D50000021204600F078FB10BDB0B513460A469E
:103D6000572189004350A524A4000325055141187B
:103D70004B600024214600F0DDFA2046B0BD10B5AE
:103D8000A5218900052242500024214622462346CF
:103D900000F0D0FA204610BD10B513460A46A52102
:103DA000890002244450C36103620024214600F0CC
:103DB0006FFB204610BD10B5A5218900042242509A
:103DC000002421462246234600F062FB204610BD17
:103DD00010B50446A72080000121215420188069D5
:103DE0004268217920469047204600F03FFB20465C
:103DF00000F032FA002010BD10B50A4603A0264C90
:103E0000214600F024F9204610BDC046434443201B
:103E1000436F6E6669670000122008800048704793
:103E2000A002002010B50A4603A01B4C214600F05A
:103E30000EF9204610BDC04643444320496E7465C8
:103E400072666163650000000420088000487047C6
:103E5000C402002010B50A4603A00F4C214600F012
:103E6000F6F8204610BDC04653747279782E496E1C
:103E70006300000010B50A4603A0074C214600F07D
:103E8000E6F8204610BDC0465765624D4D535F5061
:103E90006F776572000000000007002080B51A20CF
:103EA0000880FDF71BF8014880BDC046C80200200D
:103EB00080B5C988012911D1A7218900415C4A1E1A
:103EC000022A04D2002181600146083102E0032960
:103ED00004D1011D0122FFF75FFF80BDFFF733FF13
:103EE00080BD0000F0B581B00D460446684600264E
:103EF00006804888010A4A1E062A5CD82B2109013F
:103F00006118C0467A441279520097440315075449
:103F1000541C2400206909680A6845E0C0B20528DD
:103F200049D8C0467844007940008744022C2F329B
:103F300035380868426834E048682169012700295B
:103F400010D0C16A0FE02069002834D14868416B65
:103F5000684688472AE0206900280CD02046FFF7F1
:103F6000F2FE2CE0816A684688470646022070709F
:103F7000002F3AD026E04868016B6846884706461D
:103F80000720707013E0086882680AE00868C26859
:103F900007E00868026904E00868426901E008680F
:103FA0008269002A07D020696946904706460127A2
:103FB000002F07D119E02046FFF7C5FE002637463F
:103FC000002F12D068460288002A0BD0E88800280B
:103FD00008D0824200D3024668460280204631461D
:103FE000FFF7DAFEE888002801D001B0F0BD2046D6
:103FF000FFF7E1FE01B0F0BD0178002909D0411CB6
:1040000000204A1C401C097800291146F9D1C0B291
:1040100070470020C0B2704780B5A7229200835C31
:104020005B1E022B08D8C988022905D1811889682E
:10403000002904D0032103E0FFF785FE80BD0121A4
:10404000C16001460C310222FFF7A6FE80BD70B5AB
:1040500000281BD016460C460546FFF7CDFF400052
:10406000801C30800321617020702A78002A0DD0D6
:10407000691C0220C3B2E25401221A430023A35454
:104080004B1C801C0A78002A1946F3D170BD000031
:10409000032803D8800002A1085870470220704707
:1040A000000000000200000001000000020000000B
:1040B00010B5002811D0A7239B00C3189C69002CC1
:1040C00001D000249C61002900D0596102700121B7
:1040D000197000F0D1F8002010BD022010BD80B58D
:1040E0000B2292018058FDF763FEFFF7D1FF80BDE0
:1040F00080B50B2292018058FDF734FEFFF7C8FF10
:1041000080BDF0B581B00446A520800027180029A5
:104110000CD0386A42690220002A05D03B7A032B72
:1041200002D120469047002001B0F0BD3868002839
:1041300016D0042814D0022816D1206A666AB0422C
:104140001CD9801B206283B2204611461A46FFF715
:10415000F1FD002120460A460B4600F0EBF803E093
:104160008021204600F070F9387B012803D100201F
:10417000387301B0F0BD002001B0F0BDE5692846FC
:104180003146FCF711F9B54212D3002910D17868F5
:1041900085420DD20025204629462A46FFF7CAFD52
:1041A0007D60204629462A462B4600F0C3F8DBE70F
:1041B000386AC168002904D0387A032801D1204622
:1041C00088478021204600F03FF92046FFF7D7FDC1
:1041D000CAE770B50546A5208000281800290CD034
:1041E000026A92690224002A05D0007A032802D1CB
:1041F000284690470024204670BD01680024052908
:1042000015D00329F7D10B2149016B181E68596895
:104210008E4213D9701A1860884200D3084683B2C0
:10422000284611461A46FFF77CFD204670BD046003
:104230002846214600F008F9204670BD016A096948
:10424000002904D0007A032801D12846884728464F
:10425000FFF7B1FD204670BD80B50B2189014058A4
:10426000FDF75CFDFFF714FF80BD80B50B229201C6
:104270008058FDF7CCFD80BD70B50B218A011D492A
:1042800081509D239B00C85000238B61CB610B6242
:1042900002230B610824184D0D604C608B6086185A
:1042A0000846FDF70DFF002801D0FCF715FE306829
:1042B0000024182321462246FDF7FCFC30688021AB
:1042C00058232246FDF7F6FC30688121C0232246A0
:1042D000FDF7F0FC306801210D022B461033224619
:1042E000FDF7E8FC3068822122462B46FDF7E2FC10
:1042F000204670BDC8100020005C00400B229201D7
:1043000080584A06120D8018090602D52A30007816
:1043100070479521490040180078704710B5144641
:104320000B22920180581A462346FDF777FDFFF7CE
:10433000AFFE10BD10B50B24A4010059FDF79EFD82
:10434000FFF7A6FE10BDF0B581B00446002540265B
:1043500029462A463346FFF7E1FF2B20C0000127FC
:1043600027502018C660802120462A463346FFF792
:10437000D5FFA52080002550201807726662A7612E
:1043800005616560416A002904D0006A4268002125
:1043900020469047002001B0F0BDA7218900425C73
:1043A000042A02D14018417801700020704780B57E
:1043B000A7218900425C032A05D141188969C9698E
:1043C000002900D08847002080BD0161002070478F
:1043D00080B50B2292018058FDF739FFFFF758FE98
:1043E00080BD0000F0B581B00446A5208600A71965
:1043F0003D461435284600F054F80120A0511148DC
:10440000205A7860397D1F200840022808D00128F2
:104410000BD000280ED12046294600F0E9F80EE026
:104420002046294600F021F909E02046294600F0FF
:10443000C6F904E080200140204600F005F8002085
:1044400001B0F0BDAE02000080B50B229201805891
:10445000FDF727FDFFF71CFE80BD80B50B2189010C
:104460004058FDF713FFFFF713FE80BD80B50B2109
:1044700089014058FDF71FFFFFF70AFE80BDA72105
:104480008900425C04234354401842700020704766
:1044900010B50B24A4010059FDF738FDFFF7F8FD16
:1044A00010BD0A7802704A7842708A78CB781B0275
:1044B0009A1842800A794B791B029A1882808A796D
:1044C000C97909028918C1807047002904D0AD223A
:1044D00092008150002070470220704770B504465A
:1044E000888800280BD1C888002808D14D887F2DE6
:1044F00005D8A720800026183078032803D120464D
:10450000FFF721FC70BD7F200540B570204629468D
:10451000FFF75EFF2046FFF74EFC002D02D0022081
:10452000307070BD0120307070BD80B5AD2292003A
:104530008258002A05D012689047411E88414000E9
:1045400080BD022080BD0000B0B5044648881F4DE4
:104550002870C1B2022903D32046FFF7F4FBB0BD97
:10456000A7208000225C2018032A0CD0022A1BD12D
:10457000002927D00322027061602046FFF7D5FF93
:1045800002281FD1E8E7002916D06068884219D0B8
:10459000C1B22046FFF7AAFB297861602046FFF7E9
:1045A000C4FF02280ED1D7E72046FFF7CCFB2978BD
:1045B0002046FFF79BFBB0BD6160022202702046DF
:1045C000FFF794FB2046FFF7F6FBB0BDFF06002087
:1045D00080B54988012905D1A921890001224250CD
:1045E000FFF7E9FB80BD80B5FFF737FF002080BDF6
:1045F00080B50B7860221A400AD0402A01D0202AC8
:1046000017D1AD229200825892689047002080BD59
:104610004A78092A0DD8C0467A4412795200974444
:10462000040C081008142008181CFFF7F5FC0020E3
:1046300080BDFFF788FB002080BDFFF75FFB0020F7
:1046400080BDFFF7C5FF002080BDFFF747FF0020BA
:1046500080BDFFF72DFC002080BDFFF775FF002017
:1046600080BDFFF73FFC002080BDB0B50A46044680
:10467000087860210140A7208000201800290AD076
:10468000402901D0202918D180698368204611462D
:1046900098470020B0BD11795378002B12D0012B20
:1046A00022D0032B4ED1007803282FD0022849D1E5
:1046B00080200843802845D01FE02046FFF743FBB9
:1046C0000020B0BD007803282ED002283AD18020E7
:1046D0000843802836D17F20084014224243A31883
:1046E00008064DD514334EE0007803282FD0022859
:1046F00028D180200843802824D02046FFF7A4FE3C
:1047000080212046FFF7A0FE0020B0BD5088002881
:1047100025D180200843802821D0D08800281ED1B0
:104720002046FFF791FE1AE00F230B4080200A4637
:1047300014255D436319024016D12B25ED005B590A
:10474000002B14D12046FFF7FEFA0020B0BD5088A0
:104750000028B5D1480602D02046FFF7C0FC20460D
:10476000FFF729FB0020B0BD9B69002BEAD07F2317
:104770000B4014255D436519002A0AD014350BE05F
:10478000552080001B180020186002222046194680
:1047900011E055229200AD180843802801D1002075
:1047A00005E02046FFF7AAFD0028F8D00120286088
:1047B000022220462946FFF7EFFA0020B0BDB0B52F
:1047C0000D46044609786020084003D0402801D0F7
:1047D00020280FD1A720800020180178491E022927
:1047E00003D8A9880906490E09D02046FFF7ABFA7D
:1047F0000020B0BD2046FFF7A6FA0020B0BD8069BA
:1048000082682046294690470028F6D1E88800288B
:10481000F3D12046FFF7CFFA0020B0BD10B5044613
:10482000AD208000205842682179204690472046DC
:10483000FFF71CFE002010BD7047000000487047C5
:1048400000090020F0B586B003460F78B8001E18A6
:10485000185A834D0540C8780328049008D80022D0
:10486000784400794000874401050B08012005E0E9
:10487000012205E07B48401C01E003204002054383
:10488000794C254335803088DD4D2840384320431E
:104890003080087B002848D0039230880596734EFC
:1048A000064073483018059A108050201C5A029414
:1048B0000124A5025D19FF00EA190192E4430E8963
:1048C00026400093029B019AD652059E009A105AE8
:1048D0003A1DAA184B8923401352DA4A1346F13382
:1048E000308818404978002942D0C74900285E4CDA
:1048F000C34D03D0308828400843308030884006BC
:1049000005D5308828402346403303433380308820
:1049100028400843308030353088284004990129E8
:1049200049D021462031484046E05020185A029094
:10493000FF004878002845D01446D819029A8018FC
:10494000C988012291439202815230884006464A2A
:1049500005D530882840114640310143318030353B
:10496000318829400498012820464ED1114374E033
:1049700000283D4BA24C04D030882040A24901437E
:1049800031803088400605D53088204019464031B6
:104990000143318030882040194640310143318045
:1049A000308810409949414031803034318821406D
:1049B0001943039851E0204330803188114021434E
:1049C00003984AE00596042038430124A6029E1964
:1049D0000196503330180490C8880094A043029C7C
:1049E000049E305306203843019C27180869198813
:1049F000002803920CD03E2813D82B46009A024080
:104A0000400880188502059E16E02032514024E0BF
:104A10002B46C85B134A0240134D803D1543059E4B
:104A20000AE0C2064009002A059E00D1401E2B461E
:104A300080020D4D803D0543CD53318881480246AB
:104A4000F132114204D0318819406F4A0A43328052
:104A500032880240074951400398318006B0F0BDCA
:104A60008F89FFFFFF030000808000000F0E000011
:104A70008081000080B0FFFFB0B50A789200845AB0
:104A800080184B780A7B2F49002A21D06D4A1546A1
:104A9000F1352C40002B27D0594B5B4D002C03D017
:104AA00004881C402C4304800488640603D50488D1
:104AB0001C400C43048004881C402C430480303389
:104AC00004881C400B46403B23430380134631E0DF
:104AD000002B24D04A4A1346303364062AD5048872
:104AE00014400C43048025E0454B002C04D004887E
:104AF0001C40454D254305800488640603D5048881
:104B00001C400C43048004881C400C43048004882F
:104B100014400A46403A2243028030330AE0494BAF
:104B20001A46F132144205D00288354C1440364AF8
:104B3000A218028002881A404039114301800020E7
:104B4000B0BDC046C08000005821425A0123DB039B
:104B500013434352002070475821425A024B1340DE
:104B6000435200207047C046FF7F000010B540212F
:104B70000122425200244452014640318C800C8272
:104B800000F0E0F9204610BD4021425A024B13408C
:104B9000435200207047C0467F400000002070470D
:104BA000B0B50A7B002A01D00020B0BD0A7893007E
:104BB000C25AC0184B78002B10D05206104B114A25
:104BC00005D504881C401546203525430580C97845
:104BD0000129E9D03033018819400DE0D5490B4651
:104BE000F1331A4205D00288054B1340D44A9A1873
:104BF000028002880A40D049514001800020B0BDA7
:104C00000F0F0000A080000080C0000080B00000F6
:104C100010B54B78002B04D0094A002B04D1C54BAA
:104C200003E0064A002BFAD0C44B09788900445AA5
:104C30001C4054404452002010BDC0468090FFFFED
:104C40009080FFFF0F3F0000F0B585B00D46044691
:104C50000F698869C11B00D20021A961B84200D840
:104C600007462B7B6978012924D104940126F4039B
:104C7000002B40D003942A789000049C205A4006D0
:104C800064D4012900D197E0002900D010E1502020
:104C9000205AD100891C6118B2028918002F00D156
:104CA000EFE03A463E2F00D9F9E01640520892193B
:104CB0009202FCE001208202002B34D001295DD059
:104CC000002900D0A6E05023E35AA618F3182E7846
:104CD000F600B61C0496002F03937FD03E2F02905F
:104CE00000D989E03B4603407E08F3189B02039EEF
:104CF000049883538DE0EA88696903963E46BBB207
:104D0000049F384600F05AF95020385A381829784C
:104D1000C900891C4018039989024652B034874E55
:104D200023463C46FBE05021615AA21851182A78CC
:104D3000D200921D002F2AD03E2F31D838407B0858
:104D40001818800250527B4E7B4BE8E001293CD082
:104D5000002900D0B8E05020205AD100891D6118E8
:104D6000B2028918002F00D192E03A463E2F00D9B6
:104D7000A1E01640520892199202A4E05023E35A8F
:104D8000A618F3182E78F600B61C9F5342E0535A2B
:104D9000674E1E40C00330185052664E664BBEE050
:104DA000FE067B09002E00D15B1E9B02C003184348
:104DB0005052604E604BB2E05020205AD100891C06
:104DC00061180818B102475272E05020205AD100F1
:104DD000891D61180818B102475275E0049EF65A01
:104DE0000196534B019E3340C6039B19039E0192CB
:104DF000049A9353019A0DE0FB0601937B09019EEF
:104E0000002E00D15B1E9B02C6031E43039B049829
:104E1000C6520298474E484B012913D000297ED133
:104E20005021615AA21851182A78D200921D002FE1
:104E300011D03E2F19D838407B0818183E4B8002FD
:104E400050526CE05020205AA11808182978C90047
:104E5000891D475263E01F46535A354E1E403B465C
:104E6000C0033018334E505259E0FE067B09002E25
:104E700000D15B1E2F4E9B02C003184350522E4B95
:104E80004DE0425A2A4B1340039A134343520FE01A
:104E9000425A274B1340039A1343435214E0D3065C
:104EA0005209002B039B00D1521E92021A43425218
:104EB000284608300AE0D3065209002B039B00D194
:104EC000521E92021A43425228460A301B4E69690A
:104ED0000288BBB2204600F071F8039B1846B03040
:104EE000697801290FD0002918D129788900625AE0
:104EF0001C463346303B1340C0341C43049A545282
:104F0000049C03460BE029788900625A3346303B03
:104F100013400B4A1A436252034600E003462878C6
:104F20008000215A314059402152002005B0F0BD87
:104F3000FF0300000F3F000080B000003F0F0000A3
:104F400080C000004021425A024B134343520020CC
:104F50007047C04680BF000080B5B248FCF7EAFF4A
:104F600080BDC0464421405A704710B580180122C8
:104F7000920280185A0808D004880C70240A4C70D9
:104F8000891C521E801C002AF6D1DA0701D0008845
:104F9000087010BD002901D0002070474C218022EC
:104FA0004252002070474022012181520346403383
:104FB00000219980032383520846704710B55B1C7B
:104FC0005B080DD080180122920280180A784C7874
:104FD0002402A2180280891C5B1E801C002BF5D1C4
:104FE00010BD0000002809D41F2108400121814084
:104FF00003480160BFF34F8FBFF36F8F7047C04608
:1050000080E100E00648802101607047002805D457
:105010001F21084001218140014801607047C046BE
:1050200000E100E0FF20000602490A6882430A60AE
:105030007047C04604E400E0002805D4032203467C
:1050400093430C4A9A1806E00F220240083A0323C1
:105050009A43074BD2188007C00E8901C9B281401C
:10506000FF23834010689843084310607047C04690
:105070001CED00E000E400E084B0FCF7B1FDFEF7B9
:10508000CBFBFEF771F8FEF757F8FEF723F8FEF7B3
:10509000F3F9FEF7C5F9FEF7A1F95148FDF798F9C4
:1050A00050480124047000F015F90025284600F04E
:1050B00005F900F07BF91220294600F071F94A4EFB
:1050C00006CE4AA02346083E00F0F6F914212846F1
:1050D00000F066F906CE48A02346083E00F0ECF941
:1050E00028210295284600F05BF906CE44A023460D
:1050F00000F0E2F900F05AF90CE04A48FCF721FE12
:10510000494C2046FFF78AFB2046FEF761FE0298D5
:1051100043490870FBF780FB3B4800683B49FBF7BD
:105120002FF8FBF7F0F8044664252946FBF75CF9F5
:10513000074628467843201A03900A26204631461F
:10514000FBF752F90C4603983146FBF74DF903463D
:105150002F480068039000942E482F493A4600F0EB
:10516000CBF903982949FBF70BF8FBF7CCF8044679
:105170002946FBF739F907464543651B204631466A
:10518000FBF732F90C4628463146FBF72DF903466A
:105190000094224820493A4600F0AEF93C261421FA
:1051A000304600F0FDF8104C06CC012519482B467E
:1051B000083C00F081F92821304600F0F1F806CCD7
:1051C00016482B4600F078F900F0F0F81448007803
:1051D000022892D001289DD1FEF74EF997E7C046EC
:1051E00040130020B00C00201C0000205374727982
:1051F000782E494E43000000626174563A00000068
:10520000636170563A000000B40C00200000C842F0
:10521000B80C0020C00C00207A640008060D0020A5
:1052200084130020C81000201C0D0020F0B581B0B0
:105230000C4606460A210091FBF7B6F81148405C7F
:10524000114DA870642730463946FBF7ADF80D497B
:10525000095C29704743F01B0099FBF7A5F8094941
:10526000085C6870002002E0401C032808D021463A
:10527000C140C907F8D0295C80220A432A54F3E7C9
:1052800001B0F0BD6A640008FC06002010B543B20E
:10529000002B12D43F2910D807240C400123A3402F
:1052A000C908C90108185249012A03D10A5C1A43E6
:1052B0000A5410BD0A5C9A430A5410BD80B50028F8
:1052C00001D1024600E0FF22012081024848FAF79E
:1052D0003EFF80BD70B56420FCF7D8F9AE2000F029
:1052E000D9F82025284600F0D5F81026304600F0E1
:1052F000D1F8B02000F0CEF8C82000F0CBF80024A0
:10530000204600F0C7F8304600F0C4F8402000F016
:10531000C1F8812000F0BEF8FF2000F0BBF8A1200A
:1053200000F0B8F8A62000F0B5F8A82000F0B2F818
:105330003F2000F0AFF8A42000F0ACF8D32000F03C
:10534000A9F8204600F0A6F8D52000F0A3F8F02038
:1053500000F0A0F8D92000F09DF8222000F09AF883
:10536000DA2000F097F8122000F094F8DB2000F02B
:1053700091F8284600F08EF88D2000F08BF814206C
:1053800000F088F8AF2000F085F82046FFF796FF80
:1053900000F00CF83E4804803C480480012070BDB9
:1053A0003B4A1180394908807047C04670B584B0C7
:1053B00000250F4E3F4C28465038C0B200F06AF826
:1053C000002000F067F8102000F064F864208021CD
:1053D0000096019102907821402201232046FCF79B
:1053E00007FB80366D1C082DE5D104B070BDC046AA
:1053F000FC020020F0B587B0044624480088CEB2F5
:10540000351800207F2D3ED80696214D2D88090A9B
:10541000CEB271193F2936D8039205930194002E1C
:10542000069A2BD00598474247410198203870438F
:1054300002900025049603E06D1C049EB5421DD029
:10544000002AF9D002982818400003990E5A002427
:105450000DE00E4800882018C0B20D49098869186F
:10546000C9B2FFF713FF641C069AA242E4D030468B
:10547000A04000043A46ECD5059AEAE703490888BB
:1054800080180880019807B0F0BDC046F6020020E1
:10549000F802002080B584B003A908700A20012317
:1054A000009101930290034878210022FCF7A0FAB2
:1054B00004B080BD74100020F0B581B00E460746E0
:1054C00000780021002814D01C4615460091C0B277
:1054D00031462A462346FFF78DFF01463878814240
:1054E00008D1791C787800280F46F0D1009801B0D7
:1054F000F0BD084601B0F0BD0FB410B504A9074BCC
:1055000002AA039800F032F8044602A9002000F035
:10551000D5F8204610BC08BC04B01847BD5600089A
:105520002021020C01D010211046020A01D01046A1
:105530000839020901D01046091F820801D010461F
:10554000891E420801D0881E7047081A704702E081
:1055500008C8121F08C1002AFAD1704770470020FE
:1055600001E001C1121F002AFBD17047FFB58DB0C9
:105570000446002506E025280AD0109A0F99904786
:10558000641C6D1C20780028F5D1284611B0F0BDB0
:1055900000270121484A009700E00743641C237854
:1055A0000846203B98401042F7D120782E2817D18A
:1055B000042007436078641C2A280CD10E98641CD0
:1055C00002C800910E900BE000990A225143303935
:1055D0004018641C00902078014630390929F3D91D
:1055E00020780028D1D0642808D0692806D07528F2
:1055F0001ED0109A0F9990476D1C5BE00A200E99FF
:10560000019001C90E91002802DA40422D2102E0EA
:10561000390504D52B216A461172012103E0F907EF
:1056200004D02021F7E70BAE0B910DE00021FAE743
:105630000A200E99019001C90E91F7E70199FAF736
:10564000B3FE3031761E31700028F7D103A8801BDD
:1056500020300190780701D5009801E001200090EA
:105660000199884201DD401A00E0002000270090E7
:1056700006E002A8109AC05D0F9990476D1C7F1C30
:105680000B988742F5DB04E0109A30200F99904781
:105690006D1C0099481E00900029F5DC05E030786B
:1056A000109A761C0F9990476D1C0199481E019025
:1056B0000029F4DC641C65E7092801000A68531C12
:1056C0000B60107070470000000000000000000038
:1056D00000000000000000000000000000000000CA
:1056E000000000000000000000000000000C000CA2
:1056F000000C000C000C000C000C000C000C000C4A
:10570000000C0000000C000C000000000000000075
:10571000001B001B001B001B001B00000000000002
:105720000000000000000000000000000000000079
:10573000000000008019801980198019C07FC07F87
:1057400080190033C07FC07F003300330033003343
:105750000000000000000000001E003F8075806512
:105760000074003C001E0007800580658065807520
:10577000003F001E0004000400000000007000D87C
:1057800040D8C0D880D900730006000C801BC036FA
:10579000C066C046C0068003000000000000000094
:1057A000001E003F003300330033001E000CC03CDD
:1057B000C066806380618063C03E801C0000000082
:1057C00000000000000C000C000C000C000C00009D
:1057D00000000000000000000000000000000000C9
:1057E0000000000000008000000100030006000629
:1057F0000004000C000C000C000C000C000C000459
:1058000000060006000300018000002000100018C0
:10581000000C000C0004000600060006000600064E
:1058200000060004000C000C00180010002000000E
:10583000000C002D003F001E00330000000000009F
:105840000000000000000000000000000000000058
:105850000000000000000000000C000C000C000C18
:10586000C0FFC0FF000C000C000C000C000000008A
:105870000000000000000000000000000000000028
:105880000000000000000000000000000000000018
:10589000000C000C000400040008000000000000E0
:1058A000000000000000000000000000001E001EBC
:1058B00000000000000000000000000000000000E8
:1058C00000000000000000000000000000000000D8
:1058D0000000000000000000000C000C00000000B0
:1058E000000000000003000300030006000600069D
:1058F0000006000C000C000C000C0018001800182A
:105900000000000000000000001E003F0033806126
:1059100080618061806D806D806180618061003315
:10592000003F001E00000000000000000006000E06
:10593000001E0036002600060006000600060006CF
:10594000000600060006000600000000000000003F
:10595000001E003F807380618061800100030006AB
:10596000000C001800300060807F807F0000000085
:1059700000000000001C003E006300630003000EF6
:10598000000E00038001800180618073003F001ED3
:1059900000000000000000000006000E000E001EC7
:1059A000001E0016003600360066807F807F0006ED
:1059B000000600060000000000000000007F007FDD
:1059C000006000600060006E007F806380018001E5
:1059D00080618073003F001E000000000000000096
:1059E000001E003F803380610060006E007F807386
:1059F0008061806180618033003F001E00000000F4
:105A000000000000807F807F80010003000300060B
:105A10000006000C000C000C00080018001800180C
:105A20000000000000000000001E003F8063806155
:105A300080610021001E003F806180618061806183
:105A4000003F001E0000000000000000001E003F9C
:105A500000738061806180618073803F801D800160
:105A600080610073003F001E000000000000000085
:105A70000000000000000000000C000C000000000E
:105A80000000000000000000000C000C00000000FE
:105A90000000000000000000000000000000000CFA
:105AA000000C00000000000000000000000C000CD2
:105AB0000004000400080000000000000000800056
:105AC0008003000E003800600038000E8003800064
:105AD00000000000000000000000000000000000C6
